{"abi":[{"inputs":[{"internalType":"uint256","name":"minimum","type":"uint256"}],"name":"createCampaign","outputs":[],"stateMutability":"nonpayable","type":"function"},{"inputs":[{"internalType":"uint256","name":"","type":"uint256"}],"name":"deployedContracts","outputs":[{"internalType":"address payable","name":"","type":"address"}],"stateMutability":"view","type":"function"},{"inputs":[],"name":"getDeployedCampaigns","outputs":[{"internalType":"address payable[]","name":"","type":"address[]"}],"stateMutability":"view","type":"function"}],"devdoc":{"kind":"dev","methods":{},"version":1},"evm":{"assembly":"    /* \"Campaign.sol\":60:494  contract CampaignFactory {... */\n  mstore(0x40, 0x80)\n  callvalue\n  dup1\n  iszero\n  tag_1\n  jumpi\n  0x00\n  dup1\n  revert\ntag_1:\n  pop\n  dataSize(sub_0)\n  dup1\n  dataOffset(sub_0)\n  0x00\n  codecopy\n  0x00\n  return\nstop\n\nsub_0: assembly {\n        /* \"Campaign.sol\":60:494  contract CampaignFactory {... */\n      mstore(0x40, 0x80)\n      callvalue\n      dup1\n      iszero\n      tag_1\n      jumpi\n      0x00\n      dup1\n      revert\n    tag_1:\n      pop\n      jumpi(tag_2, lt(calldatasize, 0x04))\n      shr(0xe0, calldataload(0x00))\n      dup1\n      0x4acb9d4f\n      eq\n      tag_3\n      jumpi\n      dup1\n      0x9ad1ee10\n      eq\n      tag_4\n      jumpi\n      dup1\n      0xa3303a75\n      eq\n      tag_5\n      jumpi\n    tag_2:\n      0x00\n      dup1\n      revert\n        /* \"Campaign.sol\":337:491  function getDeployedCampaigns()... */\n    tag_3:\n      tag_6\n      tag_7\n      jump\t// in\n    tag_6:\n      mload(0x40)\n      tag_8\n      swap2\n      swap1\n      tag_9\n      jump\t// in\n    tag_8:\n      mload(0x40)\n      dup1\n      swap2\n      sub\n      swap1\n      return\n        /* \"Campaign.sol\":92:134  address payable[] public deployedContracts */\n    tag_4:\n      tag_10\n      0x04\n      dup1\n      calldatasize\n      sub\n      dup2\n      add\n      swap1\n      tag_11\n      swap2\n      swap1\n      tag_12\n      jump\t// in\n    tag_11:\n      tag_13\n      jump\t// in\n    tag_10:\n      mload(0x40)\n      tag_14\n      swap2\n      swap1\n      tag_15\n      jump\t// in\n    tag_14:\n      mload(0x40)\n      dup1\n      swap2\n      sub\n      swap1\n      return\n        /* \"Campaign.sol\":143:329  function createCampaign(uint256 minimum) public {... */\n    tag_5:\n      tag_16\n      0x04\n      dup1\n      calldatasize\n      sub\n      dup2\n      add\n      swap1\n      tag_17\n      swap2\n      swap1\n      tag_12\n      jump\t// in\n    tag_17:\n      tag_18\n      jump\t// in\n    tag_16:\n      stop\n        /* \"Campaign.sol\":337:491  function getDeployedCampaigns()... */\n    tag_7:\n        /* \"Campaign.sol\":417:441  address payable[] memory */\n      0x60\n        /* \"Campaign.sol\":466:483  deployedContracts */\n      0x00\n        /* \"Campaign.sol\":459:483  return deployedContracts */\n      dup1\n      sload\n      dup1\n      0x20\n      mul\n      0x20\n      add\n      mload(0x40)\n      swap1\n      dup2\n      add\n      0x40\n      mstore\n      dup1\n      swap3\n      swap2\n      swap1\n      dup2\n      dup2\n      mstore\n      0x20\n      add\n      dup3\n      dup1\n      sload\n      dup1\n      iszero\n      tag_20\n      jumpi\n      0x20\n      mul\n      dup3\n      add\n      swap2\n      swap1\n      0x00\n      mstore\n      keccak256(0x00, 0x20)\n      swap1\n    tag_21:\n      dup2\n      0x00\n      swap1\n      sload\n      swap1\n      0x0100\n      exp\n      swap1\n      div\n      0xffffffffffffffffffffffffffffffffffffffff\n      and\n      0xffffffffffffffffffffffffffffffffffffffff\n      and\n      dup2\n      mstore\n      0x20\n      add\n      swap1\n      0x01\n      add\n      swap1\n      dup1\n      dup4\n      gt\n      tag_21\n      jumpi\n    tag_20:\n      pop\n      pop\n      pop\n      pop\n      pop\n      swap1\n      pop\n        /* \"Campaign.sol\":337:491  function getDeployedCampaigns()... */\n      swap1\n      jump\t// out\n        /* \"Campaign.sol\":92:134  address payable[] public deployedContracts */\n    tag_13:\n      0x00\n      dup2\n      dup2\n      sload\n      dup2\n      lt\n      tag_22\n      jumpi\n      0x00\n      dup1\n      revert\n    tag_22:\n      swap1\n      0x00\n      mstore\n      keccak256(0x00, 0x20)\n      add\n      0x00\n      swap2\n      pop\n      sload\n      swap1\n      0x0100\n      exp\n      swap1\n      div\n      0xffffffffffffffffffffffffffffffffffffffff\n      and\n      dup2\n      jump\t// out\n        /* \"Campaign.sol\":143:329  function createCampaign(uint256 minimum) public {... */\n    tag_18:\n        /* \"Campaign.sol\":202:221  address newCampaign */\n      0x00\n        /* \"Campaign.sol\":245:252  minimum */\n      dup2\n        /* \"Campaign.sol\":254:264  msg.sender */\n      caller\n        /* \"Campaign.sol\":232:265  new Campaign(minimum, msg.sender) */\n      mload(0x40)\n      tag_25\n      swap1\n      tag_26\n      jump\t// in\n    tag_25:\n      tag_27\n      swap3\n      swap2\n      swap1\n      tag_28\n      jump\t// in\n    tag_27:\n      mload(0x40)\n      dup1\n      swap2\n      sub\n      swap1\n      0x00\n      create\n      dup1\n      iszero\n      dup1\n      iszero\n      tag_29\n      jumpi\n      returndatasize\n      0x00\n      dup1\n      returndatacopy\n      revert(0x00, returndatasize)\n    tag_29:\n      pop\n        /* \"Campaign.sol\":202:266  address newCampaign = address(new Campaign(minimum, msg.sender)) */\n      swap1\n      pop\n        /* \"Campaign.sol\":277:294  deployedContracts */\n      0x00\n        /* \"Campaign.sol\":308:319  newCampaign */\n      dup2\n        /* \"Campaign.sol\":277:321  deployedContracts.push(payable(newCampaign)) */\n      swap1\n      dup1\n      0x01\n      dup2\n      sload\n      add\n      dup1\n      dup3\n      sstore\n      dup1\n      swap2\n      pop\n      pop\n      0x01\n      swap1\n      sub\n      swap1\n      0x00\n      mstore\n      keccak256(0x00, 0x20)\n      add\n      0x00\n      swap1\n      swap2\n      swap1\n      swap2\n      swap1\n      swap2\n      0x0100\n      exp\n      dup2\n      sload\n      dup2\n      0xffffffffffffffffffffffffffffffffffffffff\n      mul\n      not\n      and\n      swap1\n      dup4\n      0xffffffffffffffffffffffffffffffffffffffff\n      and\n      mul\n      or\n      swap1\n      sstore\n      pop\n        /* \"Campaign.sol\":191:329  {... */\n      pop\n        /* \"Campaign.sol\":143:329  function createCampaign(uint256 minimum) public {... */\n      pop\n      jump\t// out\n    tag_26:\n      dataSize(sub_0)\n      dup1\n      dataOffset(sub_0)\n      dup4\n      codecopy\n      add\n      swap1\n      jump\t// out\n        /* \"#utility.yul\":7:129   */\n    tag_31:\n        /* \"#utility.yul\":82:88   */\n      0x00\n        /* \"#utility.yul\":116:121   */\n      dup2\n        /* \"#utility.yul\":110:122   */\n      mload\n        /* \"#utility.yul\":100:122   */\n      swap1\n      pop\n        /* \"#utility.yul\":7:129   */\n      swap2\n      swap1\n      pop\n      jump\t// out\n        /* \"#utility.yul\":135:327   */\n    tag_32:\n        /* \"#utility.yul\":242:253   */\n      0x00\n        /* \"#utility.yul\":276:282   */\n      dup3\n        /* \"#utility.yul\":271:274   */\n      dup3\n        /* \"#utility.yul\":264:283   */\n      mstore\n        /* \"#utility.yul\":316:320   */\n      0x20\n        /* \"#utility.yul\":311:314   */\n      dup3\n        /* \"#utility.yul\":307:321   */\n      add\n        /* \"#utility.yul\":292:321   */\n      swap1\n      pop\n        /* \"#utility.yul\":135:327   */\n      swap3\n      swap2\n      pop\n      pop\n      jump\t// out\n        /* \"#utility.yul\":333:473   */\n    tag_33:\n        /* \"#utility.yul\":408:412   */\n      0x00\n        /* \"#utility.yul\":431:434   */\n      dup2\n        /* \"#utility.yul\":423:434   */\n      swap1\n      pop\n        /* \"#utility.yul\":461:465   */\n      0x20\n        /* \"#utility.yul\":456:459   */\n      dup3\n        /* \"#utility.yul\":452:466   */\n      add\n        /* \"#utility.yul\":444:466   */\n      swap1\n      pop\n        /* \"#utility.yul\":333:473   */\n      swap2\n      swap1\n      pop\n      jump\t// out\n        /* \"#utility.yul\":479:605   */\n    tag_34:\n        /* \"#utility.yul\":516:523   */\n      0x00\n        /* \"#utility.yul\":556:598   */\n      0xffffffffffffffffffffffffffffffffffffffff\n        /* \"#utility.yul\":549:554   */\n      dup3\n        /* \"#utility.yul\":545:599   */\n      and\n        /* \"#utility.yul\":534:599   */\n      swap1\n      pop\n        /* \"#utility.yul\":479:605   */\n      swap2\n      swap1\n      pop\n      jump\t// out\n        /* \"#utility.yul\":611:715   */\n    tag_35:\n        /* \"#utility.yul\":656:663   */\n      0x00\n        /* \"#utility.yul\":685:709   */\n      tag_56\n        /* \"#utility.yul\":703:708   */\n      dup3\n        /* \"#utility.yul\":685:709   */\n      tag_34\n      jump\t// in\n    tag_56:\n        /* \"#utility.yul\":674:709   */\n      swap1\n      pop\n        /* \"#utility.yul\":611:715   */\n      swap2\n      swap1\n      pop\n      jump\t// out\n        /* \"#utility.yul\":721:853   */\n    tag_36:\n        /* \"#utility.yul\":814:846   */\n      tag_58\n        /* \"#utility.yul\":840:845   */\n      dup2\n        /* \"#utility.yul\":814:846   */\n      tag_35\n      jump\t// in\n    tag_58:\n        /* \"#utility.yul\":809:812   */\n      dup3\n        /* \"#utility.yul\":802:847   */\n      mstore\n        /* \"#utility.yul\":721:853   */\n      pop\n      pop\n      jump\t// out\n        /* \"#utility.yul\":859:1070   */\n    tag_37:\n        /* \"#utility.yul\":944:954   */\n      0x00\n        /* \"#utility.yul\":965:1027   */\n      tag_60\n        /* \"#utility.yul\":1023:1026   */\n      dup4\n        /* \"#utility.yul\":1015:1021   */\n      dup4\n        /* \"#utility.yul\":965:1027   */\n      tag_36\n      jump\t// in\n    tag_60:\n        /* \"#utility.yul\":1059:1063   */\n      0x20\n        /* \"#utility.yul\":1054:1057   */\n      dup4\n        /* \"#utility.yul\":1050:1064   */\n      add\n        /* \"#utility.yul\":1036:1064   */\n      swap1\n      pop\n        /* \"#utility.yul\":859:1070   */\n      swap3\n      swap2\n      pop\n      pop\n      jump\t// out\n        /* \"#utility.yul\":1076:1197   */\n    tag_38:\n        /* \"#utility.yul\":1154:1158   */\n      0x00\n        /* \"#utility.yul\":1186:1190   */\n      0x20\n        /* \"#utility.yul\":1181:1184   */\n      dup3\n        /* \"#utility.yul\":1177:1191   */\n      add\n        /* \"#utility.yul\":1169:1191   */\n      swap1\n      pop\n        /* \"#utility.yul\":1076:1197   */\n      swap2\n      swap1\n      pop\n      jump\t// out\n        /* \"#utility.yul\":1249:2045   */\n    tag_39:\n        /* \"#utility.yul\":1384:1387   */\n      0x00\n        /* \"#utility.yul\":1413:1475   */\n      tag_63\n        /* \"#utility.yul\":1469:1474   */\n      dup3\n        /* \"#utility.yul\":1413:1475   */\n      tag_31\n      jump\t// in\n    tag_63:\n        /* \"#utility.yul\":1491:1585   */\n      tag_64\n        /* \"#utility.yul\":1578:1584   */\n      dup2\n        /* \"#utility.yul\":1573:1576   */\n      dup6\n        /* \"#utility.yul\":1491:1585   */\n      tag_32\n      jump\t// in\n    tag_64:\n        /* \"#utility.yul\":1484:1585   */\n      swap4\n      pop\n        /* \"#utility.yul\":1609:1673   */\n      tag_65\n        /* \"#utility.yul\":1667:1672   */\n      dup4\n        /* \"#utility.yul\":1609:1673   */\n      tag_33\n      jump\t// in\n    tag_65:\n        /* \"#utility.yul\":1696:1703   */\n      dup1\n        /* \"#utility.yul\":1727:1728   */\n      0x00\n        /* \"#utility.yul\":1712:2020   */\n    tag_66:\n        /* \"#utility.yul\":1737:1743   */\n      dup4\n        /* \"#utility.yul\":1734:1735   */\n      dup2\n        /* \"#utility.yul\":1731:1744   */\n      lt\n        /* \"#utility.yul\":1712:2020   */\n      iszero\n      tag_68\n      jumpi\n        /* \"#utility.yul\":1813:1819   */\n      dup2\n        /* \"#utility.yul\":1807:1820   */\n      mload\n        /* \"#utility.yul\":1840:1919   */\n      tag_69\n        /* \"#utility.yul\":1915:1918   */\n      dup9\n        /* \"#utility.yul\":1900:1913   */\n      dup3\n        /* \"#utility.yul\":1840:1919   */\n      tag_37\n      jump\t// in\n    tag_69:\n        /* \"#utility.yul\":1833:1919   */\n      swap8\n      pop\n        /* \"#utility.yul\":1942:2010   */\n      tag_70\n        /* \"#utility.yul\":2003:2009   */\n      dup4\n        /* \"#utility.yul\":1942:2010   */\n      tag_38\n      jump\t// in\n    tag_70:\n        /* \"#utility.yul\":1932:2010   */\n      swap3\n      pop\n        /* \"#utility.yul\":1772:2020   */\n      pop\n        /* \"#utility.yul\":1759:1760   */\n      0x01\n        /* \"#utility.yul\":1756:1757   */\n      dup2\n        /* \"#utility.yul\":1752:1761   */\n      add\n        /* \"#utility.yul\":1747:1761   */\n      swap1\n      pop\n        /* \"#utility.yul\":1712:2020   */\n      jump(tag_66)\n    tag_68:\n        /* \"#utility.yul\":1716:1730   */\n      pop\n        /* \"#utility.yul\":2036:2039   */\n      dup6\n        /* \"#utility.yul\":2029:2039   */\n      swap4\n      pop\n        /* \"#utility.yul\":1389:2045   */\n      pop\n      pop\n      pop\n        /* \"#utility.yul\":1249:2045   */\n      swap3\n      swap2\n      pop\n      pop\n      jump\t// out\n        /* \"#utility.yul\":2051:2456   */\n    tag_9:\n        /* \"#utility.yul\":2210:2214   */\n      0x00\n        /* \"#utility.yul\":2248:2250   */\n      0x20\n        /* \"#utility.yul\":2237:2246   */\n      dup3\n        /* \"#utility.yul\":2233:2251   */\n      add\n        /* \"#utility.yul\":2225:2251   */\n      swap1\n      pop\n        /* \"#utility.yul\":2297:2306   */\n      dup2\n        /* \"#utility.yul\":2291:2295   */\n      dup2\n        /* \"#utility.yul\":2287:2307   */\n      sub\n        /* \"#utility.yul\":2283:2284   */\n      0x00\n        /* \"#utility.yul\":2272:2281   */\n      dup4\n        /* \"#utility.yul\":2268:2285   */\n      add\n        /* \"#utility.yul\":2261:2308   */\n      mstore\n        /* \"#utility.yul\":2325:2449   */\n      tag_72\n        /* \"#utility.yul\":2444:2448   */\n      dup2\n        /* \"#utility.yul\":2435:2441   */\n      dup5\n        /* \"#utility.yul\":2325:2449   */\n      tag_39\n      jump\t// in\n    tag_72:\n        /* \"#utility.yul\":2317:2449   */\n      swap1\n      pop\n        /* \"#utility.yul\":2051:2456   */\n      swap3\n      swap2\n      pop\n      pop\n      jump\t// out\n        /* \"#utility.yul\":2543:2660   */\n    tag_41:\n        /* \"#utility.yul\":2652:2653   */\n      0x00\n        /* \"#utility.yul\":2649:2650   */\n      dup1\n        /* \"#utility.yul\":2642:2654   */\n      revert\n        /* \"#utility.yul\":2789:2866   */\n    tag_43:\n        /* \"#utility.yul\":2826:2833   */\n      0x00\n        /* \"#utility.yul\":2855:2860   */\n      dup2\n        /* \"#utility.yul\":2844:2860   */\n      swap1\n      pop\n        /* \"#utility.yul\":2789:2866   */\n      swap2\n      swap1\n      pop\n      jump\t// out\n        /* \"#utility.yul\":2872:2994   */\n    tag_44:\n        /* \"#utility.yul\":2945:2969   */\n      tag_78\n        /* \"#utility.yul\":2963:2968   */\n      dup2\n        /* \"#utility.yul\":2945:2969   */\n      tag_43\n      jump\t// in\n    tag_78:\n        /* \"#utility.yul\":2938:2943   */\n      dup2\n        /* \"#utility.yul\":2935:2970   */\n      eq\n        /* \"#utility.yul\":2925:2988   */\n      tag_79\n      jumpi\n        /* \"#utility.yul\":2984:2985   */\n      0x00\n        /* \"#utility.yul\":2981:2982   */\n      dup1\n        /* \"#utility.yul\":2974:2986   */\n      revert\n        /* \"#utility.yul\":2925:2988   */\n    tag_79:\n        /* \"#utility.yul\":2872:2994   */\n      pop\n      jump\t// out\n        /* \"#utility.yul\":3000:3139   */\n    tag_45:\n        /* \"#utility.yul\":3046:3051   */\n      0x00\n        /* \"#utility.yul\":3084:3090   */\n      dup2\n        /* \"#utility.yul\":3071:3091   */\n      calldataload\n        /* \"#utility.yul\":3062:3091   */\n      swap1\n      pop\n        /* \"#utility.yul\":3100:3133   */\n      tag_81\n        /* \"#utility.yul\":3127:3132   */\n      dup2\n        /* \"#utility.yul\":3100:3133   */\n      tag_44\n      jump\t// in\n    tag_81:\n        /* \"#utility.yul\":3000:3139   */\n      swap3\n      swap2\n      pop\n      pop\n      jump\t// out\n        /* \"#utility.yul\":3145:3474   */\n    tag_12:\n        /* \"#utility.yul\":3204:3210   */\n      0x00\n        /* \"#utility.yul\":3253:3255   */\n      0x20\n        /* \"#utility.yul\":3241:3250   */\n      dup3\n        /* \"#utility.yul\":3232:3239   */\n      dup5\n        /* \"#utility.yul\":3228:3251   */\n      sub\n        /* \"#utility.yul\":3224:3256   */\n      slt\n        /* \"#utility.yul\":3221:3340   */\n      iszero\n      tag_83\n      jumpi\n        /* \"#utility.yul\":3259:3338   */\n      tag_84\n      tag_41\n      jump\t// in\n    tag_84:\n        /* \"#utility.yul\":3221:3340   */\n    tag_83:\n        /* \"#utility.yul\":3379:3380   */\n      0x00\n        /* \"#utility.yul\":3404:3457   */\n      tag_85\n        /* \"#utility.yul\":3449:3456   */\n      dup5\n        /* \"#utility.yul\":3440:3446   */\n      dup3\n        /* \"#utility.yul\":3429:3438   */\n      dup6\n        /* \"#utility.yul\":3425:3447   */\n      add\n        /* \"#utility.yul\":3404:3457   */\n      tag_45\n      jump\t// in\n    tag_85:\n        /* \"#utility.yul\":3394:3457   */\n      swap2\n      pop\n        /* \"#utility.yul\":3350:3467   */\n      pop\n        /* \"#utility.yul\":3145:3474   */\n      swap3\n      swap2\n      pop\n      pop\n      jump\t// out\n        /* \"#utility.yul\":3480:3622   */\n    tag_46:\n        /* \"#utility.yul\":3583:3615   */\n      tag_87\n        /* \"#utility.yul\":3609:3614   */\n      dup2\n        /* \"#utility.yul\":3583:3615   */\n      tag_35\n      jump\t// in\n    tag_87:\n        /* \"#utility.yul\":3578:3581   */\n      dup3\n        /* \"#utility.yul\":3571:3616   */\n      mstore\n        /* \"#utility.yul\":3480:3622   */\n      pop\n      pop\n      jump\t// out\n        /* \"#utility.yul\":3628:3882   */\n    tag_15:\n        /* \"#utility.yul\":3737:3741   */\n      0x00\n        /* \"#utility.yul\":3775:3777   */\n      0x20\n        /* \"#utility.yul\":3764:3773   */\n      dup3\n        /* \"#utility.yul\":3760:3778   */\n      add\n        /* \"#utility.yul\":3752:3778   */\n      swap1\n      pop\n        /* \"#utility.yul\":3788:3875   */\n      tag_89\n        /* \"#utility.yul\":3872:3873   */\n      0x00\n        /* \"#utility.yul\":3861:3870   */\n      dup4\n        /* \"#utility.yul\":3857:3874   */\n      add\n        /* \"#utility.yul\":3848:3854   */\n      dup5\n        /* \"#utility.yul\":3788:3875   */\n      tag_46\n      jump\t// in\n    tag_89:\n        /* \"#utility.yul\":3628:3882   */\n      swap3\n      swap2\n      pop\n      pop\n      jump\t// out\n        /* \"#utility.yul\":3888:4006   */\n    tag_47:\n        /* \"#utility.yul\":3975:3999   */\n      tag_91\n        /* \"#utility.yul\":3993:3998   */\n      dup2\n        /* \"#utility.yul\":3975:3999   */\n      tag_43\n      jump\t// in\n    tag_91:\n        /* \"#utility.yul\":3970:3973   */\n      dup3\n        /* \"#utility.yul\":3963:4000   */\n      mstore\n        /* \"#utility.yul\":3888:4006   */\n      pop\n      pop\n      jump\t// out\n        /* \"#utility.yul\":4012:4108   */\n    tag_48:\n        /* \"#utility.yul\":4049:4056   */\n      0x00\n        /* \"#utility.yul\":4078:4102   */\n      tag_93\n        /* \"#utility.yul\":4096:4101   */\n      dup3\n        /* \"#utility.yul\":4078:4102   */\n      tag_34\n      jump\t// in\n    tag_93:\n        /* \"#utility.yul\":4067:4102   */\n      swap1\n      pop\n        /* \"#utility.yul\":4012:4108   */\n      swap2\n      swap1\n      pop\n      jump\t// out\n        /* \"#utility.yul\":4114:4232   */\n    tag_49:\n        /* \"#utility.yul\":4201:4225   */\n      tag_95\n        /* \"#utility.yul\":4219:4224   */\n      dup2\n        /* \"#utility.yul\":4201:4225   */\n      tag_48\n      jump\t// in\n    tag_95:\n        /* \"#utility.yul\":4196:4199   */\n      dup3\n        /* \"#utility.yul\":4189:4226   */\n      mstore\n        /* \"#utility.yul\":4114:4232   */\n      pop\n      pop\n      jump\t// out\n        /* \"#utility.yul\":4238:4570   */\n    tag_28:\n        /* \"#utility.yul\":4359:4363   */\n      0x00\n        /* \"#utility.yul\":4397:4399   */\n      0x40\n        /* \"#utility.yul\":4386:4395   */\n      dup3\n        /* \"#utility.yul\":4382:4400   */\n      add\n        /* \"#utility.yul\":4374:4400   */\n      swap1\n      pop\n        /* \"#utility.yul\":4410:4481   */\n      tag_97\n        /* \"#utility.yul\":4478:4479   */\n      0x00\n        /* \"#utility.yul\":4467:4476   */\n      dup4\n        /* \"#utility.yul\":4463:4480   */\n      add\n        /* \"#utility.yul\":4454:4460   */\n      dup6\n        /* \"#utility.yul\":4410:4481   */\n      tag_47\n      jump\t// in\n    tag_97:\n        /* \"#utility.yul\":4491:4563   */\n      tag_98\n        /* \"#utility.yul\":4559:4561   */\n      0x20\n        /* \"#utility.yul\":4548:4557   */\n      dup4\n        /* \"#utility.yul\":4544:4562   */\n      add\n        /* \"#utility.yul\":4535:4541   */\n      dup5\n        /* \"#utility.yul\":4491:4563   */\n      tag_49\n      jump\t// in\n    tag_98:\n        /* \"#utility.yul\":4238:4570   */\n      swap4\n      swap3\n      pop\n      pop\n      pop\n      jump\t// out\n    stop\n\n    sub_0: assembly {\n            /* \"Campaign.sol\":498:2775  contract Campaign {... */\n          mstore(0x40, 0x80)\n            /* \"Campaign.sol\":1022:1144  constructor(uint256 minimum, address creator) {... */\n          callvalue\n          dup1\n          iszero\n          tag_1\n          jumpi\n          0x00\n          dup1\n          revert\n        tag_1:\n          pop\n          mload(0x40)\n          sub(codesize, bytecodeSize)\n          dup1\n          bytecodeSize\n          dup4\n          codecopy\n          dup2\n          dup2\n          add\n          0x40\n          mstore\n          dup2\n          add\n          swap1\n          tag_2\n          swap2\n          swap1\n          tag_3\n          jump\t// in\n        tag_2:\n            /* \"Campaign.sol\":1089:1096  creator */\n          dup1\n            /* \"Campaign.sol\":1079:1086  manager */\n          0x00\n          dup1\n            /* \"Campaign.sol\":1079:1096  manager = creator */\n          0x0100\n          exp\n          dup2\n          sload\n          dup2\n          0xffffffffffffffffffffffffffffffffffffffff\n          mul\n          not\n          and\n          swap1\n          dup4\n          0xffffffffffffffffffffffffffffffffffffffff\n          and\n          mul\n          or\n          swap1\n          sstore\n          pop\n            /* \"Campaign.sol\":1129:1136  minimum */\n          dup2\n            /* \"Campaign.sol\":1107:1126  minimumContribution */\n          0x01\n            /* \"Campaign.sol\":1107:1136  minimumContribution = minimum */\n          dup2\n          swap1\n          sstore\n          pop\n            /* \"Campaign.sol\":1022:1144  constructor(uint256 minimum, address creator) {... */\n          pop\n          pop\n            /* \"Campaign.sol\":498:2775  contract Campaign {... */\n          jump(tag_6)\n            /* \"#utility.yul\":88:205   */\n        tag_8:\n            /* \"#utility.yul\":197:198   */\n          0x00\n            /* \"#utility.yul\":194:195   */\n          dup1\n            /* \"#utility.yul\":187:199   */\n          revert\n            /* \"#utility.yul\":334:411   */\n        tag_10:\n            /* \"#utility.yul\":371:378   */\n          0x00\n            /* \"#utility.yul\":400:405   */\n          dup2\n            /* \"#utility.yul\":389:405   */\n          swap1\n          pop\n            /* \"#utility.yul\":334:411   */\n          swap2\n          swap1\n          pop\n          jump\t// out\n            /* \"#utility.yul\":417:539   */\n        tag_11:\n            /* \"#utility.yul\":490:514   */\n          tag_23\n            /* \"#utility.yul\":508:513   */\n          dup2\n            /* \"#utility.yul\":490:514   */\n          tag_10\n          jump\t// in\n        tag_23:\n            /* \"#utility.yul\":483:488   */\n          dup2\n            /* \"#utility.yul\":480:515   */\n          eq\n            /* \"#utility.yul\":470:533   */\n          tag_24\n          jumpi\n            /* \"#utility.yul\":529:530   */\n          0x00\n            /* \"#utility.yul\":526:527   */\n          dup1\n            /* \"#utility.yul\":519:531   */\n          revert\n            /* \"#utility.yul\":470:533   */\n        tag_24:\n            /* \"#utility.yul\":417:539   */\n          pop\n          jump\t// out\n            /* \"#utility.yul\":545:688   */\n        tag_12:\n            /* \"#utility.yul\":602:607   */\n          0x00\n            /* \"#utility.yul\":633:639   */\n          dup2\n            /* \"#utility.yul\":627:640   */\n          mload\n            /* \"#utility.yul\":618:640   */\n          swap1\n          pop\n            /* \"#utility.yul\":649:682   */\n          tag_26\n            /* \"#utility.yul\":676:681   */\n          dup2\n            /* \"#utility.yul\":649:682   */\n          tag_11\n          jump\t// in\n        tag_26:\n            /* \"#utility.yul\":545:688   */\n          swap3\n          swap2\n          pop\n          pop\n          jump\t// out\n            /* \"#utility.yul\":694:820   */\n        tag_13:\n            /* \"#utility.yul\":731:738   */\n          0x00\n            /* \"#utility.yul\":771:813   */\n          0xffffffffffffffffffffffffffffffffffffffff\n            /* \"#utility.yul\":764:769   */\n          dup3\n            /* \"#utility.yul\":760:814   */\n          and\n            /* \"#utility.yul\":749:814   */\n          swap1\n          pop\n            /* \"#utility.yul\":694:820   */\n          swap2\n          swap1\n          pop\n          jump\t// out\n            /* \"#utility.yul\":826:922   */\n        tag_14:\n            /* \"#utility.yul\":863:870   */\n          0x00\n            /* \"#utility.yul\":892:916   */\n          tag_29\n            /* \"#utility.yul\":910:915   */\n          dup3\n            /* \"#utility.yul\":892:916   */\n          tag_13\n          jump\t// in\n        tag_29:\n            /* \"#utility.yul\":881:916   */\n          swap1\n          pop\n            /* \"#utility.yul\":826:922   */\n          swap2\n          swap1\n          pop\n          jump\t// out\n            /* \"#utility.yul\":928:1050   */\n        tag_15:\n            /* \"#utility.yul\":1001:1025   */\n          tag_31\n            /* \"#utility.yul\":1019:1024   */\n          dup2\n            /* \"#utility.yul\":1001:1025   */\n          tag_14\n          jump\t// in\n        tag_31:\n            /* \"#utility.yul\":994:999   */\n          dup2\n            /* \"#utility.yul\":991:1026   */\n          eq\n            /* \"#utility.yul\":981:1044   */\n          tag_32\n          jumpi\n            /* \"#utility.yul\":1040:1041   */\n          0x00\n            /* \"#utility.yul\":1037:1038   */\n          dup1\n            /* \"#utility.yul\":1030:1042   */\n          revert\n            /* \"#utility.yul\":981:1044   */\n        tag_32:\n            /* \"#utility.yul\":928:1050   */\n          pop\n          jump\t// out\n            /* \"#utility.yul\":1056:1199   */\n        tag_16:\n            /* \"#utility.yul\":1113:1118   */\n          0x00\n            /* \"#utility.yul\":1144:1150   */\n          dup2\n            /* \"#utility.yul\":1138:1151   */\n          mload\n            /* \"#utility.yul\":1129:1151   */\n          swap1\n          pop\n            /* \"#utility.yul\":1160:1193   */\n          tag_34\n            /* \"#utility.yul\":1187:1192   */\n          dup2\n            /* \"#utility.yul\":1160:1193   */\n          tag_15\n          jump\t// in\n        tag_34:\n            /* \"#utility.yul\":1056:1199   */\n          swap3\n          swap2\n          pop\n          pop\n          jump\t// out\n            /* \"#utility.yul\":1205:1712   */\n        tag_3:\n            /* \"#utility.yul\":1284:1290   */\n          0x00\n            /* \"#utility.yul\":1292:1298   */\n          dup1\n            /* \"#utility.yul\":1341:1343   */\n          0x40\n            /* \"#utility.yul\":1329:1338   */\n          dup4\n            /* \"#utility.yul\":1320:1327   */\n          dup6\n            /* \"#utility.yul\":1316:1339   */\n          sub\n            /* \"#utility.yul\":1312:1344   */\n          slt\n            /* \"#utility.yul\":1309:1428   */\n          iszero\n          tag_36\n          jumpi\n            /* \"#utility.yul\":1347:1426   */\n          tag_37\n          tag_8\n          jump\t// in\n        tag_37:\n            /* \"#utility.yul\":1309:1428   */\n        tag_36:\n            /* \"#utility.yul\":1467:1468   */\n          0x00\n            /* \"#utility.yul\":1492:1556   */\n          tag_38\n            /* \"#utility.yul\":1548:1555   */\n          dup6\n            /* \"#utility.yul\":1539:1545   */\n          dup3\n            /* \"#utility.yul\":1528:1537   */\n          dup7\n            /* \"#utility.yul\":1524:1546   */\n          add\n            /* \"#utility.yul\":1492:1556   */\n          tag_12\n          jump\t// in\n        tag_38:\n            /* \"#utility.yul\":1482:1556   */\n          swap3\n          pop\n            /* \"#utility.yul\":1438:1566   */\n          pop\n            /* \"#utility.yul\":1605:1607   */\n          0x20\n            /* \"#utility.yul\":1631:1695   */\n          tag_39\n            /* \"#utility.yul\":1687:1694   */\n          dup6\n            /* \"#utility.yul\":1678:1684   */\n          dup3\n            /* \"#utility.yul\":1667:1676   */\n          dup7\n            /* \"#utility.yul\":1663:1685   */\n          add\n            /* \"#utility.yul\":1631:1695   */\n          tag_16\n          jump\t// in\n        tag_39:\n            /* \"#utility.yul\":1621:1695   */\n          swap2\n          pop\n            /* \"#utility.yul\":1576:1705   */\n          pop\n            /* \"#utility.yul\":1205:1712   */\n          swap3\n          pop\n          swap3\n          swap1\n          pop\n          jump\t// out\n            /* \"Campaign.sol\":498:2775  contract Campaign {... */\n        tag_6:\n          dataSize(sub_0)\n          dup1\n          dataOffset(sub_0)\n          0x00\n          codecopy\n          0x00\n          return\n        stop\n\n        sub_0: assembly {\n                /* \"Campaign.sol\":498:2775  contract Campaign {... */\n              mstore(0x40, 0x80)\n              jumpi(tag_1, lt(calldatasize, 0x04))\n              shr(0xe0, calldataload(0x00))\n              dup1\n              0x7569b3d7\n              gt\n              tag_13\n              jumpi\n              dup1\n              0x7569b3d7\n              eq\n              tag_7\n              jumpi\n              dup1\n              0x81d12c58\n              eq\n              tag_8\n              jumpi\n              dup1\n              0x8a9cfd55\n              eq\n              tag_9\n              jumpi\n              dup1\n              0x937e09b1\n              eq\n              tag_10\n              jumpi\n              dup1\n              0xd7bb99ba\n              eq\n              tag_11\n              jumpi\n              dup1\n              0xd7d1bbdb\n              eq\n              tag_12\n              jumpi\n              jump(tag_1)\n            tag_13:\n              dup1\n              0x03441006\n              eq\n              tag_2\n              jumpi\n              dup1\n              0x0a144391\n              eq\n              tag_3\n              jumpi\n              dup1\n              0x3410452a\n              eq\n              tag_4\n              jumpi\n              dup1\n              0x4051ddac\n              eq\n              tag_5\n              jumpi\n              dup1\n              0x481c6a75\n              eq\n              tag_6\n              jumpi\n            tag_1:\n              0x00\n              dup1\n              revert\n                /* \"Campaign.sol\":1992:2297  function finalizeRequest(uint256 index) public restricted {... */\n            tag_2:\n              callvalue\n              dup1\n              iszero\n              tag_14\n              jumpi\n              0x00\n              dup1\n              revert\n            tag_14:\n              pop\n              tag_15\n              0x04\n              dup1\n              calldatasize\n              sub\n              dup2\n              add\n              swap1\n              tag_16\n              swap2\n              swap1\n              tag_17\n              jump\t// in\n            tag_16:\n              tag_18\n              jump\t// in\n            tag_15:\n              stop\n                /* \"Campaign.sol\":806:847  mapping(address => bool) public approvers */\n            tag_3:\n              callvalue\n              dup1\n              iszero\n              tag_19\n              jumpi\n              0x00\n              dup1\n              revert\n            tag_19:\n              pop\n              tag_20\n              0x04\n              dup1\n              calldatasize\n              sub\n              dup2\n              add\n              swap1\n              tag_21\n              swap2\n              swap1\n              tag_22\n              jump\t// in\n            tag_21:\n              tag_23\n              jump\t// in\n            tag_20:\n              mload(0x40)\n              tag_24\n              swap2\n              swap1\n              tag_25\n              jump\t// in\n            tag_24:\n              mload(0x40)\n              dup1\n              swap2\n              sub\n              swap1\n              return\n                /* \"Campaign.sol\":2673:2772  function getRequestsCount() public view returns (uint256) {... */\n            tag_4:\n              callvalue\n              dup1\n              iszero\n              tag_26\n              jumpi\n              0x00\n              dup1\n              revert\n            tag_26:\n              pop\n              tag_27\n              tag_28\n              jump\t// in\n            tag_27:\n              mload(0x40)\n              tag_29\n              swap2\n              swap1\n              tag_30\n              jump\t// in\n            tag_29:\n              mload(0x40)\n              dup1\n              swap2\n              sub\n              swap1\n              return\n                /* \"Campaign.sol\":2305:2665  function getSummary() public view returns (... */\n            tag_5:\n              callvalue\n              dup1\n              iszero\n              tag_31\n              jumpi\n              0x00\n              dup1\n              revert\n            tag_31:\n              pop\n              tag_32\n              tag_33\n              jump\t// in\n            tag_32:\n              mload(0x40)\n              tag_34\n              swap6\n              swap5\n              swap4\n              swap3\n              swap2\n              swap1\n              tag_35\n              jump\t// in\n            tag_34:\n              mload(0x40)\n              dup1\n              swap2\n              sub\n              swap1\n              return\n                /* \"Campaign.sol\":736:758  address public manager */\n            tag_6:\n              callvalue\n              dup1\n              iszero\n              tag_36\n              jumpi\n              0x00\n              dup1\n              revert\n            tag_36:\n              pop\n              tag_37\n              tag_38\n              jump\t// in\n            tag_37:\n              mload(0x40)\n              tag_39\n              swap2\n              swap1\n              tag_40\n              jump\t// in\n            tag_39:\n              mload(0x40)\n              dup1\n              swap2\n              sub\n              swap1\n              return\n                /* \"Campaign.sol\":886:918  uint256 public contributorsCount */\n            tag_7:\n              callvalue\n              dup1\n              iszero\n              tag_41\n              jumpi\n              0x00\n              dup1\n              revert\n            tag_41:\n              pop\n              tag_42\n              tag_43\n              jump\t// in\n            tag_42:\n              mload(0x40)\n              tag_44\n              swap2\n              swap1\n              tag_30\n              jump\t// in\n            tag_44:\n              mload(0x40)\n              dup1\n              swap2\n              sub\n              swap1\n              return\n                /* \"Campaign.sol\":854:879  Request[] public requests */\n            tag_8:\n              callvalue\n              dup1\n              iszero\n              tag_45\n              jumpi\n              0x00\n              dup1\n              revert\n            tag_45:\n              pop\n              tag_46\n              0x04\n              dup1\n              calldatasize\n              sub\n              dup2\n              add\n              swap1\n              tag_47\n              swap2\n              swap1\n              tag_17\n              jump\t// in\n            tag_47:\n              tag_48\n              jump\t// in\n            tag_46:\n              mload(0x40)\n              tag_49\n              swap6\n              swap5\n              swap4\n              swap3\n              swap2\n              swap1\n              tag_50\n              jump\t// in\n            tag_49:\n              mload(0x40)\n              dup1\n              swap2\n              sub\n              swap1\n              return\n                /* \"Campaign.sol\":1325:1726  function createRequest(... */\n            tag_9:\n              callvalue\n              dup1\n              iszero\n              tag_51\n              jumpi\n              0x00\n              dup1\n              revert\n            tag_51:\n              pop\n              tag_52\n              0x04\n              dup1\n              calldatasize\n              sub\n              dup2\n              add\n              swap1\n              tag_53\n              swap2\n              swap1\n              tag_54\n              jump\t// in\n            tag_53:\n              tag_55\n              jump\t// in\n            tag_52:\n              stop\n                /* \"Campaign.sol\":765:799  uint256 public minimumContribution */\n            tag_10:\n              callvalue\n              dup1\n              iszero\n              tag_56\n              jumpi\n              0x00\n              dup1\n              revert\n            tag_56:\n              pop\n              tag_57\n              tag_58\n              jump\t// in\n            tag_57:\n              mload(0x40)\n              tag_59\n              swap2\n              swap1\n              tag_30\n              jump\t// in\n            tag_59:\n              mload(0x40)\n              dup1\n              swap2\n              sub\n              swap1\n              return\n                /* \"Campaign.sol\":1152:1317  function contribute() public payable {... */\n            tag_11:\n              tag_60\n              tag_61\n              jump\t// in\n            tag_60:\n              stop\n                /* \"Campaign.sol\":1734:1984  function approveRequest(uint256 index) public {... */\n            tag_12:\n              callvalue\n              dup1\n              iszero\n              tag_62\n              jumpi\n              0x00\n              dup1\n              revert\n            tag_62:\n              pop\n              tag_63\n              0x04\n              dup1\n              calldatasize\n              sub\n              dup2\n              add\n              swap1\n              tag_64\n              swap2\n              swap1\n              tag_17\n              jump\t// in\n            tag_64:\n              tag_65\n              jump\t// in\n            tag_63:\n              stop\n                /* \"Campaign.sol\":1992:2297  function finalizeRequest(uint256 index) public restricted {... */\n            tag_18:\n                /* \"Campaign.sol\":986:993  manager */\n              0x00\n              dup1\n              sload\n              swap1\n              0x0100\n              exp\n              swap1\n              div\n              0xffffffffffffffffffffffffffffffffffffffff\n              and\n                /* \"Campaign.sol\":972:993  msg.sender == manager */\n              0xffffffffffffffffffffffffffffffffffffffff\n              and\n                /* \"Campaign.sol\":972:982  msg.sender */\n              caller\n                /* \"Campaign.sol\":972:993  msg.sender == manager */\n              0xffffffffffffffffffffffffffffffffffffffff\n              and\n              eq\n                /* \"Campaign.sol\":964:994  require(msg.sender == manager) */\n              tag_67\n              jumpi\n              0x00\n              dup1\n              revert\n            tag_67:\n                /* \"Campaign.sol\":2122:2123  2 */\n              0x02\n                /* \"Campaign.sol\":2102:2119  contributorsCount */\n              sload(0x04)\n                /* \"Campaign.sol\":2102:2123  contributorsCount / 2 */\n              tag_69\n              swap2\n              swap1\n              tag_70\n              jump\t// in\n            tag_69:\n                /* \"Campaign.sol\":2069:2077  requests */\n              0x03\n                /* \"Campaign.sol\":2078:2083  index */\n              dup3\n                /* \"Campaign.sol\":2069:2084  requests[index] */\n              dup2\n              sload\n              dup2\n              lt\n              tag_71\n              jumpi\n              tag_72\n              tag_73\n              jump\t// in\n            tag_72:\n            tag_71:\n              swap1\n              0x00\n              mstore\n              keccak256(0x00, 0x20)\n              swap1\n              0x05\n              mul\n              add\n                /* \"Campaign.sol\":2069:2098  requests[index].approvalCount */\n              0x03\n              add\n              sload\n                /* \"Campaign.sol\":2069:2124  requests[index].approvalCount > (contributorsCount / 2) */\n              gt\n                /* \"Campaign.sol\":2061:2125  require(requests[index].approvalCount > (contributorsCount / 2)) */\n              tag_75\n              jumpi\n              0x00\n              dup1\n              revert\n            tag_75:\n                /* \"Campaign.sol\":2145:2153  requests */\n              0x03\n                /* \"Campaign.sol\":2154:2159  index */\n              dup2\n                /* \"Campaign.sol\":2145:2160  requests[index] */\n              dup2\n              sload\n              dup2\n              lt\n              tag_76\n              jumpi\n              tag_77\n              tag_73\n              jump\t// in\n            tag_77:\n            tag_76:\n              swap1\n              0x00\n              mstore\n              keccak256(0x00, 0x20)\n              swap1\n              0x05\n              mul\n              add\n                /* \"Campaign.sol\":2145:2169  requests[index].complete */\n              0x02\n              add\n              0x14\n              swap1\n              sload\n              swap1\n              0x0100\n              exp\n              swap1\n              div\n              0xff\n              and\n                /* \"Campaign.sol\":2144:2169  !requests[index].complete */\n              iszero\n                /* \"Campaign.sol\":2136:2170  require(!requests[index].complete) */\n              tag_79\n              jumpi\n              0x00\n              dup1\n              revert\n            tag_79:\n                /* \"Campaign.sol\":2189:2197  requests */\n              0x03\n                /* \"Campaign.sol\":2198:2203  index */\n              dup2\n                /* \"Campaign.sol\":2189:2204  requests[index] */\n              dup2\n              sload\n              dup2\n              lt\n              tag_80\n              jumpi\n              tag_81\n              tag_73\n              jump\t// in\n            tag_81:\n            tag_80:\n              swap1\n              0x00\n              mstore\n              keccak256(0x00, 0x20)\n              swap1\n              0x05\n              mul\n              add\n                /* \"Campaign.sol\":2189:2214  requests[index].recipient */\n              0x02\n              add\n              0x00\n              swap1\n              sload\n              swap1\n              0x0100\n              exp\n              swap1\n              div\n              0xffffffffffffffffffffffffffffffffffffffff\n              and\n                /* \"Campaign.sol\":2181:2224  payable(requests[index].recipient).transfer */\n              0xffffffffffffffffffffffffffffffffffffffff\n              and\n                /* \"Campaign.sol\":2181:2247  payable(requests[index].recipient).transfer(requests[index].value) */\n              0x08fc\n                /* \"Campaign.sol\":2225:2233  requests */\n              0x03\n                /* \"Campaign.sol\":2234:2239  index */\n              dup4\n                /* \"Campaign.sol\":2225:2240  requests[index] */\n              dup2\n              sload\n              dup2\n              lt\n              tag_83\n              jumpi\n              tag_84\n              tag_73\n              jump\t// in\n            tag_84:\n            tag_83:\n              swap1\n              0x00\n              mstore\n              keccak256(0x00, 0x20)\n              swap1\n              0x05\n              mul\n              add\n                /* \"Campaign.sol\":2225:2246  requests[index].value */\n              0x01\n              add\n              sload\n                /* \"Campaign.sol\":2181:2247  payable(requests[index].recipient).transfer(requests[index].value) */\n              swap1\n              dup2\n              iszero\n              mul\n              swap1\n              mload(0x40)\n              0x00\n              mload(0x40)\n              dup1\n              dup4\n              sub\n              dup2\n              dup6\n              dup9\n              dup9\n              call\n              swap4\n              pop\n              pop\n              pop\n              pop\n              iszero\n              dup1\n              iszero\n              tag_87\n              jumpi\n              returndatasize\n              0x00\n              dup1\n              returndatacopy\n              revert(0x00, returndatasize)\n            tag_87:\n              pop\n                /* \"Campaign.sol\":2285:2289  true */\n              0x01\n                /* \"Campaign.sol\":2258:2266  requests */\n              0x03\n                /* \"Campaign.sol\":2267:2272  index */\n              dup3\n                /* \"Campaign.sol\":2258:2273  requests[index] */\n              dup2\n              sload\n              dup2\n              lt\n              tag_88\n              jumpi\n              tag_89\n              tag_73\n              jump\t// in\n            tag_89:\n            tag_88:\n              swap1\n              0x00\n              mstore\n              keccak256(0x00, 0x20)\n              swap1\n              0x05\n              mul\n              add\n                /* \"Campaign.sol\":2258:2282  requests[index].complete */\n              0x02\n              add\n              0x14\n                /* \"Campaign.sol\":2258:2289  requests[index].complete = true */\n              0x0100\n              exp\n              dup2\n              sload\n              dup2\n              0xff\n              mul\n              not\n              and\n              swap1\n              dup4\n              iszero\n              iszero\n              mul\n              or\n              swap1\n              sstore\n              pop\n                /* \"Campaign.sol\":1992:2297  function finalizeRequest(uint256 index) public restricted {... */\n              pop\n              jump\t// out\n                /* \"Campaign.sol\":806:847  mapping(address => bool) public approvers */\n            tag_23:\n              mstore(0x20, 0x02)\n              dup1\n              0x00\n              mstore\n              keccak256(0x00, 0x40)\n              0x00\n              swap2\n              pop\n              sload\n              swap1\n              0x0100\n              exp\n              swap1\n              div\n              0xff\n              and\n              dup2\n              jump\t// out\n                /* \"Campaign.sol\":2673:2772  function getRequestsCount() public view returns (uint256) {... */\n            tag_28:\n                /* \"Campaign.sol\":2722:2729  uint256 */\n              0x00\n                /* \"Campaign.sol\":2749:2757  requests */\n              0x03\n                /* \"Campaign.sol\":2749:2764  requests.length */\n              dup1\n              sload\n              swap1\n              pop\n                /* \"Campaign.sol\":2742:2764  return requests.length */\n              swap1\n              pop\n                /* \"Campaign.sol\":2673:2772  function getRequestsCount() public view returns (uint256) {... */\n              swap1\n              jump\t// out\n                /* \"Campaign.sol\":2305:2665  function getSummary() public view returns (... */\n            tag_33:\n                /* \"Campaign.sol\":2362:2369  uint256 */\n              0x00\n                /* \"Campaign.sol\":2384:2391  uint256 */\n              dup1\n                /* \"Campaign.sol\":2406:2413  uint256 */\n              0x00\n                /* \"Campaign.sol\":2428:2435  uint256 */\n              dup1\n                /* \"Campaign.sol\":2450:2457  address */\n              0x00\n                /* \"Campaign.sol\":2507:2528  address(this).balance */\n              selfbalance\n                /* \"Campaign.sol\":2543:2562  minimumContribution */\n              sload(0x01)\n                /* \"Campaign.sol\":2577:2585  requests */\n              0x03\n                /* \"Campaign.sol\":2577:2592  requests.length */\n              dup1\n              sload\n              swap1\n              pop\n                /* \"Campaign.sol\":2607:2624  contributorsCount */\n              sload(0x04)\n                /* \"Campaign.sol\":2639:2646  manager */\n              0x00\n              dup1\n              sload\n              swap1\n              0x0100\n              exp\n              swap1\n              div\n              0xffffffffffffffffffffffffffffffffffffffff\n              and\n                /* \"Campaign.sol\":2485:2657  return (... */\n              swap5\n              pop\n              swap5\n              pop\n              swap5\n              pop\n              swap5\n              pop\n              swap5\n              pop\n                /* \"Campaign.sol\":2305:2665  function getSummary() public view returns (... */\n              swap1\n              swap2\n              swap3\n              swap4\n              swap5\n              jump\t// out\n                /* \"Campaign.sol\":736:758  address public manager */\n            tag_38:\n              0x00\n              dup1\n              sload\n              swap1\n              0x0100\n              exp\n              swap1\n              div\n              0xffffffffffffffffffffffffffffffffffffffff\n              and\n              dup2\n              jump\t// out\n                /* \"Campaign.sol\":886:918  uint256 public contributorsCount */\n            tag_43:\n              sload(0x04)\n              dup2\n              jump\t// out\n                /* \"Campaign.sol\":854:879  Request[] public requests */\n            tag_48:\n              0x03\n              dup2\n              dup2\n              sload\n              dup2\n              lt\n              tag_93\n              jumpi\n              0x00\n              dup1\n              revert\n            tag_93:\n              swap1\n              0x00\n              mstore\n              keccak256(0x00, 0x20)\n              swap1\n              0x05\n              mul\n              add\n              0x00\n              swap2\n              pop\n              swap1\n              pop\n              dup1\n              0x00\n              add\n              dup1\n              sload\n              tag_95\n              swap1\n              tag_96\n              jump\t// in\n            tag_95:\n              dup1\n              0x1f\n              add\n              0x20\n              dup1\n              swap2\n              div\n              mul\n              0x20\n              add\n              mload(0x40)\n              swap1\n              dup2\n              add\n              0x40\n              mstore\n              dup1\n              swap3\n              swap2\n              swap1\n              dup2\n              dup2\n              mstore\n              0x20\n              add\n              dup3\n              dup1\n              sload\n              tag_97\n              swap1\n              tag_96\n              jump\t// in\n            tag_97:\n              dup1\n              iszero\n              tag_98\n              jumpi\n              dup1\n              0x1f\n              lt\n              tag_99\n              jumpi\n              0x0100\n              dup1\n              dup4\n              sload\n              div\n              mul\n              dup4\n              mstore\n              swap2\n              0x20\n              add\n              swap2\n              jump(tag_98)\n            tag_99:\n              dup3\n              add\n              swap2\n              swap1\n              0x00\n              mstore\n              keccak256(0x00, 0x20)\n              swap1\n            tag_100:\n              dup2\n              sload\n              dup2\n              mstore\n              swap1\n              0x01\n              add\n              swap1\n              0x20\n              add\n              dup1\n              dup4\n              gt\n              tag_100\n              jumpi\n              dup3\n              swap1\n              sub\n              0x1f\n              and\n              dup3\n              add\n              swap2\n            tag_98:\n              pop\n              pop\n              pop\n              pop\n              pop\n              swap1\n              dup1\n              0x01\n              add\n              sload\n              swap1\n              dup1\n              0x02\n              add\n              0x00\n              swap1\n              sload\n              swap1\n              0x0100\n              exp\n              swap1\n              div\n              0xffffffffffffffffffffffffffffffffffffffff\n              and\n              swap1\n              dup1\n              0x02\n              add\n              0x14\n              swap1\n              sload\n              swap1\n              0x0100\n              exp\n              swap1\n              div\n              0xff\n              and\n              swap1\n              dup1\n              0x03\n              add\n              sload\n              swap1\n              pop\n              dup6\n              jump\t// out\n                /* \"Campaign.sol\":1325:1726  function createRequest(... */\n            tag_55:\n                /* \"Campaign.sol\":986:993  manager */\n              0x00\n              dup1\n              sload\n              swap1\n              0x0100\n              exp\n              swap1\n              div\n              0xffffffffffffffffffffffffffffffffffffffff\n              and\n                /* \"Campaign.sol\":972:993  msg.sender == manager */\n              0xffffffffffffffffffffffffffffffffffffffff\n              and\n                /* \"Campaign.sol\":972:982  msg.sender */\n              caller\n                /* \"Campaign.sol\":972:993  msg.sender == manager */\n              0xffffffffffffffffffffffffffffffffffffffff\n              and\n              eq\n                /* \"Campaign.sol\":964:994  require(msg.sender == manager) */\n              tag_102\n              jumpi\n              0x00\n              dup1\n              revert\n            tag_102:\n                /* \"Campaign.sol\":1472:1498  Request storage newRequest */\n              0x00\n                /* \"Campaign.sol\":1501:1509  requests */\n              0x03\n                /* \"Campaign.sol\":1501:1516  requests.push() */\n              0x01\n              dup2\n              0x01\n              dup2\n              sload\n              add\n              dup1\n              dup3\n              sstore\n              dup1\n              swap2\n              pop\n              pop\n              sub\n              swap1\n              0x00\n              mstore\n              keccak256(0x00, 0x20)\n              swap1\n              0x05\n              mul\n              add\n                /* \"Campaign.sol\":1472:1516  Request storage newRequest = requests.push() */\n              swap1\n              pop\n                /* \"Campaign.sol\":1552:1563  description */\n              dup4\n                /* \"Campaign.sol\":1527:1537  newRequest */\n              dup2\n                /* \"Campaign.sol\":1527:1549  newRequest.description */\n              0x00\n              add\n                /* \"Campaign.sol\":1527:1563  newRequest.description = description */\n              swap1\n              dup2\n              tag_105\n              swap2\n              swap1\n              tag_106\n              jump\t// in\n            tag_105:\n              pop\n                /* \"Campaign.sol\":1593:1598  value */\n              dup3\n                /* \"Campaign.sol\":1574:1584  newRequest */\n              dup2\n                /* \"Campaign.sol\":1574:1590  newRequest.value */\n              0x01\n              add\n                /* \"Campaign.sol\":1574:1598  newRequest.value = value */\n              dup2\n              swap1\n              sstore\n              pop\n                /* \"Campaign.sol\":1632:1641  recipient */\n              dup2\n                /* \"Campaign.sol\":1609:1619  newRequest */\n              dup2\n                /* \"Campaign.sol\":1609:1629  newRequest.recipient */\n              0x02\n              add\n              0x00\n                /* \"Campaign.sol\":1609:1641  newRequest.recipient = recipient */\n              0x0100\n              exp\n              dup2\n              sload\n              dup2\n              0xffffffffffffffffffffffffffffffffffffffff\n              mul\n              not\n              and\n              swap1\n              dup4\n              0xffffffffffffffffffffffffffffffffffffffff\n              and\n              mul\n              or\n              swap1\n              sstore\n              pop\n                /* \"Campaign.sol\":1674:1679  false */\n              0x00\n                /* \"Campaign.sol\":1652:1662  newRequest */\n              dup2\n                /* \"Campaign.sol\":1652:1671  newRequest.complete */\n              0x02\n              add\n              0x14\n                /* \"Campaign.sol\":1652:1679  newRequest.complete = false */\n              0x0100\n              exp\n              dup2\n              sload\n              dup2\n              0xff\n              mul\n              not\n              and\n              swap1\n              dup4\n              iszero\n              iszero\n              mul\n              or\n              swap1\n              sstore\n              pop\n                /* \"Campaign.sol\":1717:1718  0 */\n              0x00\n                /* \"Campaign.sol\":1690:1700  newRequest */\n              dup2\n                /* \"Campaign.sol\":1690:1714  newRequest.approvalCount */\n              0x03\n              add\n                /* \"Campaign.sol\":1690:1718  newRequest.approvalCount = 0 */\n              dup2\n              swap1\n              sstore\n              pop\n                /* \"Campaign.sol\":1461:1726  {... */\n              pop\n                /* \"Campaign.sol\":1325:1726  function createRequest(... */\n              pop\n              pop\n              pop\n              jump\t// out\n                /* \"Campaign.sol\":765:799  uint256 public minimumContribution */\n            tag_58:\n              sload(0x01)\n              dup2\n              jump\t// out\n                /* \"Campaign.sol\":1152:1317  function contribute() public payable {... */\n            tag_61:\n                /* \"Campaign.sol\":1220:1239  minimumContribution */\n              sload(0x01)\n                /* \"Campaign.sol\":1208:1217  msg.value */\n              callvalue\n                /* \"Campaign.sol\":1208:1239  msg.value > minimumContribution */\n              gt\n                /* \"Campaign.sol\":1200:1240  require(msg.value > minimumContribution) */\n              tag_108\n              jumpi\n              0x00\n              dup1\n              revert\n            tag_108:\n                /* \"Campaign.sol\":1275:1279  true */\n              0x01\n                /* \"Campaign.sol\":1251:1260  approvers */\n              0x02\n                /* \"Campaign.sol\":1251:1272  approvers[msg.sender] */\n              0x00\n                /* \"Campaign.sol\":1261:1271  msg.sender */\n              caller\n                /* \"Campaign.sol\":1251:1272  approvers[msg.sender] */\n              0xffffffffffffffffffffffffffffffffffffffff\n              and\n              0xffffffffffffffffffffffffffffffffffffffff\n              and\n              dup2\n              mstore\n              0x20\n              add\n              swap1\n              dup2\n              mstore\n              0x20\n              add\n              0x00\n              keccak256\n              0x00\n                /* \"Campaign.sol\":1251:1279  approvers[msg.sender] = true */\n              0x0100\n              exp\n              dup2\n              sload\n              dup2\n              0xff\n              mul\n              not\n              and\n              swap1\n              dup4\n              iszero\n              iszero\n              mul\n              or\n              swap1\n              sstore\n              pop\n                /* \"Campaign.sol\":1290:1307  contributorsCount */\n              0x04\n              0x00\n                /* \"Campaign.sol\":1290:1309  contributorsCount++ */\n              dup2\n              sload\n              dup1\n              swap3\n              swap2\n              swap1\n              tag_109\n              swap1\n              tag_110\n              jump\t// in\n            tag_109:\n              swap2\n              swap1\n              pop\n              sstore\n              pop\n                /* \"Campaign.sol\":1152:1317  function contribute() public payable {... */\n              jump\t// out\n                /* \"Campaign.sol\":1734:1984  function approveRequest(uint256 index) public {... */\n            tag_65:\n                /* \"Campaign.sol\":1799:1808  approvers */\n              0x02\n                /* \"Campaign.sol\":1799:1820  approvers[msg.sender] */\n              0x00\n                /* \"Campaign.sol\":1809:1819  msg.sender */\n              caller\n                /* \"Campaign.sol\":1799:1820  approvers[msg.sender] */\n              0xffffffffffffffffffffffffffffffffffffffff\n              and\n              0xffffffffffffffffffffffffffffffffffffffff\n              and\n              dup2\n              mstore\n              0x20\n              add\n              swap1\n              dup2\n              mstore\n              0x20\n              add\n              0x00\n              keccak256\n              0x00\n              swap1\n              sload\n              swap1\n              0x0100\n              exp\n              swap1\n              div\n              0xff\n              and\n                /* \"Campaign.sol\":1791:1821  require(approvers[msg.sender]) */\n              tag_112\n              jumpi\n              0x00\n              dup1\n              revert\n            tag_112:\n                /* \"Campaign.sol\":1841:1849  requests */\n              0x03\n                /* \"Campaign.sol\":1850:1855  index */\n              dup2\n                /* \"Campaign.sol\":1841:1856  requests[index] */\n              dup2\n              sload\n              dup2\n              lt\n              tag_113\n              jumpi\n              tag_114\n              tag_73\n              jump\t// in\n            tag_114:\n            tag_113:\n              swap1\n              0x00\n              mstore\n              keccak256(0x00, 0x20)\n              swap1\n              0x05\n              mul\n              add\n                /* \"Campaign.sol\":1841:1866  requests[index].approvals */\n              0x04\n              add\n                /* \"Campaign.sol\":1841:1878  requests[index].approvals[msg.sender] */\n              0x00\n                /* \"Campaign.sol\":1867:1877  msg.sender */\n              caller\n                /* \"Campaign.sol\":1841:1878  requests[index].approvals[msg.sender] */\n              0xffffffffffffffffffffffffffffffffffffffff\n              and\n              0xffffffffffffffffffffffffffffffffffffffff\n              and\n              dup2\n              mstore\n              0x20\n              add\n              swap1\n              dup2\n              mstore\n              0x20\n              add\n              0x00\n              keccak256\n              0x00\n              swap1\n              sload\n              swap1\n              0x0100\n              exp\n              swap1\n              div\n              0xff\n              and\n                /* \"Campaign.sol\":1840:1878  !requests[index].approvals[msg.sender] */\n              iszero\n                /* \"Campaign.sol\":1832:1879  require(!requests[index].approvals[msg.sender]) */\n              tag_116\n              jumpi\n              0x00\n              dup1\n              revert\n            tag_116:\n                /* \"Campaign.sol\":1930:1934  true */\n              0x01\n                /* \"Campaign.sol\":1890:1898  requests */\n              0x03\n                /* \"Campaign.sol\":1899:1904  index */\n              dup3\n                /* \"Campaign.sol\":1890:1905  requests[index] */\n              dup2\n              sload\n              dup2\n              lt\n              tag_117\n              jumpi\n              tag_118\n              tag_73\n              jump\t// in\n            tag_118:\n            tag_117:\n              swap1\n              0x00\n              mstore\n              keccak256(0x00, 0x20)\n              swap1\n              0x05\n              mul\n              add\n                /* \"Campaign.sol\":1890:1915  requests[index].approvals */\n              0x04\n              add\n                /* \"Campaign.sol\":1890:1927  requests[index].approvals[msg.sender] */\n              0x00\n                /* \"Campaign.sol\":1916:1926  msg.sender */\n              caller\n                /* \"Campaign.sol\":1890:1927  requests[index].approvals[msg.sender] */\n              0xffffffffffffffffffffffffffffffffffffffff\n              and\n              0xffffffffffffffffffffffffffffffffffffffff\n              and\n              dup2\n              mstore\n              0x20\n              add\n              swap1\n              dup2\n              mstore\n              0x20\n              add\n              0x00\n              keccak256\n              0x00\n                /* \"Campaign.sol\":1890:1934  requests[index].approvals[msg.sender] = true */\n              0x0100\n              exp\n              dup2\n              sload\n              dup2\n              0xff\n              mul\n              not\n              and\n              swap1\n              dup4\n              iszero\n              iszero\n              mul\n              or\n              swap1\n              sstore\n              pop\n                /* \"Campaign.sol\":1945:1953  requests */\n              0x03\n                /* \"Campaign.sol\":1954:1959  index */\n              dup2\n                /* \"Campaign.sol\":1945:1960  requests[index] */\n              dup2\n              sload\n              dup2\n              lt\n              tag_120\n              jumpi\n              tag_121\n              tag_73\n              jump\t// in\n            tag_121:\n            tag_120:\n              swap1\n              0x00\n              mstore\n              keccak256(0x00, 0x20)\n              swap1\n              0x05\n              mul\n              add\n                /* \"Campaign.sol\":1945:1974  requests[index].approvalCount */\n              0x03\n              add\n              0x00\n                /* \"Campaign.sol\":1945:1976  requests[index].approvalCount++ */\n              dup2\n              sload\n              dup1\n              swap3\n              swap2\n              swap1\n              tag_123\n              swap1\n              tag_110\n              jump\t// in\n            tag_123:\n              swap2\n              swap1\n              pop\n              sstore\n              pop\n                /* \"Campaign.sol\":1734:1984  function approveRequest(uint256 index) public {... */\n              pop\n              jump\t// out\n                /* \"#utility.yul\":7:82   */\n            tag_124:\n                /* \"#utility.yul\":40:46   */\n              0x00\n                /* \"#utility.yul\":73:75   */\n              0x40\n                /* \"#utility.yul\":67:76   */\n              mload\n                /* \"#utility.yul\":57:76   */\n              swap1\n              pop\n                /* \"#utility.yul\":7:82   */\n              swap1\n              jump\t// out\n                /* \"#utility.yul\":88:205   */\n            tag_125:\n                /* \"#utility.yul\":197:198   */\n              0x00\n                /* \"#utility.yul\":194:195   */\n              dup1\n                /* \"#utility.yul\":187:199   */\n              revert\n                /* \"#utility.yul\":211:328   */\n            tag_126:\n                /* \"#utility.yul\":320:321   */\n              0x00\n                /* \"#utility.yul\":317:318   */\n              dup1\n                /* \"#utility.yul\":310:322   */\n              revert\n                /* \"#utility.yul\":334:411   */\n            tag_127:\n                /* \"#utility.yul\":371:378   */\n              0x00\n                /* \"#utility.yul\":400:405   */\n              dup2\n                /* \"#utility.yul\":389:405   */\n              swap1\n              pop\n                /* \"#utility.yul\":334:411   */\n              swap2\n              swap1\n              pop\n              jump\t// out\n                /* \"#utility.yul\":417:539   */\n            tag_128:\n                /* \"#utility.yul\":490:514   */\n              tag_176\n                /* \"#utility.yul\":508:513   */\n              dup2\n                /* \"#utility.yul\":490:514   */\n              tag_127\n              jump\t// in\n            tag_176:\n                /* \"#utility.yul\":483:488   */\n              dup2\n                /* \"#utility.yul\":480:515   */\n              eq\n                /* \"#utility.yul\":470:533   */\n              tag_177\n              jumpi\n                /* \"#utility.yul\":529:530   */\n              0x00\n                /* \"#utility.yul\":526:527   */\n              dup1\n                /* \"#utility.yul\":519:531   */\n              revert\n                /* \"#utility.yul\":470:533   */\n            tag_177:\n                /* \"#utility.yul\":417:539   */\n              pop\n              jump\t// out\n                /* \"#utility.yul\":545:684   */\n            tag_129:\n                /* \"#utility.yul\":591:596   */\n              0x00\n                /* \"#utility.yul\":629:635   */\n              dup2\n                /* \"#utility.yul\":616:636   */\n              calldataload\n                /* \"#utility.yul\":607:636   */\n              swap1\n              pop\n                /* \"#utility.yul\":645:678   */\n              tag_179\n                /* \"#utility.yul\":672:677   */\n              dup2\n                /* \"#utility.yul\":645:678   */\n              tag_128\n              jump\t// in\n            tag_179:\n                /* \"#utility.yul\":545:684   */\n              swap3\n              swap2\n              pop\n              pop\n              jump\t// out\n                /* \"#utility.yul\":690:1019   */\n            tag_17:\n                /* \"#utility.yul\":749:755   */\n              0x00\n                /* \"#utility.yul\":798:800   */\n              0x20\n                /* \"#utility.yul\":786:795   */\n              dup3\n                /* \"#utility.yul\":777:784   */\n              dup5\n                /* \"#utility.yul\":773:796   */\n              sub\n                /* \"#utility.yul\":769:801   */\n              slt\n                /* \"#utility.yul\":766:885   */\n              iszero\n              tag_181\n              jumpi\n                /* \"#utility.yul\":804:883   */\n              tag_182\n              tag_125\n              jump\t// in\n            tag_182:\n                /* \"#utility.yul\":766:885   */\n            tag_181:\n                /* \"#utility.yul\":924:925   */\n              0x00\n                /* \"#utility.yul\":949:1002   */\n              tag_183\n                /* \"#utility.yul\":994:1001   */\n              dup5\n                /* \"#utility.yul\":985:991   */\n              dup3\n                /* \"#utility.yul\":974:983   */\n              dup6\n                /* \"#utility.yul\":970:992   */\n              add\n                /* \"#utility.yul\":949:1002   */\n              tag_129\n              jump\t// in\n            tag_183:\n                /* \"#utility.yul\":939:1002   */\n              swap2\n              pop\n                /* \"#utility.yul\":895:1012   */\n              pop\n                /* \"#utility.yul\":690:1019   */\n              swap3\n              swap2\n              pop\n              pop\n              jump\t// out\n                /* \"#utility.yul\":1025:1151   */\n            tag_130:\n                /* \"#utility.yul\":1062:1069   */\n              0x00\n                /* \"#utility.yul\":1102:1144   */\n              0xffffffffffffffffffffffffffffffffffffffff\n                /* \"#utility.yul\":1095:1100   */\n              dup3\n                /* \"#utility.yul\":1091:1145   */\n              and\n                /* \"#utility.yul\":1080:1145   */\n              swap1\n              pop\n                /* \"#utility.yul\":1025:1151   */\n              swap2\n              swap1\n              pop\n              jump\t// out\n                /* \"#utility.yul\":1157:1253   */\n            tag_131:\n                /* \"#utility.yul\":1194:1201   */\n              0x00\n                /* \"#utility.yul\":1223:1247   */\n              tag_186\n                /* \"#utility.yul\":1241:1246   */\n              dup3\n                /* \"#utility.yul\":1223:1247   */\n              tag_130\n              jump\t// in\n            tag_186:\n                /* \"#utility.yul\":1212:1247   */\n              swap1\n              pop\n                /* \"#utility.yul\":1157:1253   */\n              swap2\n              swap1\n              pop\n              jump\t// out\n                /* \"#utility.yul\":1259:1381   */\n            tag_132:\n                /* \"#utility.yul\":1332:1356   */\n              tag_188\n                /* \"#utility.yul\":1350:1355   */\n              dup2\n                /* \"#utility.yul\":1332:1356   */\n              tag_131\n              jump\t// in\n            tag_188:\n                /* \"#utility.yul\":1325:1330   */\n              dup2\n                /* \"#utility.yul\":1322:1357   */\n              eq\n                /* \"#utility.yul\":1312:1375   */\n              tag_189\n              jumpi\n                /* \"#utility.yul\":1371:1372   */\n              0x00\n                /* \"#utility.yul\":1368:1369   */\n              dup1\n                /* \"#utility.yul\":1361:1373   */\n              revert\n                /* \"#utility.yul\":1312:1375   */\n            tag_189:\n                /* \"#utility.yul\":1259:1381   */\n              pop\n              jump\t// out\n                /* \"#utility.yul\":1387:1526   */\n            tag_133:\n                /* \"#utility.yul\":1433:1438   */\n              0x00\n                /* \"#utility.yul\":1471:1477   */\n              dup2\n                /* \"#utility.yul\":1458:1478   */\n              calldataload\n                /* \"#utility.yul\":1449:1478   */\n              swap1\n              pop\n                /* \"#utility.yul\":1487:1520   */\n              tag_191\n                /* \"#utility.yul\":1514:1519   */\n              dup2\n                /* \"#utility.yul\":1487:1520   */\n              tag_132\n              jump\t// in\n            tag_191:\n                /* \"#utility.yul\":1387:1526   */\n              swap3\n              swap2\n              pop\n              pop\n              jump\t// out\n                /* \"#utility.yul\":1532:1861   */\n            tag_22:\n                /* \"#utility.yul\":1591:1597   */\n              0x00\n                /* \"#utility.yul\":1640:1642   */\n              0x20\n                /* \"#utility.yul\":1628:1637   */\n              dup3\n                /* \"#utility.yul\":1619:1626   */\n              dup5\n                /* \"#utility.yul\":1615:1638   */\n              sub\n                /* \"#utility.yul\":1611:1643   */\n              slt\n                /* \"#utility.yul\":1608:1727   */\n              iszero\n              tag_193\n              jumpi\n                /* \"#utility.yul\":1646:1725   */\n              tag_194\n              tag_125\n              jump\t// in\n            tag_194:\n                /* \"#utility.yul\":1608:1727   */\n            tag_193:\n                /* \"#utility.yul\":1766:1767   */\n              0x00\n                /* \"#utility.yul\":1791:1844   */\n              tag_195\n                /* \"#utility.yul\":1836:1843   */\n              dup5\n                /* \"#utility.yul\":1827:1833   */\n              dup3\n                /* \"#utility.yul\":1816:1825   */\n              dup6\n                /* \"#utility.yul\":1812:1834   */\n              add\n                /* \"#utility.yul\":1791:1844   */\n              tag_133\n              jump\t// in\n            tag_195:\n                /* \"#utility.yul\":1781:1844   */\n              swap2\n              pop\n                /* \"#utility.yul\":1737:1854   */\n              pop\n                /* \"#utility.yul\":1532:1861   */\n              swap3\n              swap2\n              pop\n              pop\n              jump\t// out\n                /* \"#utility.yul\":1867:1957   */\n            tag_134:\n                /* \"#utility.yul\":1901:1908   */\n              0x00\n                /* \"#utility.yul\":1944:1949   */\n              dup2\n                /* \"#utility.yul\":1937:1950   */\n              iszero\n                /* \"#utility.yul\":1930:1951   */\n              iszero\n                /* \"#utility.yul\":1919:1951   */\n              swap1\n              pop\n                /* \"#utility.yul\":1867:1957   */\n              swap2\n              swap1\n              pop\n              jump\t// out\n                /* \"#utility.yul\":1963:2072   */\n            tag_135:\n                /* \"#utility.yul\":2044:2065   */\n              tag_198\n                /* \"#utility.yul\":2059:2064   */\n              dup2\n                /* \"#utility.yul\":2044:2065   */\n              tag_134\n              jump\t// in\n            tag_198:\n                /* \"#utility.yul\":2039:2042   */\n              dup3\n                /* \"#utility.yul\":2032:2066   */\n              mstore\n                /* \"#utility.yul\":1963:2072   */\n              pop\n              pop\n              jump\t// out\n                /* \"#utility.yul\":2078:2288   */\n            tag_25:\n                /* \"#utility.yul\":2165:2169   */\n              0x00\n                /* \"#utility.yul\":2203:2205   */\n              0x20\n                /* \"#utility.yul\":2192:2201   */\n              dup3\n                /* \"#utility.yul\":2188:2206   */\n              add\n                /* \"#utility.yul\":2180:2206   */\n              swap1\n              pop\n                /* \"#utility.yul\":2216:2281   */\n              tag_200\n                /* \"#utility.yul\":2278:2279   */\n              0x00\n                /* \"#utility.yul\":2267:2276   */\n              dup4\n                /* \"#utility.yul\":2263:2280   */\n              add\n                /* \"#utility.yul\":2254:2260   */\n              dup5\n                /* \"#utility.yul\":2216:2281   */\n              tag_135\n              jump\t// in\n            tag_200:\n                /* \"#utility.yul\":2078:2288   */\n              swap3\n              swap2\n              pop\n              pop\n              jump\t// out\n                /* \"#utility.yul\":2294:2412   */\n            tag_136:\n                /* \"#utility.yul\":2381:2405   */\n              tag_202\n                /* \"#utility.yul\":2399:2404   */\n              dup2\n                /* \"#utility.yul\":2381:2405   */\n              tag_127\n              jump\t// in\n            tag_202:\n                /* \"#utility.yul\":2376:2379   */\n              dup3\n                /* \"#utility.yul\":2369:2406   */\n              mstore\n                /* \"#utility.yul\":2294:2412   */\n              pop\n              pop\n              jump\t// out\n                /* \"#utility.yul\":2418:2640   */\n            tag_30:\n                /* \"#utility.yul\":2511:2515   */\n              0x00\n                /* \"#utility.yul\":2549:2551   */\n              0x20\n                /* \"#utility.yul\":2538:2547   */\n              dup3\n                /* \"#utility.yul\":2534:2552   */\n              add\n                /* \"#utility.yul\":2526:2552   */\n              swap1\n              pop\n                /* \"#utility.yul\":2562:2633   */\n              tag_204\n                /* \"#utility.yul\":2630:2631   */\n              0x00\n                /* \"#utility.yul\":2619:2628   */\n              dup4\n                /* \"#utility.yul\":2615:2632   */\n              add\n                /* \"#utility.yul\":2606:2612   */\n              dup5\n                /* \"#utility.yul\":2562:2633   */\n              tag_136\n              jump\t// in\n            tag_204:\n                /* \"#utility.yul\":2418:2640   */\n              swap3\n              swap2\n              pop\n              pop\n              jump\t// out\n                /* \"#utility.yul\":2646:2764   */\n            tag_137:\n                /* \"#utility.yul\":2733:2757   */\n              tag_206\n                /* \"#utility.yul\":2751:2756   */\n              dup2\n                /* \"#utility.yul\":2733:2757   */\n              tag_131\n              jump\t// in\n            tag_206:\n                /* \"#utility.yul\":2728:2731   */\n              dup3\n                /* \"#utility.yul\":2721:2758   */\n              mstore\n                /* \"#utility.yul\":2646:2764   */\n              pop\n              pop\n              jump\t// out\n                /* \"#utility.yul\":2770:3434   */\n            tag_35:\n                /* \"#utility.yul\":2975:2979   */\n              0x00\n                /* \"#utility.yul\":3013:3016   */\n              0xa0\n                /* \"#utility.yul\":3002:3011   */\n              dup3\n                /* \"#utility.yul\":2998:3017   */\n              add\n                /* \"#utility.yul\":2990:3017   */\n              swap1\n              pop\n                /* \"#utility.yul\":3027:3098   */\n              tag_208\n                /* \"#utility.yul\":3095:3096   */\n              0x00\n                /* \"#utility.yul\":3084:3093   */\n              dup4\n                /* \"#utility.yul\":3080:3097   */\n              add\n                /* \"#utility.yul\":3071:3077   */\n              dup9\n                /* \"#utility.yul\":3027:3098   */\n              tag_136\n              jump\t// in\n            tag_208:\n                /* \"#utility.yul\":3108:3180   */\n              tag_209\n                /* \"#utility.yul\":3176:3178   */\n              0x20\n                /* \"#utility.yul\":3165:3174   */\n              dup4\n                /* \"#utility.yul\":3161:3179   */\n              add\n                /* \"#utility.yul\":3152:3158   */\n              dup8\n                /* \"#utility.yul\":3108:3180   */\n              tag_136\n              jump\t// in\n            tag_209:\n                /* \"#utility.yul\":3190:3262   */\n              tag_210\n                /* \"#utility.yul\":3258:3260   */\n              0x40\n                /* \"#utility.yul\":3247:3256   */\n              dup4\n                /* \"#utility.yul\":3243:3261   */\n              add\n                /* \"#utility.yul\":3234:3240   */\n              dup7\n                /* \"#utility.yul\":3190:3262   */\n              tag_136\n              jump\t// in\n            tag_210:\n                /* \"#utility.yul\":3272:3344   */\n              tag_211\n                /* \"#utility.yul\":3340:3342   */\n              0x60\n                /* \"#utility.yul\":3329:3338   */\n              dup4\n                /* \"#utility.yul\":3325:3343   */\n              add\n                /* \"#utility.yul\":3316:3322   */\n              dup6\n                /* \"#utility.yul\":3272:3344   */\n              tag_136\n              jump\t// in\n            tag_211:\n                /* \"#utility.yul\":3354:3427   */\n              tag_212\n                /* \"#utility.yul\":3422:3425   */\n              0x80\n                /* \"#utility.yul\":3411:3420   */\n              dup4\n                /* \"#utility.yul\":3407:3426   */\n              add\n                /* \"#utility.yul\":3398:3404   */\n              dup5\n                /* \"#utility.yul\":3354:3427   */\n              tag_137\n              jump\t// in\n            tag_212:\n                /* \"#utility.yul\":2770:3434   */\n              swap7\n              swap6\n              pop\n              pop\n              pop\n              pop\n              pop\n              pop\n              jump\t// out\n                /* \"#utility.yul\":3440:3662   */\n            tag_40:\n                /* \"#utility.yul\":3533:3537   */\n              0x00\n                /* \"#utility.yul\":3571:3573   */\n              0x20\n                /* \"#utility.yul\":3560:3569   */\n              dup3\n                /* \"#utility.yul\":3556:3574   */\n              add\n                /* \"#utility.yul\":3548:3574   */\n              swap1\n              pop\n                /* \"#utility.yul\":3584:3655   */\n              tag_214\n                /* \"#utility.yul\":3652:3653   */\n              0x00\n                /* \"#utility.yul\":3641:3650   */\n              dup4\n                /* \"#utility.yul\":3637:3654   */\n              add\n                /* \"#utility.yul\":3628:3634   */\n              dup5\n                /* \"#utility.yul\":3584:3655   */\n              tag_137\n              jump\t// in\n            tag_214:\n                /* \"#utility.yul\":3440:3662   */\n              swap3\n              swap2\n              pop\n              pop\n              jump\t// out\n                /* \"#utility.yul\":3668:3767   */\n            tag_138:\n                /* \"#utility.yul\":3720:3726   */\n              0x00\n                /* \"#utility.yul\":3754:3759   */\n              dup2\n                /* \"#utility.yul\":3748:3760   */\n              mload\n                /* \"#utility.yul\":3738:3760   */\n              swap1\n              pop\n                /* \"#utility.yul\":3668:3767   */\n              swap2\n              swap1\n              pop\n              jump\t// out\n                /* \"#utility.yul\":3773:3942   */\n            tag_139:\n                /* \"#utility.yul\":3857:3868   */\n              0x00\n                /* \"#utility.yul\":3891:3897   */\n              dup3\n                /* \"#utility.yul\":3886:3889   */\n              dup3\n                /* \"#utility.yul\":3879:3898   */\n              mstore\n                /* \"#utility.yul\":3931:3935   */\n              0x20\n                /* \"#utility.yul\":3926:3929   */\n              dup3\n                /* \"#utility.yul\":3922:3936   */\n              add\n                /* \"#utility.yul\":3907:3936   */\n              swap1\n              pop\n                /* \"#utility.yul\":3773:3942   */\n              swap3\n              swap2\n              pop\n              pop\n              jump\t// out\n                /* \"#utility.yul\":3948:4255   */\n            tag_140:\n                /* \"#utility.yul\":4016:4017   */\n              0x00\n                /* \"#utility.yul\":4026:4139   */\n            tag_218:\n                /* \"#utility.yul\":4040:4046   */\n              dup4\n                /* \"#utility.yul\":4037:4038   */\n              dup2\n                /* \"#utility.yul\":4034:4047   */\n              lt\n                /* \"#utility.yul\":4026:4139   */\n              iszero\n              tag_220\n              jumpi\n                /* \"#utility.yul\":4125:4126   */\n              dup1\n                /* \"#utility.yul\":4120:4123   */\n              dup3\n                /* \"#utility.yul\":4116:4127   */\n              add\n                /* \"#utility.yul\":4110:4128   */\n              mload\n                /* \"#utility.yul\":4106:4107   */\n              dup2\n                /* \"#utility.yul\":4101:4104   */\n              dup5\n                /* \"#utility.yul\":4097:4108   */\n              add\n                /* \"#utility.yul\":4090:4129   */\n              mstore\n                /* \"#utility.yul\":4062:4064   */\n              0x20\n                /* \"#utility.yul\":4059:4060   */\n              dup2\n                /* \"#utility.yul\":4055:4065   */\n              add\n                /* \"#utility.yul\":4050:4065   */\n              swap1\n              pop\n                /* \"#utility.yul\":4026:4139   */\n              jump(tag_218)\n            tag_220:\n                /* \"#utility.yul\":4157:4163   */\n              dup4\n                /* \"#utility.yul\":4154:4155   */\n              dup2\n                /* \"#utility.yul\":4151:4164   */\n              gt\n                /* \"#utility.yul\":4148:4249   */\n              iszero\n              tag_221\n              jumpi\n                /* \"#utility.yul\":4237:4238   */\n              0x00\n                /* \"#utility.yul\":4228:4234   */\n              dup5\n                /* \"#utility.yul\":4223:4226   */\n              dup5\n                /* \"#utility.yul\":4219:4235   */\n              add\n                /* \"#utility.yul\":4212:4239   */\n              mstore\n                /* \"#utility.yul\":4148:4249   */\n            tag_221:\n                /* \"#utility.yul\":3997:4255   */\n              pop\n                /* \"#utility.yul\":3948:4255   */\n              pop\n              pop\n              pop\n              jump\t// out\n                /* \"#utility.yul\":4261:4363   */\n            tag_141:\n                /* \"#utility.yul\":4302:4308   */\n              0x00\n                /* \"#utility.yul\":4353:4355   */\n              0x1f\n                /* \"#utility.yul\":4349:4356   */\n              not\n                /* \"#utility.yul\":4344:4346   */\n              0x1f\n                /* \"#utility.yul\":4337:4342   */\n              dup4\n                /* \"#utility.yul\":4333:4347   */\n              add\n                /* \"#utility.yul\":4329:4357   */\n              and\n                /* \"#utility.yul\":4319:4357   */\n              swap1\n              pop\n                /* \"#utility.yul\":4261:4363   */\n              swap2\n              swap1\n              pop\n              jump\t// out\n                /* \"#utility.yul\":4369:4733   */\n            tag_142:\n                /* \"#utility.yul\":4457:4460   */\n              0x00\n                /* \"#utility.yul\":4485:4524   */\n              tag_224\n                /* \"#utility.yul\":4518:4523   */\n              dup3\n                /* \"#utility.yul\":4485:4524   */\n              tag_138\n              jump\t// in\n            tag_224:\n                /* \"#utility.yul\":4540:4611   */\n              tag_225\n                /* \"#utility.yul\":4604:4610   */\n              dup2\n                /* \"#utility.yul\":4599:4602   */\n              dup6\n                /* \"#utility.yul\":4540:4611   */\n              tag_139\n              jump\t// in\n            tag_225:\n                /* \"#utility.yul\":4533:4611   */\n              swap4\n              pop\n                /* \"#utility.yul\":4620:4672   */\n              tag_226\n                /* \"#utility.yul\":4665:4671   */\n              dup2\n                /* \"#utility.yul\":4660:4663   */\n              dup6\n                /* \"#utility.yul\":4653:4657   */\n              0x20\n                /* \"#utility.yul\":4646:4651   */\n              dup7\n                /* \"#utility.yul\":4642:4658   */\n              add\n                /* \"#utility.yul\":4620:4672   */\n              tag_140\n              jump\t// in\n            tag_226:\n                /* \"#utility.yul\":4697:4726   */\n              tag_227\n                /* \"#utility.yul\":4719:4725   */\n              dup2\n                /* \"#utility.yul\":4697:4726   */\n              tag_141\n              jump\t// in\n            tag_227:\n                /* \"#utility.yul\":4692:4695   */\n              dup5\n                /* \"#utility.yul\":4688:4727   */\n              add\n                /* \"#utility.yul\":4681:4727   */\n              swap2\n              pop\n                /* \"#utility.yul\":4461:4733   */\n              pop\n                /* \"#utility.yul\":4369:4733   */\n              swap3\n              swap2\n              pop\n              pop\n              jump\t// out\n                /* \"#utility.yul\":4739:5482   */\n            tag_50:\n                /* \"#utility.yul\":4958:4962   */\n              0x00\n                /* \"#utility.yul\":4996:4999   */\n              0xa0\n                /* \"#utility.yul\":4985:4994   */\n              dup3\n                /* \"#utility.yul\":4981:5000   */\n              add\n                /* \"#utility.yul\":4973:5000   */\n              swap1\n              pop\n                /* \"#utility.yul\":5046:5055   */\n              dup2\n                /* \"#utility.yul\":5040:5044   */\n              dup2\n                /* \"#utility.yul\":5036:5056   */\n              sub\n                /* \"#utility.yul\":5032:5033   */\n              0x00\n                /* \"#utility.yul\":5021:5030   */\n              dup4\n                /* \"#utility.yul\":5017:5034   */\n              add\n                /* \"#utility.yul\":5010:5057   */\n              mstore\n                /* \"#utility.yul\":5074:5152   */\n              tag_229\n                /* \"#utility.yul\":5147:5151   */\n              dup2\n                /* \"#utility.yul\":5138:5144   */\n              dup9\n                /* \"#utility.yul\":5074:5152   */\n              tag_142\n              jump\t// in\n            tag_229:\n                /* \"#utility.yul\":5066:5152   */\n              swap1\n              pop\n                /* \"#utility.yul\":5162:5234   */\n              tag_230\n                /* \"#utility.yul\":5230:5232   */\n              0x20\n                /* \"#utility.yul\":5219:5228   */\n              dup4\n                /* \"#utility.yul\":5215:5233   */\n              add\n                /* \"#utility.yul\":5206:5212   */\n              dup8\n                /* \"#utility.yul\":5162:5234   */\n              tag_136\n              jump\t// in\n            tag_230:\n                /* \"#utility.yul\":5244:5316   */\n              tag_231\n                /* \"#utility.yul\":5312:5314   */\n              0x40\n                /* \"#utility.yul\":5301:5310   */\n              dup4\n                /* \"#utility.yul\":5297:5315   */\n              add\n                /* \"#utility.yul\":5288:5294   */\n              dup7\n                /* \"#utility.yul\":5244:5316   */\n              tag_137\n              jump\t// in\n            tag_231:\n                /* \"#utility.yul\":5326:5392   */\n              tag_232\n                /* \"#utility.yul\":5388:5390   */\n              0x60\n                /* \"#utility.yul\":5377:5386   */\n              dup4\n                /* \"#utility.yul\":5373:5391   */\n              add\n                /* \"#utility.yul\":5364:5370   */\n              dup6\n                /* \"#utility.yul\":5326:5392   */\n              tag_135\n              jump\t// in\n            tag_232:\n                /* \"#utility.yul\":5402:5475   */\n              tag_233\n                /* \"#utility.yul\":5470:5473   */\n              0x80\n                /* \"#utility.yul\":5459:5468   */\n              dup4\n                /* \"#utility.yul\":5455:5474   */\n              add\n                /* \"#utility.yul\":5446:5452   */\n              dup5\n                /* \"#utility.yul\":5402:5475   */\n              tag_136\n              jump\t// in\n            tag_233:\n                /* \"#utility.yul\":4739:5482   */\n              swap7\n              swap6\n              pop\n              pop\n              pop\n              pop\n              pop\n              pop\n              jump\t// out\n                /* \"#utility.yul\":5488:5605   */\n            tag_143:\n                /* \"#utility.yul\":5597:5598   */\n              0x00\n                /* \"#utility.yul\":5594:5595   */\n              dup1\n                /* \"#utility.yul\":5587:5599   */\n              revert\n                /* \"#utility.yul\":5611:5728   */\n            tag_144:\n                /* \"#utility.yul\":5720:5721   */\n              0x00\n                /* \"#utility.yul\":5717:5718   */\n              dup1\n                /* \"#utility.yul\":5710:5722   */\n              revert\n                /* \"#utility.yul\":5734:5914   */\n            tag_145:\n                /* \"#utility.yul\":5782:5859   */\n              0x4e487b7100000000000000000000000000000000000000000000000000000000\n                /* \"#utility.yul\":5779:5780   */\n              0x00\n                /* \"#utility.yul\":5772:5860   */\n              mstore\n                /* \"#utility.yul\":5879:5883   */\n              0x41\n                /* \"#utility.yul\":5876:5877   */\n              0x04\n                /* \"#utility.yul\":5869:5884   */\n              mstore\n                /* \"#utility.yul\":5903:5907   */\n              0x24\n                /* \"#utility.yul\":5900:5901   */\n              0x00\n                /* \"#utility.yul\":5893:5908   */\n              revert\n                /* \"#utility.yul\":5920:6201   */\n            tag_146:\n                /* \"#utility.yul\":6003:6030   */\n              tag_238\n                /* \"#utility.yul\":6025:6029   */\n              dup3\n                /* \"#utility.yul\":6003:6030   */\n              tag_141\n              jump\t// in\n            tag_238:\n                /* \"#utility.yul\":5995:6001   */\n              dup2\n                /* \"#utility.yul\":5991:6031   */\n              add\n                /* \"#utility.yul\":6133:6139   */\n              dup2\n                /* \"#utility.yul\":6121:6131   */\n              dup2\n                /* \"#utility.yul\":6118:6140   */\n              lt\n                /* \"#utility.yul\":6097:6115   */\n              0xffffffffffffffff\n                /* \"#utility.yul\":6085:6095   */\n              dup3\n                /* \"#utility.yul\":6082:6116   */\n              gt\n                /* \"#utility.yul\":6079:6141   */\n              or\n                /* \"#utility.yul\":6076:6164   */\n              iszero\n              tag_239\n              jumpi\n                /* \"#utility.yul\":6144:6162   */\n              tag_240\n              tag_145\n              jump\t// in\n            tag_240:\n                /* \"#utility.yul\":6076:6164   */\n            tag_239:\n                /* \"#utility.yul\":6184:6194   */\n              dup1\n                /* \"#utility.yul\":6180:6182   */\n              0x40\n                /* \"#utility.yul\":6173:6195   */\n              mstore\n                /* \"#utility.yul\":5963:6201   */\n              pop\n                /* \"#utility.yul\":5920:6201   */\n              pop\n              pop\n              jump\t// out\n                /* \"#utility.yul\":6207:6336   */\n            tag_147:\n                /* \"#utility.yul\":6241:6247   */\n              0x00\n                /* \"#utility.yul\":6268:6288   */\n              tag_242\n              tag_124\n              jump\t// in\n            tag_242:\n                /* \"#utility.yul\":6258:6288   */\n              swap1\n              pop\n                /* \"#utility.yul\":6297:6330   */\n              tag_243\n                /* \"#utility.yul\":6325:6329   */\n              dup3\n                /* \"#utility.yul\":6317:6323   */\n              dup3\n                /* \"#utility.yul\":6297:6330   */\n              tag_146\n              jump\t// in\n            tag_243:\n                /* \"#utility.yul\":6207:6336   */\n              swap2\n              swap1\n              pop\n              jump\t// out\n                /* \"#utility.yul\":6342:6650   */\n            tag_148:\n                /* \"#utility.yul\":6404:6408   */\n              0x00\n                /* \"#utility.yul\":6494:6512   */\n              0xffffffffffffffff\n                /* \"#utility.yul\":6486:6492   */\n              dup3\n                /* \"#utility.yul\":6483:6513   */\n              gt\n                /* \"#utility.yul\":6480:6536   */\n              iszero\n              tag_245\n              jumpi\n                /* \"#utility.yul\":6516:6534   */\n              tag_246\n              tag_145\n              jump\t// in\n            tag_246:\n                /* \"#utility.yul\":6480:6536   */\n            tag_245:\n                /* \"#utility.yul\":6554:6583   */\n              tag_247\n                /* \"#utility.yul\":6576:6582   */\n              dup3\n                /* \"#utility.yul\":6554:6583   */\n              tag_141\n              jump\t// in\n            tag_247:\n                /* \"#utility.yul\":6546:6583   */\n              swap1\n              pop\n                /* \"#utility.yul\":6638:6642   */\n              0x20\n                /* \"#utility.yul\":6632:6636   */\n              dup2\n                /* \"#utility.yul\":6628:6643   */\n              add\n                /* \"#utility.yul\":6620:6643   */\n              swap1\n              pop\n                /* \"#utility.yul\":6342:6650   */\n              swap2\n              swap1\n              pop\n              jump\t// out\n                /* \"#utility.yul\":6656:6810   */\n            tag_149:\n                /* \"#utility.yul\":6740:6746   */\n              dup3\n                /* \"#utility.yul\":6735:6738   */\n              dup2\n                /* \"#utility.yul\":6730:6733   */\n              dup4\n                /* \"#utility.yul\":6717:6747   */\n              calldatacopy\n                /* \"#utility.yul\":6802:6803   */\n              0x00\n                /* \"#utility.yul\":6793:6799   */\n              dup4\n                /* \"#utility.yul\":6788:6791   */\n              dup4\n                /* \"#utility.yul\":6784:6800   */\n              add\n                /* \"#utility.yul\":6777:6804   */\n              mstore\n                /* \"#utility.yul\":6656:6810   */\n              pop\n              pop\n              pop\n              jump\t// out\n                /* \"#utility.yul\":6816:7228   */\n            tag_150:\n                /* \"#utility.yul\":6894:6899   */\n              0x00\n                /* \"#utility.yul\":6919:6985   */\n              tag_250\n                /* \"#utility.yul\":6935:6984   */\n              tag_251\n                /* \"#utility.yul\":6977:6983   */\n              dup5\n                /* \"#utility.yul\":6935:6984   */\n              tag_148\n              jump\t// in\n            tag_251:\n                /* \"#utility.yul\":6919:6985   */\n              tag_147\n              jump\t// in\n            tag_250:\n                /* \"#utility.yul\":6910:6985   */\n              swap1\n              pop\n                /* \"#utility.yul\":7008:7014   */\n              dup3\n                /* \"#utility.yul\":7001:7006   */\n              dup2\n                /* \"#utility.yul\":6994:7015   */\n              mstore\n                /* \"#utility.yul\":7046:7050   */\n              0x20\n                /* \"#utility.yul\":7039:7044   */\n              dup2\n                /* \"#utility.yul\":7035:7051   */\n              add\n                /* \"#utility.yul\":7084:7087   */\n              dup5\n                /* \"#utility.yul\":7075:7081   */\n              dup5\n                /* \"#utility.yul\":7070:7073   */\n              dup5\n                /* \"#utility.yul\":7066:7082   */\n              add\n                /* \"#utility.yul\":7063:7088   */\n              gt\n                /* \"#utility.yul\":7060:7172   */\n              iszero\n              tag_252\n              jumpi\n                /* \"#utility.yul\":7091:7170   */\n              tag_253\n              tag_144\n              jump\t// in\n            tag_253:\n                /* \"#utility.yul\":7060:7172   */\n            tag_252:\n                /* \"#utility.yul\":7181:7222   */\n              tag_254\n                /* \"#utility.yul\":7215:7221   */\n              dup5\n                /* \"#utility.yul\":7210:7213   */\n              dup3\n                /* \"#utility.yul\":7205:7208   */\n              dup6\n                /* \"#utility.yul\":7181:7222   */\n              tag_149\n              jump\t// in\n            tag_254:\n                /* \"#utility.yul\":6900:7228   */\n              pop\n                /* \"#utility.yul\":6816:7228   */\n              swap4\n              swap3\n              pop\n              pop\n              pop\n              jump\t// out\n                /* \"#utility.yul\":7248:7588   */\n            tag_151:\n                /* \"#utility.yul\":7304:7309   */\n              0x00\n                /* \"#utility.yul\":7353:7356   */\n              dup3\n                /* \"#utility.yul\":7346:7350   */\n              0x1f\n                /* \"#utility.yul\":7338:7344   */\n              dup4\n                /* \"#utility.yul\":7334:7351   */\n              add\n                /* \"#utility.yul\":7330:7357   */\n              slt\n                /* \"#utility.yul\":7320:7442   */\n              tag_256\n              jumpi\n                /* \"#utility.yul\":7361:7440   */\n              tag_257\n              tag_143\n              jump\t// in\n            tag_257:\n                /* \"#utility.yul\":7320:7442   */\n            tag_256:\n                /* \"#utility.yul\":7478:7484   */\n              dup2\n                /* \"#utility.yul\":7465:7485   */\n              calldataload\n                /* \"#utility.yul\":7503:7582   */\n              tag_258\n                /* \"#utility.yul\":7578:7581   */\n              dup5\n                /* \"#utility.yul\":7570:7576   */\n              dup3\n                /* \"#utility.yul\":7563:7567   */\n              0x20\n                /* \"#utility.yul\":7555:7561   */\n              dup7\n                /* \"#utility.yul\":7551:7568   */\n              add\n                /* \"#utility.yul\":7503:7582   */\n              tag_150\n              jump\t// in\n            tag_258:\n                /* \"#utility.yul\":7494:7582   */\n              swap2\n              pop\n                /* \"#utility.yul\":7310:7588   */\n              pop\n                /* \"#utility.yul\":7248:7588   */\n              swap3\n              swap2\n              pop\n              pop\n              jump\t// out\n                /* \"#utility.yul\":7594:8393   */\n            tag_54:\n                /* \"#utility.yul\":7681:7687   */\n              0x00\n                /* \"#utility.yul\":7689:7695   */\n              dup1\n                /* \"#utility.yul\":7697:7703   */\n              0x00\n                /* \"#utility.yul\":7746:7748   */\n              0x60\n                /* \"#utility.yul\":7734:7743   */\n              dup5\n                /* \"#utility.yul\":7725:7732   */\n              dup7\n                /* \"#utility.yul\":7721:7744   */\n              sub\n                /* \"#utility.yul\":7717:7749   */\n              slt\n                /* \"#utility.yul\":7714:7833   */\n              iszero\n              tag_260\n              jumpi\n                /* \"#utility.yul\":7752:7831   */\n              tag_261\n              tag_125\n              jump\t// in\n            tag_261:\n                /* \"#utility.yul\":7714:7833   */\n            tag_260:\n                /* \"#utility.yul\":7900:7901   */\n              0x00\n                /* \"#utility.yul\":7889:7898   */\n              dup5\n                /* \"#utility.yul\":7885:7902   */\n              add\n                /* \"#utility.yul\":7872:7903   */\n              calldataload\n                /* \"#utility.yul\":7930:7948   */\n              0xffffffffffffffff\n                /* \"#utility.yul\":7922:7928   */\n              dup2\n                /* \"#utility.yul\":7919:7949   */\n              gt\n                /* \"#utility.yul\":7916:8033   */\n              iszero\n              tag_262\n              jumpi\n                /* \"#utility.yul\":7952:8031   */\n              tag_263\n              tag_126\n              jump\t// in\n            tag_263:\n                /* \"#utility.yul\":7916:8033   */\n            tag_262:\n                /* \"#utility.yul\":8057:8120   */\n              tag_264\n                /* \"#utility.yul\":8112:8119   */\n              dup7\n                /* \"#utility.yul\":8103:8109   */\n              dup3\n                /* \"#utility.yul\":8092:8101   */\n              dup8\n                /* \"#utility.yul\":8088:8110   */\n              add\n                /* \"#utility.yul\":8057:8120   */\n              tag_151\n              jump\t// in\n            tag_264:\n                /* \"#utility.yul\":8047:8120   */\n              swap4\n              pop\n                /* \"#utility.yul\":7843:8130   */\n              pop\n                /* \"#utility.yul\":8169:8171   */\n              0x20\n                /* \"#utility.yul\":8195:8248   */\n              tag_265\n                /* \"#utility.yul\":8240:8247   */\n              dup7\n                /* \"#utility.yul\":8231:8237   */\n              dup3\n                /* \"#utility.yul\":8220:8229   */\n              dup8\n                /* \"#utility.yul\":8216:8238   */\n              add\n                /* \"#utility.yul\":8195:8248   */\n              tag_129\n              jump\t// in\n            tag_265:\n                /* \"#utility.yul\":8185:8248   */\n              swap3\n              pop\n                /* \"#utility.yul\":8140:8258   */\n              pop\n                /* \"#utility.yul\":8297:8299   */\n              0x40\n                /* \"#utility.yul\":8323:8376   */\n              tag_266\n                /* \"#utility.yul\":8368:8375   */\n              dup7\n                /* \"#utility.yul\":8359:8365   */\n              dup3\n                /* \"#utility.yul\":8348:8357   */\n              dup8\n                /* \"#utility.yul\":8344:8366   */\n              add\n                /* \"#utility.yul\":8323:8376   */\n              tag_133\n              jump\t// in\n            tag_266:\n                /* \"#utility.yul\":8313:8376   */\n              swap2\n              pop\n                /* \"#utility.yul\":8268:8386   */\n              pop\n                /* \"#utility.yul\":7594:8393   */\n              swap3\n              pop\n              swap3\n              pop\n              swap3\n              jump\t// out\n                /* \"#utility.yul\":8399:8579   */\n            tag_152:\n                /* \"#utility.yul\":8447:8524   */\n              0x4e487b7100000000000000000000000000000000000000000000000000000000\n                /* \"#utility.yul\":8444:8445   */\n              0x00\n                /* \"#utility.yul\":8437:8525   */\n              mstore\n                /* \"#utility.yul\":8544:8548   */\n              0x12\n                /* \"#utility.yul\":8541:8542   */\n              0x04\n                /* \"#utility.yul\":8534:8549   */\n              mstore\n                /* \"#utility.yul\":8568:8572   */\n              0x24\n                /* \"#utility.yul\":8565:8566   */\n              0x00\n                /* \"#utility.yul\":8558:8573   */\n              revert\n                /* \"#utility.yul\":8585:8765   */\n            tag_153:\n                /* \"#utility.yul\":8633:8710   */\n              0x4e487b7100000000000000000000000000000000000000000000000000000000\n                /* \"#utility.yul\":8630:8631   */\n              0x00\n                /* \"#utility.yul\":8623:8711   */\n              mstore\n                /* \"#utility.yul\":8730:8734   */\n              0x11\n                /* \"#utility.yul\":8727:8728   */\n              0x04\n                /* \"#utility.yul\":8720:8735   */\n              mstore\n                /* \"#utility.yul\":8754:8758   */\n              0x24\n                /* \"#utility.yul\":8751:8752   */\n              0x00\n                /* \"#utility.yul\":8744:8759   */\n              revert\n                /* \"#utility.yul\":8771:8956   */\n            tag_70:\n                /* \"#utility.yul\":8811:8812   */\n              0x00\n                /* \"#utility.yul\":8828:8848   */\n              tag_270\n                /* \"#utility.yul\":8846:8847   */\n              dup3\n                /* \"#utility.yul\":8828:8848   */\n              tag_127\n              jump\t// in\n            tag_270:\n                /* \"#utility.yul\":8823:8848   */\n              swap2\n              pop\n                /* \"#utility.yul\":8862:8882   */\n              tag_271\n                /* \"#utility.yul\":8880:8881   */\n              dup4\n                /* \"#utility.yul\":8862:8882   */\n              tag_127\n              jump\t// in\n            tag_271:\n                /* \"#utility.yul\":8857:8882   */\n              swap3\n              pop\n                /* \"#utility.yul\":8901:8902   */\n              dup3\n                /* \"#utility.yul\":8891:8926   */\n              tag_272\n              jumpi\n                /* \"#utility.yul\":8906:8924   */\n              tag_273\n              tag_152\n              jump\t// in\n            tag_273:\n                /* \"#utility.yul\":8891:8926   */\n            tag_272:\n                /* \"#utility.yul\":8948:8949   */\n              dup3\n                /* \"#utility.yul\":8945:8946   */\n              dup3\n                /* \"#utility.yul\":8941:8950   */\n              div\n                /* \"#utility.yul\":8936:8950   */\n              swap1\n              pop\n                /* \"#utility.yul\":8771:8956   */\n              swap3\n              swap2\n              pop\n              pop\n              jump\t// out\n                /* \"#utility.yul\":8962:9142   */\n            tag_73:\n                /* \"#utility.yul\":9010:9087   */\n              0x4e487b7100000000000000000000000000000000000000000000000000000000\n                /* \"#utility.yul\":9007:9008   */\n              0x00\n                /* \"#utility.yul\":9000:9088   */\n              mstore\n                /* \"#utility.yul\":9107:9111   */\n              0x32\n                /* \"#utility.yul\":9104:9105   */\n              0x04\n                /* \"#utility.yul\":9097:9112   */\n              mstore\n                /* \"#utility.yul\":9131:9135   */\n              0x24\n                /* \"#utility.yul\":9128:9129   */\n              0x00\n                /* \"#utility.yul\":9121:9136   */\n              revert\n                /* \"#utility.yul\":9148:9328   */\n            tag_154:\n                /* \"#utility.yul\":9196:9273   */\n              0x4e487b7100000000000000000000000000000000000000000000000000000000\n                /* \"#utility.yul\":9193:9194   */\n              0x00\n                /* \"#utility.yul\":9186:9274   */\n              mstore\n                /* \"#utility.yul\":9293:9297   */\n              0x22\n                /* \"#utility.yul\":9290:9291   */\n              0x04\n                /* \"#utility.yul\":9283:9298   */\n              mstore\n                /* \"#utility.yul\":9317:9321   */\n              0x24\n                /* \"#utility.yul\":9314:9315   */\n              0x00\n                /* \"#utility.yul\":9307:9322   */\n              revert\n                /* \"#utility.yul\":9334:9654   */\n            tag_96:\n                /* \"#utility.yul\":9378:9384   */\n              0x00\n                /* \"#utility.yul\":9415:9416   */\n              0x02\n                /* \"#utility.yul\":9409:9413   */\n              dup3\n                /* \"#utility.yul\":9405:9417   */\n              div\n                /* \"#utility.yul\":9395:9417   */\n              swap1\n              pop\n                /* \"#utility.yul\":9462:9463   */\n              0x01\n                /* \"#utility.yul\":9456:9460   */\n              dup3\n                /* \"#utility.yul\":9452:9464   */\n              and\n                /* \"#utility.yul\":9483:9501   */\n              dup1\n                /* \"#utility.yul\":9473:9554   */\n              tag_277\n              jumpi\n                /* \"#utility.yul\":9539:9543   */\n              0x7f\n                /* \"#utility.yul\":9531:9537   */\n              dup3\n                /* \"#utility.yul\":9527:9544   */\n              and\n                /* \"#utility.yul\":9517:9544   */\n              swap2\n              pop\n                /* \"#utility.yul\":9473:9554   */\n            tag_277:\n                /* \"#utility.yul\":9601:9603   */\n              0x20\n                /* \"#utility.yul\":9593:9599   */\n              dup3\n                /* \"#utility.yul\":9590:9604   */\n              lt\n                /* \"#utility.yul\":9570:9588   */\n              dup2\n                /* \"#utility.yul\":9567:9605   */\n              sub\n                /* \"#utility.yul\":9564:9648   */\n              tag_278\n              jumpi\n                /* \"#utility.yul\":9620:9638   */\n              tag_279\n              tag_154\n              jump\t// in\n            tag_279:\n                /* \"#utility.yul\":9564:9648   */\n            tag_278:\n                /* \"#utility.yul\":9385:9654   */\n              pop\n                /* \"#utility.yul\":9334:9654   */\n              swap2\n              swap1\n              pop\n              jump\t// out\n                /* \"#utility.yul\":9660:9801   */\n            tag_155:\n                /* \"#utility.yul\":9709:9713   */\n              0x00\n                /* \"#utility.yul\":9732:9735   */\n              dup2\n                /* \"#utility.yul\":9724:9735   */\n              swap1\n              pop\n                /* \"#utility.yul\":9755:9758   */\n              dup2\n                /* \"#utility.yul\":9752:9753   */\n              0x00\n                /* \"#utility.yul\":9745:9759   */\n              mstore\n                /* \"#utility.yul\":9789:9793   */\n              0x20\n                /* \"#utility.yul\":9786:9787   */\n              0x00\n                /* \"#utility.yul\":9776:9794   */\n              keccak256\n                /* \"#utility.yul\":9768:9794   */\n              swap1\n              pop\n                /* \"#utility.yul\":9660:9801   */\n              swap2\n              swap1\n              pop\n              jump\t// out\n                /* \"#utility.yul\":9807:9900   */\n            tag_156:\n                /* \"#utility.yul\":9844:9850   */\n              0x00\n                /* \"#utility.yul\":9891:9893   */\n              0x20\n                /* \"#utility.yul\":9886:9888   */\n              0x1f\n                /* \"#utility.yul\":9879:9884   */\n              dup4\n                /* \"#utility.yul\":9875:9889   */\n              add\n                /* \"#utility.yul\":9871:9894   */\n              div\n                /* \"#utility.yul\":9861:9894   */\n              swap1\n              pop\n                /* \"#utility.yul\":9807:9900   */\n              swap2\n              swap1\n              pop\n              jump\t// out\n                /* \"#utility.yul\":9906:10013   */\n            tag_157:\n                /* \"#utility.yul\":9950:9958   */\n              0x00\n                /* \"#utility.yul\":10000:10005   */\n              dup3\n                /* \"#utility.yul\":9994:9998   */\n              dup3\n                /* \"#utility.yul\":9990:10006   */\n              shl\n                /* \"#utility.yul\":9969:10006   */\n              swap1\n              pop\n                /* \"#utility.yul\":9906:10013   */\n              swap3\n              swap2\n              pop\n              pop\n              jump\t// out\n                /* \"#utility.yul\":10019:10412   */\n            tag_158:\n                /* \"#utility.yul\":10088:10094   */\n              0x00\n                /* \"#utility.yul\":10138:10139   */\n              0x08\n                /* \"#utility.yul\":10126:10136   */\n              dup4\n                /* \"#utility.yul\":10122:10140   */\n              mul\n                /* \"#utility.yul\":10161:10258   */\n              tag_284\n                /* \"#utility.yul\":10191:10257   */\n              0xffffffffffffffffffffffffffffffffffffffffffffffffffffffffffffffff\n                /* \"#utility.yul\":10180:10189   */\n              dup3\n                /* \"#utility.yul\":10161:10258   */\n              tag_157\n              jump\t// in\n            tag_284:\n                /* \"#utility.yul\":10279:10318   */\n              tag_285\n                /* \"#utility.yul\":10309:10317   */\n              dup7\n                /* \"#utility.yul\":10298:10307   */\n              dup4\n                /* \"#utility.yul\":10279:10318   */\n              tag_157\n              jump\t// in\n            tag_285:\n                /* \"#utility.yul\":10267:10318   */\n              swap6\n              pop\n                /* \"#utility.yul\":10351:10355   */\n              dup1\n                /* \"#utility.yul\":10347:10356   */\n              not\n                /* \"#utility.yul\":10340:10345   */\n              dup5\n                /* \"#utility.yul\":10336:10357   */\n              and\n                /* \"#utility.yul\":10327:10357   */\n              swap4\n              pop\n                /* \"#utility.yul\":10400:10404   */\n              dup1\n                /* \"#utility.yul\":10390:10398   */\n              dup7\n                /* \"#utility.yul\":10386:10405   */\n              and\n                /* \"#utility.yul\":10379:10384   */\n              dup5\n                /* \"#utility.yul\":10376:10406   */\n              or\n                /* \"#utility.yul\":10366:10406   */\n              swap3\n              pop\n                /* \"#utility.yul\":10095:10412   */\n              pop\n              pop\n                /* \"#utility.yul\":10019:10412   */\n              swap4\n              swap3\n              pop\n              pop\n              pop\n              jump\t// out\n                /* \"#utility.yul\":10418:10478   */\n            tag_159:\n                /* \"#utility.yul\":10446:10449   */\n              0x00\n                /* \"#utility.yul\":10467:10472   */\n              dup2\n                /* \"#utility.yul\":10460:10472   */\n              swap1\n              pop\n                /* \"#utility.yul\":10418:10478   */\n              swap2\n              swap1\n              pop\n              jump\t// out\n                /* \"#utility.yul\":10484:10626   */\n            tag_160:\n                /* \"#utility.yul\":10534:10543   */\n              0x00\n                /* \"#utility.yul\":10567:10620   */\n              tag_288\n                /* \"#utility.yul\":10585:10619   */\n              tag_289\n                /* \"#utility.yul\":10594:10618   */\n              tag_290\n                /* \"#utility.yul\":10612:10617   */\n              dup5\n                /* \"#utility.yul\":10594:10618   */\n              tag_127\n              jump\t// in\n            tag_290:\n                /* \"#utility.yul\":10585:10619   */\n              tag_159\n              jump\t// in\n            tag_289:\n                /* \"#utility.yul\":10567:10620   */\n              tag_127\n              jump\t// in\n            tag_288:\n                /* \"#utility.yul\":10554:10620   */\n              swap1\n              pop\n                /* \"#utility.yul\":10484:10626   */\n              swap2\n              swap1\n              pop\n              jump\t// out\n                /* \"#utility.yul\":10632:10707   */\n            tag_161:\n                /* \"#utility.yul\":10675:10678   */\n              0x00\n                /* \"#utility.yul\":10696:10701   */\n              dup2\n                /* \"#utility.yul\":10689:10701   */\n              swap1\n              pop\n                /* \"#utility.yul\":10632:10707   */\n              swap2\n              swap1\n              pop\n              jump\t// out\n                /* \"#utility.yul\":10713:10982   */\n            tag_162:\n                /* \"#utility.yul\":10823:10862   */\n              tag_293\n                /* \"#utility.yul\":10854:10861   */\n              dup4\n                /* \"#utility.yul\":10823:10862   */\n              tag_160\n              jump\t// in\n            tag_293:\n                /* \"#utility.yul\":10884:10975   */\n              tag_294\n                /* \"#utility.yul\":10933:10974   */\n              tag_295\n                /* \"#utility.yul\":10957:10973   */\n              dup3\n                /* \"#utility.yul\":10933:10974   */\n              tag_161\n              jump\t// in\n            tag_295:\n                /* \"#utility.yul\":10925:10931   */\n              dup5\n                /* \"#utility.yul\":10918:10922   */\n              dup5\n                /* \"#utility.yul\":10912:10923   */\n              sload\n                /* \"#utility.yul\":10884:10975   */\n              tag_158\n              jump\t// in\n            tag_294:\n                /* \"#utility.yul\":10878:10882   */\n              dup3\n                /* \"#utility.yul\":10871:10976   */\n              sstore\n                /* \"#utility.yul\":10789:10982   */\n              pop\n                /* \"#utility.yul\":10713:10982   */\n              pop\n              pop\n              pop\n              jump\t// out\n                /* \"#utility.yul\":10988:11061   */\n            tag_163:\n                /* \"#utility.yul\":11033:11036   */\n              0x00\n                /* \"#utility.yul\":10988:11061   */\n              swap1\n              jump\t// out\n                /* \"#utility.yul\":11067:11256   */\n            tag_164:\n                /* \"#utility.yul\":11144:11176   */\n              tag_298\n              tag_163\n              jump\t// in\n            tag_298:\n                /* \"#utility.yul\":11185:11250   */\n              tag_299\n                /* \"#utility.yul\":11243:11249   */\n              dup2\n                /* \"#utility.yul\":11235:11241   */\n              dup5\n                /* \"#utility.yul\":11229:11233   */\n              dup5\n                /* \"#utility.yul\":11185:11250   */\n              tag_162\n              jump\t// in\n            tag_299:\n                /* \"#utility.yul\":11120:11256   */\n              pop\n                /* \"#utility.yul\":11067:11256   */\n              pop\n              pop\n              jump\t// out\n                /* \"#utility.yul\":11262:11448   */\n            tag_165:\n                /* \"#utility.yul\":11322:11442   */\n            tag_301:\n                /* \"#utility.yul\":11339:11342   */\n              dup2\n                /* \"#utility.yul\":11332:11337   */\n              dup2\n                /* \"#utility.yul\":11329:11343   */\n              lt\n                /* \"#utility.yul\":11322:11442   */\n              iszero\n              tag_303\n              jumpi\n                /* \"#utility.yul\":11393:11432   */\n              tag_304\n                /* \"#utility.yul\":11430:11431   */\n              0x00\n                /* \"#utility.yul\":11423:11428   */\n              dup3\n                /* \"#utility.yul\":11393:11432   */\n              tag_164\n              jump\t// in\n            tag_304:\n                /* \"#utility.yul\":11366:11367   */\n              0x01\n                /* \"#utility.yul\":11359:11364   */\n              dup2\n                /* \"#utility.yul\":11355:11368   */\n              add\n                /* \"#utility.yul\":11346:11368   */\n              swap1\n              pop\n                /* \"#utility.yul\":11322:11442   */\n              jump(tag_301)\n            tag_303:\n                /* \"#utility.yul\":11262:11448   */\n              pop\n              pop\n              jump\t// out\n                /* \"#utility.yul\":11454:11997   */\n            tag_166:\n                /* \"#utility.yul\":11555:11557   */\n              0x1f\n                /* \"#utility.yul\":11550:11553   */\n              dup3\n                /* \"#utility.yul\":11547:11558   */\n              gt\n                /* \"#utility.yul\":11544:11990   */\n              iszero\n              tag_306\n              jumpi\n                /* \"#utility.yul\":11589:11627   */\n              tag_307\n                /* \"#utility.yul\":11621:11626   */\n              dup2\n                /* \"#utility.yul\":11589:11627   */\n              tag_155\n              jump\t// in\n            tag_307:\n                /* \"#utility.yul\":11673:11702   */\n              tag_308\n                /* \"#utility.yul\":11691:11701   */\n              dup5\n                /* \"#utility.yul\":11673:11702   */\n              tag_156\n              jump\t// in\n            tag_308:\n                /* \"#utility.yul\":11663:11671   */\n              dup2\n                /* \"#utility.yul\":11659:11703   */\n              add\n                /* \"#utility.yul\":11856:11858   */\n              0x20\n                /* \"#utility.yul\":11844:11854   */\n              dup6\n                /* \"#utility.yul\":11841:11859   */\n              lt\n                /* \"#utility.yul\":11838:11887   */\n              iszero\n              tag_309\n              jumpi\n                /* \"#utility.yul\":11877:11885   */\n              dup2\n                /* \"#utility.yul\":11862:11885   */\n              swap1\n              pop\n                /* \"#utility.yul\":11838:11887   */\n            tag_309:\n                /* \"#utility.yul\":11900:11980   */\n              tag_310\n                /* \"#utility.yul\":11956:11978   */\n              tag_311\n                /* \"#utility.yul\":11974:11977   */\n              dup6\n                /* \"#utility.yul\":11956:11978   */\n              tag_156\n              jump\t// in\n            tag_311:\n                /* \"#utility.yul\":11946:11954   */\n              dup4\n                /* \"#utility.yul\":11942:11979   */\n              add\n                /* \"#utility.yul\":11929:11940   */\n              dup3\n                /* \"#utility.yul\":11900:11980   */\n              tag_165\n              jump\t// in\n            tag_310:\n                /* \"#utility.yul\":11559:11990   */\n              pop\n              pop\n                /* \"#utility.yul\":11544:11990   */\n            tag_306:\n                /* \"#utility.yul\":11454:11997   */\n              pop\n              pop\n              pop\n              jump\t// out\n                /* \"#utility.yul\":12003:12120   */\n            tag_167:\n                /* \"#utility.yul\":12057:12065   */\n              0x00\n                /* \"#utility.yul\":12107:12112   */\n              dup3\n                /* \"#utility.yul\":12101:12105   */\n              dup3\n                /* \"#utility.yul\":12097:12113   */\n              shr\n                /* \"#utility.yul\":12076:12113   */\n              swap1\n              pop\n                /* \"#utility.yul\":12003:12120   */\n              swap3\n              swap2\n              pop\n              pop\n              jump\t// out\n                /* \"#utility.yul\":12126:12295   */\n            tag_168:\n                /* \"#utility.yul\":12170:12176   */\n              0x00\n                /* \"#utility.yul\":12203:12254   */\n              tag_314\n                /* \"#utility.yul\":12251:12252   */\n              0x00\n                /* \"#utility.yul\":12247:12253   */\n              not\n                /* \"#utility.yul\":12239:12244   */\n              dup5\n                /* \"#utility.yul\":12236:12237   */\n              0x08\n                /* \"#utility.yul\":12232:12245   */\n              mul\n                /* \"#utility.yul\":12203:12254   */\n              tag_167\n              jump\t// in\n            tag_314:\n                /* \"#utility.yul\":12199:12255   */\n              not\n                /* \"#utility.yul\":12284:12288   */\n              dup1\n                /* \"#utility.yul\":12278:12282   */\n              dup4\n                /* \"#utility.yul\":12274:12289   */\n              and\n                /* \"#utility.yul\":12264:12289   */\n              swap2\n              pop\n                /* \"#utility.yul\":12177:12295   */\n              pop\n                /* \"#utility.yul\":12126:12295   */\n              swap3\n              swap2\n              pop\n              pop\n              jump\t// out\n                /* \"#utility.yul\":12300:12595   */\n            tag_169:\n                /* \"#utility.yul\":12376:12380   */\n              0x00\n                /* \"#utility.yul\":12522:12551   */\n              tag_316\n                /* \"#utility.yul\":12547:12550   */\n              dup4\n                /* \"#utility.yul\":12541:12545   */\n              dup4\n                /* \"#utility.yul\":12522:12551   */\n              tag_168\n              jump\t// in\n            tag_316:\n                /* \"#utility.yul\":12514:12551   */\n              swap2\n              pop\n                /* \"#utility.yul\":12584:12587   */\n              dup3\n                /* \"#utility.yul\":12581:12582   */\n              0x02\n                /* \"#utility.yul\":12577:12588   */\n              mul\n                /* \"#utility.yul\":12571:12575   */\n              dup3\n                /* \"#utility.yul\":12568:12589   */\n              or\n                /* \"#utility.yul\":12560:12589   */\n              swap1\n              pop\n                /* \"#utility.yul\":12300:12595   */\n              swap3\n              swap2\n              pop\n              pop\n              jump\t// out\n                /* \"#utility.yul\":12600:13995   */\n            tag_106:\n                /* \"#utility.yul\":12717:12754   */\n              tag_318\n                /* \"#utility.yul\":12750:12753   */\n              dup3\n                /* \"#utility.yul\":12717:12754   */\n              tag_138\n              jump\t// in\n            tag_318:\n                /* \"#utility.yul\":12819:12837   */\n              0xffffffffffffffff\n                /* \"#utility.yul\":12811:12817   */\n              dup2\n                /* \"#utility.yul\":12808:12838   */\n              gt\n                /* \"#utility.yul\":12805:12861   */\n              iszero\n              tag_319\n              jumpi\n                /* \"#utility.yul\":12841:12859   */\n              tag_320\n              tag_145\n              jump\t// in\n            tag_320:\n                /* \"#utility.yul\":12805:12861   */\n            tag_319:\n                /* \"#utility.yul\":12885:12923   */\n              tag_321\n                /* \"#utility.yul\":12917:12921   */\n              dup3\n                /* \"#utility.yul\":12911:12922   */\n              sload\n                /* \"#utility.yul\":12885:12923   */\n              tag_96\n              jump\t// in\n            tag_321:\n                /* \"#utility.yul\":12970:13037   */\n              tag_322\n                /* \"#utility.yul\":13030:13036   */\n              dup3\n                /* \"#utility.yul\":13022:13028   */\n              dup3\n                /* \"#utility.yul\":13016:13020   */\n              dup6\n                /* \"#utility.yul\":12970:13037   */\n              tag_166\n              jump\t// in\n            tag_322:\n                /* \"#utility.yul\":13064:13065   */\n              0x00\n                /* \"#utility.yul\":13088:13092   */\n              0x20\n                /* \"#utility.yul\":13075:13092   */\n              swap1\n              pop\n                /* \"#utility.yul\":13120:13122   */\n              0x1f\n                /* \"#utility.yul\":13112:13118   */\n              dup4\n                /* \"#utility.yul\":13109:13123   */\n              gt\n                /* \"#utility.yul\":13137:13138   */\n              0x01\n                /* \"#utility.yul\":13132:13750   */\n              dup2\n              eq\n              tag_324\n              jumpi\n                /* \"#utility.yul\":13794:13795   */\n              0x00\n                /* \"#utility.yul\":13811:13817   */\n              dup5\n                /* \"#utility.yul\":13808:13885   */\n              iszero\n              tag_325\n              jumpi\n                /* \"#utility.yul\":13860:13869   */\n              dup3\n                /* \"#utility.yul\":13855:13858   */\n              dup8\n                /* \"#utility.yul\":13851:13870   */\n              add\n                /* \"#utility.yul\":13845:13871   */\n              mload\n                /* \"#utility.yul\":13836:13871   */\n              swap1\n              pop\n                /* \"#utility.yul\":13808:13885   */\n            tag_325:\n                /* \"#utility.yul\":13911:13978   */\n              tag_326\n                /* \"#utility.yul\":13971:13977   */\n              dup6\n                /* \"#utility.yul\":13964:13969   */\n              dup3\n                /* \"#utility.yul\":13911:13978   */\n              tag_169\n              jump\t// in\n            tag_326:\n                /* \"#utility.yul\":13905:13909   */\n              dup7\n                /* \"#utility.yul\":13898:13979   */\n              sstore\n                /* \"#utility.yul\":13767:13989   */\n              pop\n                /* \"#utility.yul\":13102:13989   */\n              jump(tag_323)\n                /* \"#utility.yul\":13132:13750   */\n            tag_324:\n                /* \"#utility.yul\":13184:13188   */\n              0x1f\n                /* \"#utility.yul\":13180:13189   */\n              not\n                /* \"#utility.yul\":13172:13178   */\n              dup5\n                /* \"#utility.yul\":13168:13190   */\n              and\n                /* \"#utility.yul\":13218:13255   */\n              tag_327\n                /* \"#utility.yul\":13250:13254   */\n              dup7\n                /* \"#utility.yul\":13218:13255   */\n              tag_155\n              jump\t// in\n            tag_327:\n                /* \"#utility.yul\":13277:13278   */\n              0x00\n                /* \"#utility.yul\":13291:13499   */\n            tag_328:\n                /* \"#utility.yul\":13305:13312   */\n              dup3\n                /* \"#utility.yul\":13302:13303   */\n              dup2\n                /* \"#utility.yul\":13299:13313   */\n              lt\n                /* \"#utility.yul\":13291:13499   */\n              iszero\n              tag_330\n              jumpi\n                /* \"#utility.yul\":13384:13393   */\n              dup5\n                /* \"#utility.yul\":13379:13382   */\n              dup10\n                /* \"#utility.yul\":13375:13394   */\n              add\n                /* \"#utility.yul\":13369:13395   */\n              mload\n                /* \"#utility.yul\":13361:13367   */\n              dup3\n                /* \"#utility.yul\":13354:13396   */\n              sstore\n                /* \"#utility.yul\":13435:13436   */\n              0x01\n                /* \"#utility.yul\":13427:13433   */\n              dup3\n                /* \"#utility.yul\":13423:13437   */\n              add\n                /* \"#utility.yul\":13413:13437   */\n              swap2\n              pop\n                /* \"#utility.yul\":13482:13484   */\n              0x20\n                /* \"#utility.yul\":13471:13480   */\n              dup6\n                /* \"#utility.yul\":13467:13485   */\n              add\n                /* \"#utility.yul\":13454:13485   */\n              swap5\n              pop\n                /* \"#utility.yul\":13328:13332   */\n              0x20\n                /* \"#utility.yul\":13325:13326   */\n              dup2\n                /* \"#utility.yul\":13321:13333   */\n              add\n                /* \"#utility.yul\":13316:13333   */\n              swap1\n              pop\n                /* \"#utility.yul\":13291:13499   */\n              jump(tag_328)\n            tag_330:\n                /* \"#utility.yul\":13527:13533   */\n              dup7\n                /* \"#utility.yul\":13518:13525   */\n              dup4\n                /* \"#utility.yul\":13515:13534   */\n              lt\n                /* \"#utility.yul\":13512:13691   */\n              iszero\n              tag_331\n              jumpi\n                /* \"#utility.yul\":13585:13594   */\n              dup5\n                /* \"#utility.yul\":13580:13583   */\n              dup10\n                /* \"#utility.yul\":13576:13595   */\n              add\n                /* \"#utility.yul\":13570:13596   */\n              mload\n                /* \"#utility.yul\":13628:13676   */\n              tag_332\n                /* \"#utility.yul\":13670:13674   */\n              0x1f\n                /* \"#utility.yul\":13662:13668   */\n              dup10\n                /* \"#utility.yul\":13658:13675   */\n              and\n                /* \"#utility.yul\":13647:13656   */\n              dup3\n                /* \"#utility.yul\":13628:13676   */\n              tag_168\n              jump\t// in\n            tag_332:\n                /* \"#utility.yul\":13620:13626   */\n              dup4\n                /* \"#utility.yul\":13613:13677   */\n              sstore\n                /* \"#utility.yul\":13535:13691   */\n              pop\n                /* \"#utility.yul\":13512:13691   */\n            tag_331:\n                /* \"#utility.yul\":13737:13738   */\n              0x01\n                /* \"#utility.yul\":13733:13734   */\n              0x02\n                /* \"#utility.yul\":13725:13731   */\n              dup9\n                /* \"#utility.yul\":13721:13735   */\n              mul\n                /* \"#utility.yul\":13717:13739   */\n              add\n                /* \"#utility.yul\":13711:13715   */\n              dup9\n                /* \"#utility.yul\":13704:13740   */\n              sstore\n                /* \"#utility.yul\":13139:13750   */\n              pop\n              pop\n              pop\n                /* \"#utility.yul\":13102:13989   */\n            tag_323:\n              pop\n                /* \"#utility.yul\":12692:13995   */\n              pop\n              pop\n              pop\n                /* \"#utility.yul\":12600:13995   */\n              pop\n              pop\n              jump\t// out\n                /* \"#utility.yul\":14001:14234   */\n            tag_110:\n                /* \"#utility.yul\":14040:14043   */\n              0x00\n                /* \"#utility.yul\":14063:14087   */\n              tag_334\n                /* \"#utility.yul\":14081:14086   */\n              dup3\n                /* \"#utility.yul\":14063:14087   */\n              tag_127\n              jump\t// in\n            tag_334:\n                /* \"#utility.yul\":14054:14087   */\n              swap2\n              pop\n                /* \"#utility.yul\":14109:14175   */\n              0xffffffffffffffffffffffffffffffffffffffffffffffffffffffffffffffff\n                /* \"#utility.yul\":14102:14107   */\n              dup3\n                /* \"#utility.yul\":14099:14176   */\n              sub\n                /* \"#utility.yul\":14096:14199   */\n              tag_335\n              jumpi\n                /* \"#utility.yul\":14179:14197   */\n              tag_336\n              tag_153\n              jump\t// in\n            tag_336:\n                /* \"#utility.yul\":14096:14199   */\n            tag_335:\n                /* \"#utility.yul\":14226:14227   */\n              0x01\n                /* \"#utility.yul\":14219:14224   */\n              dup3\n                /* \"#utility.yul\":14215:14228   */\n              add\n                /* \"#utility.yul\":14208:14228   */\n              swap1\n              pop\n                /* \"#utility.yul\":14001:14234   */\n              swap2\n              swap1\n              pop\n              jump\t// out\n\n            auxdata: 0xa26469706673582212201a8ccabaea2b2d546888c32c9175087511d96ccada90ed32ce4fc63967f8bdc464736f6c634300080f0033\n        }\n    }\n\n    auxdata: 0xa2646970667358221220b312b02715cbc23cb4a2d6bb6e0794f4020aaf4eae84ad7daffb423900900a6d64736f6c634300080f0033\n}\n","bytecode":{"linkReferences":{},"object":"608060405234801561001057600080fd5b50611764806100206000396000f3fe608060405234801561001057600080fd5b50600436106100415760003560e01c80634acb9d4f146100465780639ad1ee1014610064578063a3303a7514610094575b600080fd5b61004e6100b0565b60405161005b919061031b565b60405180910390f35b61007e60048036038101906100799190610378565b61013e565b60405161008b91906103b4565b60405180910390f35b6100ae60048036038101906100a99190610378565b61017d565b005b6060600080548060200260200160405190810160405280929190818152602001828054801561013457602002820191906000526020600020905b8160009054906101000a900473ffffffffffffffffffffffffffffffffffffffff1673ffffffffffffffffffffffffffffffffffffffff16815260200190600101908083116100ea575b5050505050905090565b6000818154811061014e57600080fd5b906000526020600020016000915054906101000a900473ffffffffffffffffffffffffffffffffffffffff1681565b6000813360405161018d9061021e565b6101989291906103ff565b604051809103906000f0801580156101b4573d6000803e3d6000fd5b5090506000819080600181540180825580915050600190039060005260206000200160009091909190916101000a81548173ffffffffffffffffffffffffffffffffffffffff021916908373ffffffffffffffffffffffffffffffffffffffff1602179055505050565b6113068061042983390190565b600081519050919050565b600082825260208201905092915050565b6000819050602082019050919050565b600073ffffffffffffffffffffffffffffffffffffffff82169050919050565b600061028282610257565b9050919050565b61029281610277565b82525050565b60006102a48383610289565b60208301905092915050565b6000602082019050919050565b60006102c88261022b565b6102d28185610236565b93506102dd83610247565b8060005b8381101561030e5781516102f58882610298565b9750610300836102b0565b9250506001810190506102e1565b5085935050505092915050565b6000602082019050818103600083015261033581846102bd565b905092915050565b600080fd5b6000819050919050565b61035581610342565b811461036057600080fd5b50565b6000813590506103728161034c565b92915050565b60006020828403121561038e5761038d61033d565b5b600061039c84828501610363565b91505092915050565b6103ae81610277565b82525050565b60006020820190506103c960008301846103a5565b92915050565b6103d881610342565b82525050565b60006103e982610257565b9050919050565b6103f9816103de565b82525050565b600060408201905061041460008301856103cf565b61042160208301846103f0565b939250505056fe60806040523480156200001157600080fd5b50604051620013063803806200130683398181016040528101906200003791906200012b565b806000806101000a81548173ffffffffffffffffffffffffffffffffffffffff021916908373ffffffffffffffffffffffffffffffffffffffff16021790555081600181905550505062000172565b600080fd5b6000819050919050565b620000a0816200008b565b8114620000ac57600080fd5b50565b600081519050620000c08162000095565b92915050565b600073ffffffffffffffffffffffffffffffffffffffff82169050919050565b6000620000f382620000c6565b9050919050565b6200010581620000e6565b81146200011157600080fd5b50565b6000815190506200012581620000fa565b92915050565b6000806040838503121562000145576200014462000086565b5b60006200015585828601620000af565b9250506020620001688582860162000114565b9150509250929050565b61118480620001826000396000f3fe60806040526004361061009c5760003560e01c80637569b3d7116100645780637569b3d71461018c57806381d12c58146101b75780638a9cfd55146101f8578063937e09b114610221578063d7bb99ba1461024c578063d7d1bbdb146102565761009c565b806303441006146100a15780630a144391146100ca5780633410452a146101075780634051ddac14610132578063481c6a7514610161575b600080fd5b3480156100ad57600080fd5b506100c860048036038101906100c3919061093e565b61027f565b005b3480156100d657600080fd5b506100f160048036038101906100ec91906109c9565b610445565b6040516100fe9190610a11565b60405180910390f35b34801561011357600080fd5b5061011c610465565b6040516101299190610a3b565b60405180910390f35b34801561013e57600080fd5b50610147610472565b604051610158959493929190610a65565b60405180910390f35b34801561016d57600080fd5b506101766104b9565b6040516101839190610ab8565b60405180910390f35b34801561019857600080fd5b506101a16104dd565b6040516101ae9190610a3b565b60405180910390f35b3480156101c357600080fd5b506101de60048036038101906101d9919061093e565b6104e3565b6040516101ef959493929190610b6c565b60405180910390f35b34801561020457600080fd5b5061021f600480360381019061021a9190610cfb565b6105de565b005b34801561022d57600080fd5b506102366106e5565b6040516102439190610a3b565b60405180910390f35b6102546106eb565b005b34801561026257600080fd5b5061027d6004803603810190610278919061093e565b61076b565b005b60008054906101000a900473ffffffffffffffffffffffffffffffffffffffff1673ffffffffffffffffffffffffffffffffffffffff163373ffffffffffffffffffffffffffffffffffffffff16146102d757600080fd5b60026004546102e69190610dc8565b600382815481106102fa576102f9610df9565b5b9060005260206000209060050201600301541161031657600080fd5b6003818154811061032a57610329610df9565b5b906000526020600020906005020160020160149054906101000a900460ff161561035357600080fd5b6003818154811061036757610366610df9565b5b906000526020600020906005020160020160009054906101000a900473ffffffffffffffffffffffffffffffffffffffff1673ffffffffffffffffffffffffffffffffffffffff166108fc600383815481106103c6576103c5610df9565b5b9060005260206000209060050201600101549081150290604051600060405180830381858888f19350505050158015610403573d6000803e3d6000fd5b5060016003828154811061041a57610419610df9565b5b906000526020600020906005020160020160146101000a81548160ff02191690831515021790555050565b60026020528060005260406000206000915054906101000a900460ff1681565b6000600380549050905090565b60008060008060004760015460038054905060045460008054906101000a900473ffffffffffffffffffffffffffffffffffffffff16945094509450945094509091929394565b60008054906101000a900473ffffffffffffffffffffffffffffffffffffffff1681565b60045481565b600381815481106104f357600080fd5b906000526020600020906005020160009150905080600001805461051690610e57565b80601f016020809104026020016040519081016040528092919081815260200182805461054290610e57565b801561058f5780601f106105645761010080835404028352916020019161058f565b820191906000526020600020905b81548152906001019060200180831161057257829003601f168201915b5050505050908060010154908060020160009054906101000a900473ffffffffffffffffffffffffffffffffffffffff16908060020160149054906101000a900460ff16908060030154905085565b60008054906101000a900473ffffffffffffffffffffffffffffffffffffffff1673ffffffffffffffffffffffffffffffffffffffff163373ffffffffffffffffffffffffffffffffffffffff161461063657600080fd5b6000600360018160018154018082558091505003906000526020600020906005020190508381600001908161066b9190611034565b50828160010181905550818160020160006101000a81548173ffffffffffffffffffffffffffffffffffffffff021916908373ffffffffffffffffffffffffffffffffffffffff16021790555060008160020160146101000a81548160ff0219169083151502179055506000816003018190555050505050565b60015481565b60015434116106f957600080fd5b6001600260003373ffffffffffffffffffffffffffffffffffffffff1673ffffffffffffffffffffffffffffffffffffffff16815260200190815260200160002060006101000a81548160ff0219169083151502179055506004600081548092919061076490611106565b9190505550565b600260003373ffffffffffffffffffffffffffffffffffffffff1673ffffffffffffffffffffffffffffffffffffffff16815260200190815260200160002060009054906101000a900460ff166107c157600080fd5b600381815481106107d5576107d4610df9565b5b906000526020600020906005020160040160003373ffffffffffffffffffffffffffffffffffffffff1673ffffffffffffffffffffffffffffffffffffffff16815260200190815260200160002060009054906101000a900460ff161561083b57600080fd5b60016003828154811061085157610850610df9565b5b906000526020600020906005020160040160003373ffffffffffffffffffffffffffffffffffffffff1673ffffffffffffffffffffffffffffffffffffffff16815260200190815260200160002060006101000a81548160ff021916908315150217905550600381815481106108ca576108c9610df9565b5b906000526020600020906005020160030160008154809291906108ec90611106565b919050555050565b6000604051905090565b600080fd5b600080fd5b6000819050919050565b61091b81610908565b811461092657600080fd5b50565b60008135905061093881610912565b92915050565b600060208284031215610954576109536108fe565b5b600061096284828501610929565b91505092915050565b600073ffffffffffffffffffffffffffffffffffffffff82169050919050565b60006109968261096b565b9050919050565b6109a68161098b565b81146109b157600080fd5b50565b6000813590506109c38161099d565b92915050565b6000602082840312156109df576109de6108fe565b5b60006109ed848285016109b4565b91505092915050565b60008115159050919050565b610a0b816109f6565b82525050565b6000602082019050610a266000830184610a02565b92915050565b610a3581610908565b82525050565b6000602082019050610a506000830184610a2c565b92915050565b610a5f8161098b565b82525050565b600060a082019050610a7a6000830188610a2c565b610a876020830187610a2c565b610a946040830186610a2c565b610aa16060830185610a2c565b610aae6080830184610a56565b9695505050505050565b6000602082019050610acd6000830184610a56565b92915050565b600081519050919050565b600082825260208201905092915050565b60005b83811015610b0d578082015181840152602081019050610af2565b83811115610b1c576000848401525b50505050565b6000601f19601f8301169050919050565b6000610b3e82610ad3565b610b488185610ade565b9350610b58818560208601610aef565b610b6181610b22565b840191505092915050565b600060a0820190508181036000830152610b868188610b33565b9050610b956020830187610a2c565b610ba26040830186610a56565b610baf6060830185610a02565b610bbc6080830184610a2c565b9695505050505050565b600080fd5b600080fd5b7f4e487b7100000000000000000000000000000000000000000000000000000000600052604160045260246000fd5b610c0882610b22565b810181811067ffffffffffffffff82111715610c2757610c26610bd0565b5b80604052505050565b6000610c3a6108f4565b9050610c468282610bff565b919050565b600067ffffffffffffffff821115610c6657610c65610bd0565b5b610c6f82610b22565b9050602081019050919050565b82818337600083830152505050565b6000610c9e610c9984610c4b565b610c30565b905082815260208101848484011115610cba57610cb9610bcb565b5b610cc5848285610c7c565b509392505050565b600082601f830112610ce257610ce1610bc6565b5b8135610cf2848260208601610c8b565b91505092915050565b600080600060608486031215610d1457610d136108fe565b5b600084013567ffffffffffffffff811115610d3257610d31610903565b5b610d3e86828701610ccd565b9350506020610d4f86828701610929565b9250506040610d60868287016109b4565b9150509250925092565b7f4e487b7100000000000000000000000000000000000000000000000000000000600052601260045260246000fd5b7f4e487b7100000000000000000000000000000000000000000000000000000000600052601160045260246000fd5b6000610dd382610908565b9150610dde83610908565b925082610dee57610ded610d6a565b5b828204905092915050565b7f4e487b7100000000000000000000000000000000000000000000000000000000600052603260045260246000fd5b7f4e487b7100000000000000000000000000000000000000000000000000000000600052602260045260246000fd5b60006002820490506001821680610e6f57607f821691505b602082108103610e8257610e81610e28565b5b50919050565b60008190508160005260206000209050919050565b60006020601f8301049050919050565b600082821b905092915050565b600060088302610eea7fffffffffffffffffffffffffffffffffffffffffffffffffffffffffffffffff82610ead565b610ef48683610ead565b95508019841693508086168417925050509392505050565b6000819050919050565b6000610f31610f2c610f2784610908565b610f0c565b610908565b9050919050565b6000819050919050565b610f4b83610f16565b610f5f610f5782610f38565b848454610eba565b825550505050565b600090565b610f74610f67565b610f7f818484610f42565b505050565b5b81811015610fa357610f98600082610f6c565b600181019050610f85565b5050565b601f821115610fe857610fb981610e88565b610fc284610e9d565b81016020851015610fd1578190505b610fe5610fdd85610e9d565b830182610f84565b50505b505050565b600082821c905092915050565b600061100b60001984600802610fed565b1980831691505092915050565b60006110248383610ffa565b9150826002028217905092915050565b61103d82610ad3565b67ffffffffffffffff81111561105657611055610bd0565b5b6110608254610e57565b61106b828285610fa7565b600060209050601f83116001811461109e576000841561108c578287015190505b6110968582611018565b8655506110fe565b601f1984166110ac86610e88565b60005b828110156110d4578489015182556001820191506020850194506020810190506110af565b868310156110f157848901516110ed601f891682610ffa565b8355505b6001600288020188555050505b505050505050565b600061111182610908565b91507fffffffffffffffffffffffffffffffffffffffffffffffffffffffffffffffff820361114357611142610d99565b5b60018201905091905056fea26469706673582212201a8ccabaea2b2d546888c32c9175087511d96ccada90ed32ce4fc63967f8bdc464736f6c634300080f0033a2646970667358221220b312b02715cbc23cb4a2d6bb6e0794f4020aaf4eae84ad7daffb423900900a6d64736f6c634300080f0033","opcodes":"PUSH1 0x80 PUSH1 0x40 MSTORE CALLVALUE DUP1 ISZERO PUSH2 0x10 JUMPI PUSH1 0x0 DUP1 REVERT JUMPDEST POP PUSH2 0x1764 DUP1 PUSH2 0x20 PUSH1 0x0 CODECOPY PUSH1 0x0 RETURN INVALID PUSH1 0x80 PUSH1 0x40 MSTORE CALLVALUE DUP1 ISZERO PUSH2 0x10 JUMPI PUSH1 0x0 DUP1 REVERT JUMPDEST POP PUSH1 0x4 CALLDATASIZE LT PUSH2 0x41 JUMPI PUSH1 0x0 CALLDATALOAD PUSH1 0xE0 SHR DUP1 PUSH4 0x4ACB9D4F EQ PUSH2 0x46 JUMPI DUP1 PUSH4 0x9AD1EE10 EQ PUSH2 0x64 JUMPI DUP1 PUSH4 0xA3303A75 EQ PUSH2 0x94 JUMPI JUMPDEST PUSH1 0x0 DUP1 REVERT JUMPDEST PUSH2 0x4E PUSH2 0xB0 JUMP JUMPDEST PUSH1 0x40 MLOAD PUSH2 0x5B SWAP2 SWAP1 PUSH2 0x31B JUMP JUMPDEST PUSH1 0x40 MLOAD DUP1 SWAP2 SUB SWAP1 RETURN JUMPDEST PUSH2 0x7E PUSH1 0x4 DUP1 CALLDATASIZE SUB DUP2 ADD SWAP1 PUSH2 0x79 SWAP2 SWAP1 PUSH2 0x378 JUMP JUMPDEST PUSH2 0x13E JUMP JUMPDEST PUSH1 0x40 MLOAD PUSH2 0x8B SWAP2 SWAP1 PUSH2 0x3B4 JUMP JUMPDEST PUSH1 0x40 MLOAD DUP1 SWAP2 SUB SWAP1 RETURN JUMPDEST PUSH2 0xAE PUSH1 0x4 DUP1 CALLDATASIZE SUB DUP2 ADD SWAP1 PUSH2 0xA9 SWAP2 SWAP1 PUSH2 0x378 JUMP JUMPDEST PUSH2 0x17D JUMP JUMPDEST STOP JUMPDEST PUSH1 0x60 PUSH1 0x0 DUP1 SLOAD DUP1 PUSH1 0x20 MUL PUSH1 0x20 ADD PUSH1 0x40 MLOAD SWAP1 DUP2 ADD PUSH1 0x40 MSTORE DUP1 SWAP3 SWAP2 SWAP1 DUP2 DUP2 MSTORE PUSH1 0x20 ADD DUP3 DUP1 SLOAD DUP1 ISZERO PUSH2 0x134 JUMPI PUSH1 0x20 MUL DUP3 ADD SWAP2 SWAP1 PUSH1 0x0 MSTORE PUSH1 0x20 PUSH1 0x0 KECCAK256 SWAP1 JUMPDEST DUP2 PUSH1 0x0 SWAP1 SLOAD SWAP1 PUSH2 0x100 EXP SWAP1 DIV PUSH20 0xFFFFFFFFFFFFFFFFFFFFFFFFFFFFFFFFFFFFFFFF AND PUSH20 0xFFFFFFFFFFFFFFFFFFFFFFFFFFFFFFFFFFFFFFFF AND DUP2 MSTORE PUSH1 0x20 ADD SWAP1 PUSH1 0x1 ADD SWAP1 DUP1 DUP4 GT PUSH2 0xEA JUMPI JUMPDEST POP POP POP POP POP SWAP1 POP SWAP1 JUMP JUMPDEST PUSH1 0x0 DUP2 DUP2 SLOAD DUP2 LT PUSH2 0x14E JUMPI PUSH1 0x0 DUP1 REVERT JUMPDEST SWAP1 PUSH1 0x0 MSTORE PUSH1 0x20 PUSH1 0x0 KECCAK256 ADD PUSH1 0x0 SWAP2 POP SLOAD SWAP1 PUSH2 0x100 EXP SWAP1 DIV PUSH20 0xFFFFFFFFFFFFFFFFFFFFFFFFFFFFFFFFFFFFFFFF AND DUP2 JUMP JUMPDEST PUSH1 0x0 DUP2 CALLER PUSH1 0x40 MLOAD PUSH2 0x18D SWAP1 PUSH2 0x21E JUMP JUMPDEST PUSH2 0x198 SWAP3 SWAP2 SWAP1 PUSH2 0x3FF JUMP JUMPDEST PUSH1 0x40 MLOAD DUP1 SWAP2 SUB SWAP1 PUSH1 0x0 CREATE DUP1 ISZERO DUP1 ISZERO PUSH2 0x1B4 JUMPI RETURNDATASIZE PUSH1 0x0 DUP1 RETURNDATACOPY RETURNDATASIZE PUSH1 0x0 REVERT JUMPDEST POP SWAP1 POP PUSH1 0x0 DUP2 SWAP1 DUP1 PUSH1 0x1 DUP2 SLOAD ADD DUP1 DUP3 SSTORE DUP1 SWAP2 POP POP PUSH1 0x1 SWAP1 SUB SWAP1 PUSH1 0x0 MSTORE PUSH1 0x20 PUSH1 0x0 KECCAK256 ADD PUSH1 0x0 SWAP1 SWAP2 SWAP1 SWAP2 SWAP1 SWAP2 PUSH2 0x100 EXP DUP2 SLOAD DUP2 PUSH20 0xFFFFFFFFFFFFFFFFFFFFFFFFFFFFFFFFFFFFFFFF MUL NOT AND SWAP1 DUP4 PUSH20 0xFFFFFFFFFFFFFFFFFFFFFFFFFFFFFFFFFFFFFFFF AND MUL OR SWAP1 SSTORE POP POP POP JUMP JUMPDEST PUSH2 0x1306 DUP1 PUSH2 0x429 DUP4 CODECOPY ADD SWAP1 JUMP JUMPDEST PUSH1 0x0 DUP2 MLOAD SWAP1 POP SWAP2 SWAP1 POP JUMP JUMPDEST PUSH1 0x0 DUP3 DUP3 MSTORE PUSH1 0x20 DUP3 ADD SWAP1 POP SWAP3 SWAP2 POP POP JUMP JUMPDEST PUSH1 0x0 DUP2 SWAP1 POP PUSH1 0x20 DUP3 ADD SWAP1 POP SWAP2 SWAP1 POP JUMP JUMPDEST PUSH1 0x0 PUSH20 0xFFFFFFFFFFFFFFFFFFFFFFFFFFFFFFFFFFFFFFFF DUP3 AND SWAP1 POP SWAP2 SWAP1 POP JUMP JUMPDEST PUSH1 0x0 PUSH2 0x282 DUP3 PUSH2 0x257 JUMP JUMPDEST SWAP1 POP SWAP2 SWAP1 POP JUMP JUMPDEST PUSH2 0x292 DUP2 PUSH2 0x277 JUMP JUMPDEST DUP3 MSTORE POP POP JUMP JUMPDEST PUSH1 0x0 PUSH2 0x2A4 DUP4 DUP4 PUSH2 0x289 JUMP JUMPDEST PUSH1 0x20 DUP4 ADD SWAP1 POP SWAP3 SWAP2 POP POP JUMP JUMPDEST PUSH1 0x0 PUSH1 0x20 DUP3 ADD SWAP1 POP SWAP2 SWAP1 POP JUMP JUMPDEST PUSH1 0x0 PUSH2 0x2C8 DUP3 PUSH2 0x22B JUMP JUMPDEST PUSH2 0x2D2 DUP2 DUP6 PUSH2 0x236 JUMP JUMPDEST SWAP4 POP PUSH2 0x2DD DUP4 PUSH2 0x247 JUMP JUMPDEST DUP1 PUSH1 0x0 JUMPDEST DUP4 DUP2 LT ISZERO PUSH2 0x30E JUMPI DUP2 MLOAD PUSH2 0x2F5 DUP9 DUP3 PUSH2 0x298 JUMP JUMPDEST SWAP8 POP PUSH2 0x300 DUP4 PUSH2 0x2B0 JUMP JUMPDEST SWAP3 POP POP PUSH1 0x1 DUP2 ADD SWAP1 POP PUSH2 0x2E1 JUMP JUMPDEST POP DUP6 SWAP4 POP POP POP POP SWAP3 SWAP2 POP POP JUMP JUMPDEST PUSH1 0x0 PUSH1 0x20 DUP3 ADD SWAP1 POP DUP2 DUP2 SUB PUSH1 0x0 DUP4 ADD MSTORE PUSH2 0x335 DUP2 DUP5 PUSH2 0x2BD JUMP JUMPDEST SWAP1 POP SWAP3 SWAP2 POP POP JUMP JUMPDEST PUSH1 0x0 DUP1 REVERT JUMPDEST PUSH1 0x0 DUP2 SWAP1 POP SWAP2 SWAP1 POP JUMP JUMPDEST PUSH2 0x355 DUP2 PUSH2 0x342 JUMP JUMPDEST DUP2 EQ PUSH2 0x360 JUMPI PUSH1 0x0 DUP1 REVERT JUMPDEST POP JUMP JUMPDEST PUSH1 0x0 DUP2 CALLDATALOAD SWAP1 POP PUSH2 0x372 DUP2 PUSH2 0x34C JUMP JUMPDEST SWAP3 SWAP2 POP POP JUMP JUMPDEST PUSH1 0x0 PUSH1 0x20 DUP3 DUP5 SUB SLT ISZERO PUSH2 0x38E JUMPI PUSH2 0x38D PUSH2 0x33D JUMP JUMPDEST JUMPDEST PUSH1 0x0 PUSH2 0x39C DUP5 DUP3 DUP6 ADD PUSH2 0x363 JUMP JUMPDEST SWAP2 POP POP SWAP3 SWAP2 POP POP JUMP JUMPDEST PUSH2 0x3AE DUP2 PUSH2 0x277 JUMP JUMPDEST DUP3 MSTORE POP POP JUMP JUMPDEST PUSH1 0x0 PUSH1 0x20 DUP3 ADD SWAP1 POP PUSH2 0x3C9 PUSH1 0x0 DUP4 ADD DUP5 PUSH2 0x3A5 JUMP JUMPDEST SWAP3 SWAP2 POP POP JUMP JUMPDEST PUSH2 0x3D8 DUP2 PUSH2 0x342 JUMP JUMPDEST DUP3 MSTORE POP POP JUMP JUMPDEST PUSH1 0x0 PUSH2 0x3E9 DUP3 PUSH2 0x257 JUMP JUMPDEST SWAP1 POP SWAP2 SWAP1 POP JUMP JUMPDEST PUSH2 0x3F9 DUP2 PUSH2 0x3DE JUMP JUMPDEST DUP3 MSTORE POP POP JUMP JUMPDEST PUSH1 0x0 PUSH1 0x40 DUP3 ADD SWAP1 POP PUSH2 0x414 PUSH1 0x0 DUP4 ADD DUP6 PUSH2 0x3CF JUMP JUMPDEST PUSH2 0x421 PUSH1 0x20 DUP4 ADD DUP5 PUSH2 0x3F0 JUMP JUMPDEST SWAP4 SWAP3 POP POP POP JUMP INVALID PUSH1 0x80 PUSH1 0x40 MSTORE CALLVALUE DUP1 ISZERO PUSH3 0x11 JUMPI PUSH1 0x0 DUP1 REVERT JUMPDEST POP PUSH1 0x40 MLOAD PUSH3 0x1306 CODESIZE SUB DUP1 PUSH3 0x1306 DUP4 CODECOPY DUP2 DUP2 ADD PUSH1 0x40 MSTORE DUP2 ADD SWAP1 PUSH3 0x37 SWAP2 SWAP1 PUSH3 0x12B JUMP JUMPDEST DUP1 PUSH1 0x0 DUP1 PUSH2 0x100 EXP DUP2 SLOAD DUP2 PUSH20 0xFFFFFFFFFFFFFFFFFFFFFFFFFFFFFFFFFFFFFFFF MUL NOT AND SWAP1 DUP4 PUSH20 0xFFFFFFFFFFFFFFFFFFFFFFFFFFFFFFFFFFFFFFFF AND MUL OR SWAP1 SSTORE POP DUP2 PUSH1 0x1 DUP2 SWAP1 SSTORE POP POP POP PUSH3 0x172 JUMP JUMPDEST PUSH1 0x0 DUP1 REVERT JUMPDEST PUSH1 0x0 DUP2 SWAP1 POP SWAP2 SWAP1 POP JUMP JUMPDEST PUSH3 0xA0 DUP2 PUSH3 0x8B JUMP JUMPDEST DUP2 EQ PUSH3 0xAC JUMPI PUSH1 0x0 DUP1 REVERT JUMPDEST POP JUMP JUMPDEST PUSH1 0x0 DUP2 MLOAD SWAP1 POP PUSH3 0xC0 DUP2 PUSH3 0x95 JUMP JUMPDEST SWAP3 SWAP2 POP POP JUMP JUMPDEST PUSH1 0x0 PUSH20 0xFFFFFFFFFFFFFFFFFFFFFFFFFFFFFFFFFFFFFFFF DUP3 AND SWAP1 POP SWAP2 SWAP1 POP JUMP JUMPDEST PUSH1 0x0 PUSH3 0xF3 DUP3 PUSH3 0xC6 JUMP JUMPDEST SWAP1 POP SWAP2 SWAP1 POP JUMP JUMPDEST PUSH3 0x105 DUP2 PUSH3 0xE6 JUMP JUMPDEST DUP2 EQ PUSH3 0x111 JUMPI PUSH1 0x0 DUP1 REVERT JUMPDEST POP JUMP JUMPDEST PUSH1 0x0 DUP2 MLOAD SWAP1 POP PUSH3 0x125 DUP2 PUSH3 0xFA JUMP JUMPDEST SWAP3 SWAP2 POP POP JUMP JUMPDEST PUSH1 0x0 DUP1 PUSH1 0x40 DUP4 DUP6 SUB SLT ISZERO PUSH3 0x145 JUMPI PUSH3 0x144 PUSH3 0x86 JUMP JUMPDEST JUMPDEST PUSH1 0x0 PUSH3 0x155 DUP6 DUP3 DUP7 ADD PUSH3 0xAF JUMP JUMPDEST SWAP3 POP POP PUSH1 0x20 PUSH3 0x168 DUP6 DUP3 DUP7 ADD PUSH3 0x114 JUMP JUMPDEST SWAP2 POP POP SWAP3 POP SWAP3 SWAP1 POP JUMP JUMPDEST PUSH2 0x1184 DUP1 PUSH3 0x182 PUSH1 0x0 CODECOPY PUSH1 0x0 RETURN INVALID PUSH1 0x80 PUSH1 0x40 MSTORE PUSH1 0x4 CALLDATASIZE LT PUSH2 0x9C JUMPI PUSH1 0x0 CALLDATALOAD PUSH1 0xE0 SHR DUP1 PUSH4 0x7569B3D7 GT PUSH2 0x64 JUMPI DUP1 PUSH4 0x7569B3D7 EQ PUSH2 0x18C JUMPI DUP1 PUSH4 0x81D12C58 EQ PUSH2 0x1B7 JUMPI DUP1 PUSH4 0x8A9CFD55 EQ PUSH2 0x1F8 JUMPI DUP1 PUSH4 0x937E09B1 EQ PUSH2 0x221 JUMPI DUP1 PUSH4 0xD7BB99BA EQ PUSH2 0x24C JUMPI DUP1 PUSH4 0xD7D1BBDB EQ PUSH2 0x256 JUMPI PUSH2 0x9C JUMP JUMPDEST DUP1 PUSH4 0x3441006 EQ PUSH2 0xA1 JUMPI DUP1 PUSH4 0xA144391 EQ PUSH2 0xCA JUMPI DUP1 PUSH4 0x3410452A EQ PUSH2 0x107 JUMPI DUP1 PUSH4 0x4051DDAC EQ PUSH2 0x132 JUMPI DUP1 PUSH4 0x481C6A75 EQ PUSH2 0x161 JUMPI JUMPDEST PUSH1 0x0 DUP1 REVERT JUMPDEST CALLVALUE DUP1 ISZERO PUSH2 0xAD JUMPI PUSH1 0x0 DUP1 REVERT JUMPDEST POP PUSH2 0xC8 PUSH1 0x4 DUP1 CALLDATASIZE SUB DUP2 ADD SWAP1 PUSH2 0xC3 SWAP2 SWAP1 PUSH2 0x93E JUMP JUMPDEST PUSH2 0x27F JUMP JUMPDEST STOP JUMPDEST CALLVALUE DUP1 ISZERO PUSH2 0xD6 JUMPI PUSH1 0x0 DUP1 REVERT JUMPDEST POP PUSH2 0xF1 PUSH1 0x4 DUP1 CALLDATASIZE SUB DUP2 ADD SWAP1 PUSH2 0xEC SWAP2 SWAP1 PUSH2 0x9C9 JUMP JUMPDEST PUSH2 0x445 JUMP JUMPDEST PUSH1 0x40 MLOAD PUSH2 0xFE SWAP2 SWAP1 PUSH2 0xA11 JUMP JUMPDEST PUSH1 0x40 MLOAD DUP1 SWAP2 SUB SWAP1 RETURN JUMPDEST CALLVALUE DUP1 ISZERO PUSH2 0x113 JUMPI PUSH1 0x0 DUP1 REVERT JUMPDEST POP PUSH2 0x11C PUSH2 0x465 JUMP JUMPDEST PUSH1 0x40 MLOAD PUSH2 0x129 SWAP2 SWAP1 PUSH2 0xA3B JUMP JUMPDEST PUSH1 0x40 MLOAD DUP1 SWAP2 SUB SWAP1 RETURN JUMPDEST CALLVALUE DUP1 ISZERO PUSH2 0x13E JUMPI PUSH1 0x0 DUP1 REVERT JUMPDEST POP PUSH2 0x147 PUSH2 0x472 JUMP JUMPDEST PUSH1 0x40 MLOAD PUSH2 0x158 SWAP6 SWAP5 SWAP4 SWAP3 SWAP2 SWAP1 PUSH2 0xA65 JUMP JUMPDEST PUSH1 0x40 MLOAD DUP1 SWAP2 SUB SWAP1 RETURN JUMPDEST CALLVALUE DUP1 ISZERO PUSH2 0x16D JUMPI PUSH1 0x0 DUP1 REVERT JUMPDEST POP PUSH2 0x176 PUSH2 0x4B9 JUMP JUMPDEST PUSH1 0x40 MLOAD PUSH2 0x183 SWAP2 SWAP1 PUSH2 0xAB8 JUMP JUMPDEST PUSH1 0x40 MLOAD DUP1 SWAP2 SUB SWAP1 RETURN JUMPDEST CALLVALUE DUP1 ISZERO PUSH2 0x198 JUMPI PUSH1 0x0 DUP1 REVERT JUMPDEST POP PUSH2 0x1A1 PUSH2 0x4DD JUMP JUMPDEST PUSH1 0x40 MLOAD PUSH2 0x1AE SWAP2 SWAP1 PUSH2 0xA3B JUMP JUMPDEST PUSH1 0x40 MLOAD DUP1 SWAP2 SUB SWAP1 RETURN JUMPDEST CALLVALUE DUP1 ISZERO PUSH2 0x1C3 JUMPI PUSH1 0x0 DUP1 REVERT JUMPDEST POP PUSH2 0x1DE PUSH1 0x4 DUP1 CALLDATASIZE SUB DUP2 ADD SWAP1 PUSH2 0x1D9 SWAP2 SWAP1 PUSH2 0x93E JUMP JUMPDEST PUSH2 0x4E3 JUMP JUMPDEST PUSH1 0x40 MLOAD PUSH2 0x1EF SWAP6 SWAP5 SWAP4 SWAP3 SWAP2 SWAP1 PUSH2 0xB6C JUMP JUMPDEST PUSH1 0x40 MLOAD DUP1 SWAP2 SUB SWAP1 RETURN JUMPDEST CALLVALUE DUP1 ISZERO PUSH2 0x204 JUMPI PUSH1 0x0 DUP1 REVERT JUMPDEST POP PUSH2 0x21F PUSH1 0x4 DUP1 CALLDATASIZE SUB DUP2 ADD SWAP1 PUSH2 0x21A SWAP2 SWAP1 PUSH2 0xCFB JUMP JUMPDEST PUSH2 0x5DE JUMP JUMPDEST STOP JUMPDEST CALLVALUE DUP1 ISZERO PUSH2 0x22D JUMPI PUSH1 0x0 DUP1 REVERT JUMPDEST POP PUSH2 0x236 PUSH2 0x6E5 JUMP JUMPDEST PUSH1 0x40 MLOAD PUSH2 0x243 SWAP2 SWAP1 PUSH2 0xA3B JUMP JUMPDEST PUSH1 0x40 MLOAD DUP1 SWAP2 SUB SWAP1 RETURN JUMPDEST PUSH2 0x254 PUSH2 0x6EB JUMP JUMPDEST STOP JUMPDEST CALLVALUE DUP1 ISZERO PUSH2 0x262 JUMPI PUSH1 0x0 DUP1 REVERT JUMPDEST POP PUSH2 0x27D PUSH1 0x4 DUP1 CALLDATASIZE SUB DUP2 ADD SWAP1 PUSH2 0x278 SWAP2 SWAP1 PUSH2 0x93E JUMP JUMPDEST PUSH2 0x76B JUMP JUMPDEST STOP JUMPDEST PUSH1 0x0 DUP1 SLOAD SWAP1 PUSH2 0x100 EXP SWAP1 DIV PUSH20 0xFFFFFFFFFFFFFFFFFFFFFFFFFFFFFFFFFFFFFFFF AND PUSH20 0xFFFFFFFFFFFFFFFFFFFFFFFFFFFFFFFFFFFFFFFF AND CALLER PUSH20 0xFFFFFFFFFFFFFFFFFFFFFFFFFFFFFFFFFFFFFFFF AND EQ PUSH2 0x2D7 JUMPI PUSH1 0x0 DUP1 REVERT JUMPDEST PUSH1 0x2 PUSH1 0x4 SLOAD PUSH2 0x2E6 SWAP2 SWAP1 PUSH2 0xDC8 JUMP JUMPDEST PUSH1 0x3 DUP3 DUP2 SLOAD DUP2 LT PUSH2 0x2FA JUMPI PUSH2 0x2F9 PUSH2 0xDF9 JUMP JUMPDEST JUMPDEST SWAP1 PUSH1 0x0 MSTORE PUSH1 0x20 PUSH1 0x0 KECCAK256 SWAP1 PUSH1 0x5 MUL ADD PUSH1 0x3 ADD SLOAD GT PUSH2 0x316 JUMPI PUSH1 0x0 DUP1 REVERT JUMPDEST PUSH1 0x3 DUP2 DUP2 SLOAD DUP2 LT PUSH2 0x32A JUMPI PUSH2 0x329 PUSH2 0xDF9 JUMP JUMPDEST JUMPDEST SWAP1 PUSH1 0x0 MSTORE PUSH1 0x20 PUSH1 0x0 KECCAK256 SWAP1 PUSH1 0x5 MUL ADD PUSH1 0x2 ADD PUSH1 0x14 SWAP1 SLOAD SWAP1 PUSH2 0x100 EXP SWAP1 DIV PUSH1 0xFF AND ISZERO PUSH2 0x353 JUMPI PUSH1 0x0 DUP1 REVERT JUMPDEST PUSH1 0x3 DUP2 DUP2 SLOAD DUP2 LT PUSH2 0x367 JUMPI PUSH2 0x366 PUSH2 0xDF9 JUMP JUMPDEST JUMPDEST SWAP1 PUSH1 0x0 MSTORE PUSH1 0x20 PUSH1 0x0 KECCAK256 SWAP1 PUSH1 0x5 MUL ADD PUSH1 0x2 ADD PUSH1 0x0 SWAP1 SLOAD SWAP1 PUSH2 0x100 EXP SWAP1 DIV PUSH20 0xFFFFFFFFFFFFFFFFFFFFFFFFFFFFFFFFFFFFFFFF AND PUSH20 0xFFFFFFFFFFFFFFFFFFFFFFFFFFFFFFFFFFFFFFFF AND PUSH2 0x8FC PUSH1 0x3 DUP4 DUP2 SLOAD DUP2 LT PUSH2 0x3C6 JUMPI PUSH2 0x3C5 PUSH2 0xDF9 JUMP JUMPDEST JUMPDEST SWAP1 PUSH1 0x0 MSTORE PUSH1 0x20 PUSH1 0x0 KECCAK256 SWAP1 PUSH1 0x5 MUL ADD PUSH1 0x1 ADD SLOAD SWAP1 DUP2 ISZERO MUL SWAP1 PUSH1 0x40 MLOAD PUSH1 0x0 PUSH1 0x40 MLOAD DUP1 DUP4 SUB DUP2 DUP6 DUP9 DUP9 CALL SWAP4 POP POP POP POP ISZERO DUP1 ISZERO PUSH2 0x403 JUMPI RETURNDATASIZE PUSH1 0x0 DUP1 RETURNDATACOPY RETURNDATASIZE PUSH1 0x0 REVERT JUMPDEST POP PUSH1 0x1 PUSH1 0x3 DUP3 DUP2 SLOAD DUP2 LT PUSH2 0x41A JUMPI PUSH2 0x419 PUSH2 0xDF9 JUMP JUMPDEST JUMPDEST SWAP1 PUSH1 0x0 MSTORE PUSH1 0x20 PUSH1 0x0 KECCAK256 SWAP1 PUSH1 0x5 MUL ADD PUSH1 0x2 ADD PUSH1 0x14 PUSH2 0x100 EXP DUP2 SLOAD DUP2 PUSH1 0xFF MUL NOT AND SWAP1 DUP4 ISZERO ISZERO MUL OR SWAP1 SSTORE POP POP JUMP JUMPDEST PUSH1 0x2 PUSH1 0x20 MSTORE DUP1 PUSH1 0x0 MSTORE PUSH1 0x40 PUSH1 0x0 KECCAK256 PUSH1 0x0 SWAP2 POP SLOAD SWAP1 PUSH2 0x100 EXP SWAP1 DIV PUSH1 0xFF AND DUP2 JUMP JUMPDEST PUSH1 0x0 PUSH1 0x3 DUP1 SLOAD SWAP1 POP SWAP1 POP SWAP1 JUMP JUMPDEST PUSH1 0x0 DUP1 PUSH1 0x0 DUP1 PUSH1 0x0 SELFBALANCE PUSH1 0x1 SLOAD PUSH1 0x3 DUP1 SLOAD SWAP1 POP PUSH1 0x4 SLOAD PUSH1 0x0 DUP1 SLOAD SWAP1 PUSH2 0x100 EXP SWAP1 DIV PUSH20 0xFFFFFFFFFFFFFFFFFFFFFFFFFFFFFFFFFFFFFFFF AND SWAP5 POP SWAP5 POP SWAP5 POP SWAP5 POP SWAP5 POP SWAP1 SWAP2 SWAP3 SWAP4 SWAP5 JUMP JUMPDEST PUSH1 0x0 DUP1 SLOAD SWAP1 PUSH2 0x100 EXP SWAP1 DIV PUSH20 0xFFFFFFFFFFFFFFFFFFFFFFFFFFFFFFFFFFFFFFFF AND DUP2 JUMP JUMPDEST PUSH1 0x4 SLOAD DUP2 JUMP JUMPDEST PUSH1 0x3 DUP2 DUP2 SLOAD DUP2 LT PUSH2 0x4F3 JUMPI PUSH1 0x0 DUP1 REVERT JUMPDEST SWAP1 PUSH1 0x0 MSTORE PUSH1 0x20 PUSH1 0x0 KECCAK256 SWAP1 PUSH1 0x5 MUL ADD PUSH1 0x0 SWAP2 POP SWAP1 POP DUP1 PUSH1 0x0 ADD DUP1 SLOAD PUSH2 0x516 SWAP1 PUSH2 0xE57 JUMP JUMPDEST DUP1 PUSH1 0x1F ADD PUSH1 0x20 DUP1 SWAP2 DIV MUL PUSH1 0x20 ADD PUSH1 0x40 MLOAD SWAP1 DUP2 ADD PUSH1 0x40 MSTORE DUP1 SWAP3 SWAP2 SWAP1 DUP2 DUP2 MSTORE PUSH1 0x20 ADD DUP3 DUP1 SLOAD PUSH2 0x542 SWAP1 PUSH2 0xE57 JUMP JUMPDEST DUP1 ISZERO PUSH2 0x58F JUMPI DUP1 PUSH1 0x1F LT PUSH2 0x564 JUMPI PUSH2 0x100 DUP1 DUP4 SLOAD DIV MUL DUP4 MSTORE SWAP2 PUSH1 0x20 ADD SWAP2 PUSH2 0x58F JUMP JUMPDEST DUP3 ADD SWAP2 SWAP1 PUSH1 0x0 MSTORE PUSH1 0x20 PUSH1 0x0 KECCAK256 SWAP1 JUMPDEST DUP2 SLOAD DUP2 MSTORE SWAP1 PUSH1 0x1 ADD SWAP1 PUSH1 0x20 ADD DUP1 DUP4 GT PUSH2 0x572 JUMPI DUP3 SWAP1 SUB PUSH1 0x1F AND DUP3 ADD SWAP2 JUMPDEST POP POP POP POP POP SWAP1 DUP1 PUSH1 0x1 ADD SLOAD SWAP1 DUP1 PUSH1 0x2 ADD PUSH1 0x0 SWAP1 SLOAD SWAP1 PUSH2 0x100 EXP SWAP1 DIV PUSH20 0xFFFFFFFFFFFFFFFFFFFFFFFFFFFFFFFFFFFFFFFF AND SWAP1 DUP1 PUSH1 0x2 ADD PUSH1 0x14 SWAP1 SLOAD SWAP1 PUSH2 0x100 EXP SWAP1 DIV PUSH1 0xFF AND SWAP1 DUP1 PUSH1 0x3 ADD SLOAD SWAP1 POP DUP6 JUMP JUMPDEST PUSH1 0x0 DUP1 SLOAD SWAP1 PUSH2 0x100 EXP SWAP1 DIV PUSH20 0xFFFFFFFFFFFFFFFFFFFFFFFFFFFFFFFFFFFFFFFF AND PUSH20 0xFFFFFFFFFFFFFFFFFFFFFFFFFFFFFFFFFFFFFFFF AND CALLER PUSH20 0xFFFFFFFFFFFFFFFFFFFFFFFFFFFFFFFFFFFFFFFF AND EQ PUSH2 0x636 JUMPI PUSH1 0x0 DUP1 REVERT JUMPDEST PUSH1 0x0 PUSH1 0x3 PUSH1 0x1 DUP2 PUSH1 0x1 DUP2 SLOAD ADD DUP1 DUP3 SSTORE DUP1 SWAP2 POP POP SUB SWAP1 PUSH1 0x0 MSTORE PUSH1 0x20 PUSH1 0x0 KECCAK256 SWAP1 PUSH1 0x5 MUL ADD SWAP1 POP DUP4 DUP2 PUSH1 0x0 ADD SWAP1 DUP2 PUSH2 0x66B SWAP2 SWAP1 PUSH2 0x1034 JUMP JUMPDEST POP DUP3 DUP2 PUSH1 0x1 ADD DUP2 SWAP1 SSTORE POP DUP2 DUP2 PUSH1 0x2 ADD PUSH1 0x0 PUSH2 0x100 EXP DUP2 SLOAD DUP2 PUSH20 0xFFFFFFFFFFFFFFFFFFFFFFFFFFFFFFFFFFFFFFFF MUL NOT AND SWAP1 DUP4 PUSH20 0xFFFFFFFFFFFFFFFFFFFFFFFFFFFFFFFFFFFFFFFF AND MUL OR SWAP1 SSTORE POP PUSH1 0x0 DUP2 PUSH1 0x2 ADD PUSH1 0x14 PUSH2 0x100 EXP DUP2 SLOAD DUP2 PUSH1 0xFF MUL NOT AND SWAP1 DUP4 ISZERO ISZERO MUL OR SWAP1 SSTORE POP PUSH1 0x0 DUP2 PUSH1 0x3 ADD DUP2 SWAP1 SSTORE POP POP POP POP POP JUMP JUMPDEST PUSH1 0x1 SLOAD DUP2 JUMP JUMPDEST PUSH1 0x1 SLOAD CALLVALUE GT PUSH2 0x6F9 JUMPI PUSH1 0x0 DUP1 REVERT JUMPDEST PUSH1 0x1 PUSH1 0x2 PUSH1 0x0 CALLER PUSH20 0xFFFFFFFFFFFFFFFFFFFFFFFFFFFFFFFFFFFFFFFF AND PUSH20 0xFFFFFFFFFFFFFFFFFFFFFFFFFFFFFFFFFFFFFFFF AND DUP2 MSTORE PUSH1 0x20 ADD SWAP1 DUP2 MSTORE PUSH1 0x20 ADD PUSH1 0x0 KECCAK256 PUSH1 0x0 PUSH2 0x100 EXP DUP2 SLOAD DUP2 PUSH1 0xFF MUL NOT AND SWAP1 DUP4 ISZERO ISZERO MUL OR SWAP1 SSTORE POP PUSH1 0x4 PUSH1 0x0 DUP2 SLOAD DUP1 SWAP3 SWAP2 SWAP1 PUSH2 0x764 SWAP1 PUSH2 0x1106 JUMP JUMPDEST SWAP2 SWAP1 POP SSTORE POP JUMP JUMPDEST PUSH1 0x2 PUSH1 0x0 CALLER PUSH20 0xFFFFFFFFFFFFFFFFFFFFFFFFFFFFFFFFFFFFFFFF AND PUSH20 0xFFFFFFFFFFFFFFFFFFFFFFFFFFFFFFFFFFFFFFFF AND DUP2 MSTORE PUSH1 0x20 ADD SWAP1 DUP2 MSTORE PUSH1 0x20 ADD PUSH1 0x0 KECCAK256 PUSH1 0x0 SWAP1 SLOAD SWAP1 PUSH2 0x100 EXP SWAP1 DIV PUSH1 0xFF AND PUSH2 0x7C1 JUMPI PUSH1 0x0 DUP1 REVERT JUMPDEST PUSH1 0x3 DUP2 DUP2 SLOAD DUP2 LT PUSH2 0x7D5 JUMPI PUSH2 0x7D4 PUSH2 0xDF9 JUMP JUMPDEST JUMPDEST SWAP1 PUSH1 0x0 MSTORE PUSH1 0x20 PUSH1 0x0 KECCAK256 SWAP1 PUSH1 0x5 MUL ADD PUSH1 0x4 ADD PUSH1 0x0 CALLER PUSH20 0xFFFFFFFFFFFFFFFFFFFFFFFFFFFFFFFFFFFFFFFF AND PUSH20 0xFFFFFFFFFFFFFFFFFFFFFFFFFFFFFFFFFFFFFFFF AND DUP2 MSTORE PUSH1 0x20 ADD SWAP1 DUP2 MSTORE PUSH1 0x20 ADD PUSH1 0x0 KECCAK256 PUSH1 0x0 SWAP1 SLOAD SWAP1 PUSH2 0x100 EXP SWAP1 DIV PUSH1 0xFF AND ISZERO PUSH2 0x83B JUMPI PUSH1 0x0 DUP1 REVERT JUMPDEST PUSH1 0x1 PUSH1 0x3 DUP3 DUP2 SLOAD DUP2 LT PUSH2 0x851 JUMPI PUSH2 0x850 PUSH2 0xDF9 JUMP JUMPDEST JUMPDEST SWAP1 PUSH1 0x0 MSTORE PUSH1 0x20 PUSH1 0x0 KECCAK256 SWAP1 PUSH1 0x5 MUL ADD PUSH1 0x4 ADD PUSH1 0x0 CALLER PUSH20 0xFFFFFFFFFFFFFFFFFFFFFFFFFFFFFFFFFFFFFFFF AND PUSH20 0xFFFFFFFFFFFFFFFFFFFFFFFFFFFFFFFFFFFFFFFF AND DUP2 MSTORE PUSH1 0x20 ADD SWAP1 DUP2 MSTORE PUSH1 0x20 ADD PUSH1 0x0 KECCAK256 PUSH1 0x0 PUSH2 0x100 EXP DUP2 SLOAD DUP2 PUSH1 0xFF MUL NOT AND SWAP1 DUP4 ISZERO ISZERO MUL OR SWAP1 SSTORE POP PUSH1 0x3 DUP2 DUP2 SLOAD DUP2 LT PUSH2 0x8CA JUMPI PUSH2 0x8C9 PUSH2 0xDF9 JUMP JUMPDEST JUMPDEST SWAP1 PUSH1 0x0 MSTORE PUSH1 0x20 PUSH1 0x0 KECCAK256 SWAP1 PUSH1 0x5 MUL ADD PUSH1 0x3 ADD PUSH1 0x0 DUP2 SLOAD DUP1 SWAP3 SWAP2 SWAP1 PUSH2 0x8EC SWAP1 PUSH2 0x1106 JUMP JUMPDEST SWAP2 SWAP1 POP SSTORE POP POP JUMP JUMPDEST PUSH1 0x0 PUSH1 0x40 MLOAD SWAP1 POP SWAP1 JUMP JUMPDEST PUSH1 0x0 DUP1 REVERT JUMPDEST PUSH1 0x0 DUP1 REVERT JUMPDEST PUSH1 0x0 DUP2 SWAP1 POP SWAP2 SWAP1 POP JUMP JUMPDEST PUSH2 0x91B DUP2 PUSH2 0x908 JUMP JUMPDEST DUP2 EQ PUSH2 0x926 JUMPI PUSH1 0x0 DUP1 REVERT JUMPDEST POP JUMP JUMPDEST PUSH1 0x0 DUP2 CALLDATALOAD SWAP1 POP PUSH2 0x938 DUP2 PUSH2 0x912 JUMP JUMPDEST SWAP3 SWAP2 POP POP JUMP JUMPDEST PUSH1 0x0 PUSH1 0x20 DUP3 DUP5 SUB SLT ISZERO PUSH2 0x954 JUMPI PUSH2 0x953 PUSH2 0x8FE JUMP JUMPDEST JUMPDEST PUSH1 0x0 PUSH2 0x962 DUP5 DUP3 DUP6 ADD PUSH2 0x929 JUMP JUMPDEST SWAP2 POP POP SWAP3 SWAP2 POP POP JUMP JUMPDEST PUSH1 0x0 PUSH20 0xFFFFFFFFFFFFFFFFFFFFFFFFFFFFFFFFFFFFFFFF DUP3 AND SWAP1 POP SWAP2 SWAP1 POP JUMP JUMPDEST PUSH1 0x0 PUSH2 0x996 DUP3 PUSH2 0x96B JUMP JUMPDEST SWAP1 POP SWAP2 SWAP1 POP JUMP JUMPDEST PUSH2 0x9A6 DUP2 PUSH2 0x98B JUMP JUMPDEST DUP2 EQ PUSH2 0x9B1 JUMPI PUSH1 0x0 DUP1 REVERT JUMPDEST POP JUMP JUMPDEST PUSH1 0x0 DUP2 CALLDATALOAD SWAP1 POP PUSH2 0x9C3 DUP2 PUSH2 0x99D JUMP JUMPDEST SWAP3 SWAP2 POP POP JUMP JUMPDEST PUSH1 0x0 PUSH1 0x20 DUP3 DUP5 SUB SLT ISZERO PUSH2 0x9DF JUMPI PUSH2 0x9DE PUSH2 0x8FE JUMP JUMPDEST JUMPDEST PUSH1 0x0 PUSH2 0x9ED DUP5 DUP3 DUP6 ADD PUSH2 0x9B4 JUMP JUMPDEST SWAP2 POP POP SWAP3 SWAP2 POP POP JUMP JUMPDEST PUSH1 0x0 DUP2 ISZERO ISZERO SWAP1 POP SWAP2 SWAP1 POP JUMP JUMPDEST PUSH2 0xA0B DUP2 PUSH2 0x9F6 JUMP JUMPDEST DUP3 MSTORE POP POP JUMP JUMPDEST PUSH1 0x0 PUSH1 0x20 DUP3 ADD SWAP1 POP PUSH2 0xA26 PUSH1 0x0 DUP4 ADD DUP5 PUSH2 0xA02 JUMP JUMPDEST SWAP3 SWAP2 POP POP JUMP JUMPDEST PUSH2 0xA35 DUP2 PUSH2 0x908 JUMP JUMPDEST DUP3 MSTORE POP POP JUMP JUMPDEST PUSH1 0x0 PUSH1 0x20 DUP3 ADD SWAP1 POP PUSH2 0xA50 PUSH1 0x0 DUP4 ADD DUP5 PUSH2 0xA2C JUMP JUMPDEST SWAP3 SWAP2 POP POP JUMP JUMPDEST PUSH2 0xA5F DUP2 PUSH2 0x98B JUMP JUMPDEST DUP3 MSTORE POP POP JUMP JUMPDEST PUSH1 0x0 PUSH1 0xA0 DUP3 ADD SWAP1 POP PUSH2 0xA7A PUSH1 0x0 DUP4 ADD DUP9 PUSH2 0xA2C JUMP JUMPDEST PUSH2 0xA87 PUSH1 0x20 DUP4 ADD DUP8 PUSH2 0xA2C JUMP JUMPDEST PUSH2 0xA94 PUSH1 0x40 DUP4 ADD DUP7 PUSH2 0xA2C JUMP JUMPDEST PUSH2 0xAA1 PUSH1 0x60 DUP4 ADD DUP6 PUSH2 0xA2C JUMP JUMPDEST PUSH2 0xAAE PUSH1 0x80 DUP4 ADD DUP5 PUSH2 0xA56 JUMP JUMPDEST SWAP7 SWAP6 POP POP POP POP POP POP JUMP JUMPDEST PUSH1 0x0 PUSH1 0x20 DUP3 ADD SWAP1 POP PUSH2 0xACD PUSH1 0x0 DUP4 ADD DUP5 PUSH2 0xA56 JUMP JUMPDEST SWAP3 SWAP2 POP POP JUMP JUMPDEST PUSH1 0x0 DUP2 MLOAD SWAP1 POP SWAP2 SWAP1 POP JUMP JUMPDEST PUSH1 0x0 DUP3 DUP3 MSTORE PUSH1 0x20 DUP3 ADD SWAP1 POP SWAP3 SWAP2 POP POP JUMP JUMPDEST PUSH1 0x0 JUMPDEST DUP4 DUP2 LT ISZERO PUSH2 0xB0D JUMPI DUP1 DUP3 ADD MLOAD DUP2 DUP5 ADD MSTORE PUSH1 0x20 DUP2 ADD SWAP1 POP PUSH2 0xAF2 JUMP JUMPDEST DUP4 DUP2 GT ISZERO PUSH2 0xB1C JUMPI PUSH1 0x0 DUP5 DUP5 ADD MSTORE JUMPDEST POP POP POP POP JUMP JUMPDEST PUSH1 0x0 PUSH1 0x1F NOT PUSH1 0x1F DUP4 ADD AND SWAP1 POP SWAP2 SWAP1 POP JUMP JUMPDEST PUSH1 0x0 PUSH2 0xB3E DUP3 PUSH2 0xAD3 JUMP JUMPDEST PUSH2 0xB48 DUP2 DUP6 PUSH2 0xADE JUMP JUMPDEST SWAP4 POP PUSH2 0xB58 DUP2 DUP6 PUSH1 0x20 DUP7 ADD PUSH2 0xAEF JUMP JUMPDEST PUSH2 0xB61 DUP2 PUSH2 0xB22 JUMP JUMPDEST DUP5 ADD SWAP2 POP POP SWAP3 SWAP2 POP POP JUMP JUMPDEST PUSH1 0x0 PUSH1 0xA0 DUP3 ADD SWAP1 POP DUP2 DUP2 SUB PUSH1 0x0 DUP4 ADD MSTORE PUSH2 0xB86 DUP2 DUP9 PUSH2 0xB33 JUMP JUMPDEST SWAP1 POP PUSH2 0xB95 PUSH1 0x20 DUP4 ADD DUP8 PUSH2 0xA2C JUMP JUMPDEST PUSH2 0xBA2 PUSH1 0x40 DUP4 ADD DUP7 PUSH2 0xA56 JUMP JUMPDEST PUSH2 0xBAF PUSH1 0x60 DUP4 ADD DUP6 PUSH2 0xA02 JUMP JUMPDEST PUSH2 0xBBC PUSH1 0x80 DUP4 ADD DUP5 PUSH2 0xA2C JUMP JUMPDEST SWAP7 SWAP6 POP POP POP POP POP POP JUMP JUMPDEST PUSH1 0x0 DUP1 REVERT JUMPDEST PUSH1 0x0 DUP1 REVERT JUMPDEST PUSH32 0x4E487B7100000000000000000000000000000000000000000000000000000000 PUSH1 0x0 MSTORE PUSH1 0x41 PUSH1 0x4 MSTORE PUSH1 0x24 PUSH1 0x0 REVERT JUMPDEST PUSH2 0xC08 DUP3 PUSH2 0xB22 JUMP JUMPDEST DUP2 ADD DUP2 DUP2 LT PUSH8 0xFFFFFFFFFFFFFFFF DUP3 GT OR ISZERO PUSH2 0xC27 JUMPI PUSH2 0xC26 PUSH2 0xBD0 JUMP JUMPDEST JUMPDEST DUP1 PUSH1 0x40 MSTORE POP POP POP JUMP JUMPDEST PUSH1 0x0 PUSH2 0xC3A PUSH2 0x8F4 JUMP JUMPDEST SWAP1 POP PUSH2 0xC46 DUP3 DUP3 PUSH2 0xBFF JUMP JUMPDEST SWAP2 SWAP1 POP JUMP JUMPDEST PUSH1 0x0 PUSH8 0xFFFFFFFFFFFFFFFF DUP3 GT ISZERO PUSH2 0xC66 JUMPI PUSH2 0xC65 PUSH2 0xBD0 JUMP JUMPDEST JUMPDEST PUSH2 0xC6F DUP3 PUSH2 0xB22 JUMP JUMPDEST SWAP1 POP PUSH1 0x20 DUP2 ADD SWAP1 POP SWAP2 SWAP1 POP JUMP JUMPDEST DUP3 DUP2 DUP4 CALLDATACOPY PUSH1 0x0 DUP4 DUP4 ADD MSTORE POP POP POP JUMP JUMPDEST PUSH1 0x0 PUSH2 0xC9E PUSH2 0xC99 DUP5 PUSH2 0xC4B JUMP JUMPDEST PUSH2 0xC30 JUMP JUMPDEST SWAP1 POP DUP3 DUP2 MSTORE PUSH1 0x20 DUP2 ADD DUP5 DUP5 DUP5 ADD GT ISZERO PUSH2 0xCBA JUMPI PUSH2 0xCB9 PUSH2 0xBCB JUMP JUMPDEST JUMPDEST PUSH2 0xCC5 DUP5 DUP3 DUP6 PUSH2 0xC7C JUMP JUMPDEST POP SWAP4 SWAP3 POP POP POP JUMP JUMPDEST PUSH1 0x0 DUP3 PUSH1 0x1F DUP4 ADD SLT PUSH2 0xCE2 JUMPI PUSH2 0xCE1 PUSH2 0xBC6 JUMP JUMPDEST JUMPDEST DUP2 CALLDATALOAD PUSH2 0xCF2 DUP5 DUP3 PUSH1 0x20 DUP7 ADD PUSH2 0xC8B JUMP JUMPDEST SWAP2 POP POP SWAP3 SWAP2 POP POP JUMP JUMPDEST PUSH1 0x0 DUP1 PUSH1 0x0 PUSH1 0x60 DUP5 DUP7 SUB SLT ISZERO PUSH2 0xD14 JUMPI PUSH2 0xD13 PUSH2 0x8FE JUMP JUMPDEST JUMPDEST PUSH1 0x0 DUP5 ADD CALLDATALOAD PUSH8 0xFFFFFFFFFFFFFFFF DUP2 GT ISZERO PUSH2 0xD32 JUMPI PUSH2 0xD31 PUSH2 0x903 JUMP JUMPDEST JUMPDEST PUSH2 0xD3E DUP7 DUP3 DUP8 ADD PUSH2 0xCCD JUMP JUMPDEST SWAP4 POP POP PUSH1 0x20 PUSH2 0xD4F DUP7 DUP3 DUP8 ADD PUSH2 0x929 JUMP JUMPDEST SWAP3 POP POP PUSH1 0x40 PUSH2 0xD60 DUP7 DUP3 DUP8 ADD PUSH2 0x9B4 JUMP JUMPDEST SWAP2 POP POP SWAP3 POP SWAP3 POP SWAP3 JUMP JUMPDEST PUSH32 0x4E487B7100000000000000000000000000000000000000000000000000000000 PUSH1 0x0 MSTORE PUSH1 0x12 PUSH1 0x4 MSTORE PUSH1 0x24 PUSH1 0x0 REVERT JUMPDEST PUSH32 0x4E487B7100000000000000000000000000000000000000000000000000000000 PUSH1 0x0 MSTORE PUSH1 0x11 PUSH1 0x4 MSTORE PUSH1 0x24 PUSH1 0x0 REVERT JUMPDEST PUSH1 0x0 PUSH2 0xDD3 DUP3 PUSH2 0x908 JUMP JUMPDEST SWAP2 POP PUSH2 0xDDE DUP4 PUSH2 0x908 JUMP JUMPDEST SWAP3 POP DUP3 PUSH2 0xDEE JUMPI PUSH2 0xDED PUSH2 0xD6A JUMP JUMPDEST JUMPDEST DUP3 DUP3 DIV SWAP1 POP SWAP3 SWAP2 POP POP JUMP JUMPDEST PUSH32 0x4E487B7100000000000000000000000000000000000000000000000000000000 PUSH1 0x0 MSTORE PUSH1 0x32 PUSH1 0x4 MSTORE PUSH1 0x24 PUSH1 0x0 REVERT JUMPDEST PUSH32 0x4E487B7100000000000000000000000000000000000000000000000000000000 PUSH1 0x0 MSTORE PUSH1 0x22 PUSH1 0x4 MSTORE PUSH1 0x24 PUSH1 0x0 REVERT JUMPDEST PUSH1 0x0 PUSH1 0x2 DUP3 DIV SWAP1 POP PUSH1 0x1 DUP3 AND DUP1 PUSH2 0xE6F JUMPI PUSH1 0x7F DUP3 AND SWAP2 POP JUMPDEST PUSH1 0x20 DUP3 LT DUP2 SUB PUSH2 0xE82 JUMPI PUSH2 0xE81 PUSH2 0xE28 JUMP JUMPDEST JUMPDEST POP SWAP2 SWAP1 POP JUMP JUMPDEST PUSH1 0x0 DUP2 SWAP1 POP DUP2 PUSH1 0x0 MSTORE PUSH1 0x20 PUSH1 0x0 KECCAK256 SWAP1 POP SWAP2 SWAP1 POP JUMP JUMPDEST PUSH1 0x0 PUSH1 0x20 PUSH1 0x1F DUP4 ADD DIV SWAP1 POP SWAP2 SWAP1 POP JUMP JUMPDEST PUSH1 0x0 DUP3 DUP3 SHL SWAP1 POP SWAP3 SWAP2 POP POP JUMP JUMPDEST PUSH1 0x0 PUSH1 0x8 DUP4 MUL PUSH2 0xEEA PUSH32 0xFFFFFFFFFFFFFFFFFFFFFFFFFFFFFFFFFFFFFFFFFFFFFFFFFFFFFFFFFFFFFFFF DUP3 PUSH2 0xEAD JUMP JUMPDEST PUSH2 0xEF4 DUP7 DUP4 PUSH2 0xEAD JUMP JUMPDEST SWAP6 POP DUP1 NOT DUP5 AND SWAP4 POP DUP1 DUP7 AND DUP5 OR SWAP3 POP POP POP SWAP4 SWAP3 POP POP POP JUMP JUMPDEST PUSH1 0x0 DUP2 SWAP1 POP SWAP2 SWAP1 POP JUMP JUMPDEST PUSH1 0x0 PUSH2 0xF31 PUSH2 0xF2C PUSH2 0xF27 DUP5 PUSH2 0x908 JUMP JUMPDEST PUSH2 0xF0C JUMP JUMPDEST PUSH2 0x908 JUMP JUMPDEST SWAP1 POP SWAP2 SWAP1 POP JUMP JUMPDEST PUSH1 0x0 DUP2 SWAP1 POP SWAP2 SWAP1 POP JUMP JUMPDEST PUSH2 0xF4B DUP4 PUSH2 0xF16 JUMP JUMPDEST PUSH2 0xF5F PUSH2 0xF57 DUP3 PUSH2 0xF38 JUMP JUMPDEST DUP5 DUP5 SLOAD PUSH2 0xEBA JUMP JUMPDEST DUP3 SSTORE POP POP POP POP JUMP JUMPDEST PUSH1 0x0 SWAP1 JUMP JUMPDEST PUSH2 0xF74 PUSH2 0xF67 JUMP JUMPDEST PUSH2 0xF7F DUP2 DUP5 DUP5 PUSH2 0xF42 JUMP JUMPDEST POP POP POP JUMP JUMPDEST JUMPDEST DUP2 DUP2 LT ISZERO PUSH2 0xFA3 JUMPI PUSH2 0xF98 PUSH1 0x0 DUP3 PUSH2 0xF6C JUMP JUMPDEST PUSH1 0x1 DUP2 ADD SWAP1 POP PUSH2 0xF85 JUMP JUMPDEST POP POP JUMP JUMPDEST PUSH1 0x1F DUP3 GT ISZERO PUSH2 0xFE8 JUMPI PUSH2 0xFB9 DUP2 PUSH2 0xE88 JUMP JUMPDEST PUSH2 0xFC2 DUP5 PUSH2 0xE9D JUMP JUMPDEST DUP2 ADD PUSH1 0x20 DUP6 LT ISZERO PUSH2 0xFD1 JUMPI DUP2 SWAP1 POP JUMPDEST PUSH2 0xFE5 PUSH2 0xFDD DUP6 PUSH2 0xE9D JUMP JUMPDEST DUP4 ADD DUP3 PUSH2 0xF84 JUMP JUMPDEST POP POP JUMPDEST POP POP POP JUMP JUMPDEST PUSH1 0x0 DUP3 DUP3 SHR SWAP1 POP SWAP3 SWAP2 POP POP JUMP JUMPDEST PUSH1 0x0 PUSH2 0x100B PUSH1 0x0 NOT DUP5 PUSH1 0x8 MUL PUSH2 0xFED JUMP JUMPDEST NOT DUP1 DUP4 AND SWAP2 POP POP SWAP3 SWAP2 POP POP JUMP JUMPDEST PUSH1 0x0 PUSH2 0x1024 DUP4 DUP4 PUSH2 0xFFA JUMP JUMPDEST SWAP2 POP DUP3 PUSH1 0x2 MUL DUP3 OR SWAP1 POP SWAP3 SWAP2 POP POP JUMP JUMPDEST PUSH2 0x103D DUP3 PUSH2 0xAD3 JUMP JUMPDEST PUSH8 0xFFFFFFFFFFFFFFFF DUP2 GT ISZERO PUSH2 0x1056 JUMPI PUSH2 0x1055 PUSH2 0xBD0 JUMP JUMPDEST JUMPDEST PUSH2 0x1060 DUP3 SLOAD PUSH2 0xE57 JUMP JUMPDEST PUSH2 0x106B DUP3 DUP3 DUP6 PUSH2 0xFA7 JUMP JUMPDEST PUSH1 0x0 PUSH1 0x20 SWAP1 POP PUSH1 0x1F DUP4 GT PUSH1 0x1 DUP2 EQ PUSH2 0x109E JUMPI PUSH1 0x0 DUP5 ISZERO PUSH2 0x108C JUMPI DUP3 DUP8 ADD MLOAD SWAP1 POP JUMPDEST PUSH2 0x1096 DUP6 DUP3 PUSH2 0x1018 JUMP JUMPDEST DUP7 SSTORE POP PUSH2 0x10FE JUMP JUMPDEST PUSH1 0x1F NOT DUP5 AND PUSH2 0x10AC DUP7 PUSH2 0xE88 JUMP JUMPDEST PUSH1 0x0 JUMPDEST DUP3 DUP2 LT ISZERO PUSH2 0x10D4 JUMPI DUP5 DUP10 ADD MLOAD DUP3 SSTORE PUSH1 0x1 DUP3 ADD SWAP2 POP PUSH1 0x20 DUP6 ADD SWAP5 POP PUSH1 0x20 DUP2 ADD SWAP1 POP PUSH2 0x10AF JUMP JUMPDEST DUP7 DUP4 LT ISZERO PUSH2 0x10F1 JUMPI DUP5 DUP10 ADD MLOAD PUSH2 0x10ED PUSH1 0x1F DUP10 AND DUP3 PUSH2 0xFFA JUMP JUMPDEST DUP4 SSTORE POP JUMPDEST PUSH1 0x1 PUSH1 0x2 DUP9 MUL ADD DUP9 SSTORE POP POP POP JUMPDEST POP POP POP POP POP POP JUMP JUMPDEST PUSH1 0x0 PUSH2 0x1111 DUP3 PUSH2 0x908 JUMP JUMPDEST SWAP2 POP PUSH32 0xFFFFFFFFFFFFFFFFFFFFFFFFFFFFFFFFFFFFFFFFFFFFFFFFFFFFFFFFFFFFFFFF DUP3 SUB PUSH2 0x1143 JUMPI PUSH2 0x1142 PUSH2 0xD99 JUMP JUMPDEST JUMPDEST PUSH1 0x1 DUP3 ADD SWAP1 POP SWAP2 SWAP1 POP JUMP INVALID LOG2 PUSH5 0x6970667358 0x22 SLT KECCAK256 BYTE DUP13 0xCA 0xBA 0xEA 0x2B 0x2D SLOAD PUSH9 0x88C32C9175087511D9 PUSH13 0xCADA90ED32CE4FC63967F8BDC4 PUSH5 0x736F6C6343 STOP ADDMOD 0xF STOP CALLER LOG2 PUSH5 0x6970667358 0x22 SLT KECCAK256 0xB3 SLT 0xB0 0x27 ISZERO 0xCB 0xC2 EXTCODECOPY 0xB4 LOG2 0xD6 0xBB PUSH15 0x794F4020AAF4EAE84AD7DAFFB4239 STOP SWAP1 EXP PUSH14 0x64736F6C634300080F0033000000 "},"gasEstimates":{"creation":{"codeDepositCost":"1197600","executionCost":"1248","totalCost":"1198848"},"external":{"createCampaign(uint256)":"infinite","deployedContracts(uint256)":"4956","getDeployedCampaigns()":"infinite"}},"methodIdentifiers":{"createCampaign(uint256)":"a3303a75","deployedContracts(uint256)":"9ad1ee10","getDeployedCampaigns()":"4acb9d4f"}},"storageLayout":{"storage":[{"astId":4,"contract":"Campaign.sol:CampaignFactory","label":"deployedContracts","offset":0,"slot":"0","type":"t_array(t_address_payable)dyn_storage"}],"types":{"t_address_payable":{"encoding":"inplace","label":"address payable","numberOfBytes":"20"},"t_array(t_address_payable)dyn_storage":{"base":"t_address_payable","encoding":"dynamic_array","label":"address payable[]","numberOfBytes":"32"}}},"userdoc":{"kind":"user","methods":{},"version":1}}